:020000040800F2
:10300000480E002045310008D35B0008FB3400085F
:10301000D15B000885320008096300080000000049
:10302000000000000000000000000000995E0008A1
:103030008732000800000000855C00085D5F000822
:103040005F3100085F3100085F3100085F31000820
:103050005F3100085F3100085F3100085F31000810
:103060005F3100085F3100085F3100085F31000800
:103070005F3100085F3100085F3100085F310008F0
:103080005F3100085F3100085F3100085F310008E0
:103090005F3100085F3100085F3100085F310008D0
:1030A0005F3100085F3100085F3100085F310008C0
:1030B000B15F00085F3100085F3100085F31000830
:1030C0005F3100085F3100085F3100085F310008A0
:1030D0005F310008F96000085F3100085F310008C7
:1030E0005F3100085F3100085F3100085F31000880
:1030F0005F3100085F3100085F3100085F31000870
:103100005F3100085F3100085F3100085F3100085F
:103110005F3100085F3100085F3100085F3100084F
:103120005F3100085F3100085F3100085F3100083F
:10313000DFF80CD000F04AF800480047996B00080F
:10314000480E00200648804706480047FEE7FEE795
:10315000FEE7FEE7FEE7FEE7FEE7FEE7FEE7FEE747
:10316000615F0008313100082DE9F05F054600205D
:1031700092469B4688460646814640241BE02846E8
:1031800041464746224600F042F853465A46C01A86
:10319000914110D311461846224600F029F82D1A05
:1031A00067EB01084F4622460120002100F020F87D
:1031B00017EB00094E41201EA4F10104DFDC484654
:1031C00031462A464346BDE8F09F0000064C074DB5
:1031D00006E0E06840F0010394E8070098471034E7
:1031E000AC42F6D3FFF7A8FF98790008B879000839
:1031F000202A04DB203A00FA02F1002070479140B7
:10320000C2F1200320FA03F3194390407047202AAB
:1032100004DB203A21FA02F00021704721FA02F380
:10322000D040C2F12002914008431946704770B562
:103230008C1810F8015B15F0070301D110F8013B61
:103240002A1106D110F8012B03E010F8016B01F8E8
:10325000016B5B1EF9D12B0705D40023521E0DD440
:1032600001F8013BFAE710F8013BCB1A921C03E08E
:1032700013F8015B01F8015B521EF9D5A142D8D3C6
:10328000002070BDFEE7704770B505464FF430264C
:10329000304600F059F8042811D1094C206940F05B
:1032A000020020616561206940F0400020613046E5
:1032B00000F04AF8216941F6FD721140216170BDAC
:1032C0000020024008490420CA68D20701D001202A
:1032D0007047CA68520701D502207047C968C906FD
:1032E000FBD503207047000000200240024801691E
:1032F00041F080010161704700200240F0B50646B0
:103300004FF400570D46384600F01EF804280CD143
:10331000064C206940F0010020613580384600F0FD
:1033200013F82169BA1E11402161F0BD002002404E
:1033300003480249416003494160704723016745E2
:1033400000200240AB89EFCD00B50346FFF7BAFF7E
:1033500003E000BFFFF7B6FF5B1E012803D0002B80
:1033600000D1052000BD002BF4D1FAE78000A0F1C8
:10337000C0400029016802D041F0010101E0024A89
:103380001140016070470000FEFF0F0010B5D0E94A
:1033900001121143D0E903231A4311434269114337
:1033A00082691143C2691143026A1143426A11439F
:1033B000826A1143C26A1143026B11430268920090
:1033C000A2F1C04211608168082907D10168890013
:1033D000A1F1C0410A6842F040020A60416BD1E9A4
:1033E000002342EA03128B688C891B0243EA0443E0
:1033F0001A430B8A42EA03520B7D896942EA03624F
:103400000A4301688900A1F1C0414A60C16AB1F56F
:10341000804F08D000686FF070418000A0F1C0407C
:10342000C0F8041110BD816BD1E9002342EA0312F8
:103430008B680C8A1B0243EA04531A430B7D89698B
:1034400042EA036200680A438000A0F1C040C0F86D
:10345000042110BDF0B5CA78002502F00F03D20692
:1034600001D58A7813430A784FF00F0E12F0FF0F40
:103470004FF001021CD004680F8802FA05F63740AD
:10348000B74211D14FEA850C0EFA0CF724EA070770
:1034900003FA0CF43C43CF78282F02D0482F02D0F7
:1034A00002E0466100E006616D1C082DE4D3046073
:1034B0000C88FF2C1ED944685FF0000606F108074F
:1034C00002FA07F50F882F40AF420FD14FEA860C62
:1034D0000EFA0CF7BC4303FA0CF73C43CF78282FC5
:1034E00000D14561CF78482F00D10561761C082EA8
:1034F000E4D34460F0BD01617047FEE701B5FFF71A
:1035000017FF01226946034802F050FCFFF7EEFE68
:1035100008BD00000028000810B50020FFF7EEFFEE
:10352000BDE810404FF44051014802F093BB000049
:10353000003000082DE9F043174C81460025208813
:1035400066884643A088A0F5D041043902D1A0790D
:10355000012807D00021084602F0C2FA02F0FEFA64
:103560000E4814E00020A0712A2767814FF02B0835
:10357000A4F80C80014602F0B3FA0120A071A4F86F
:103580000A80A781EAE700BFA0F800906D1CB54251
:10359000FAD3BDE8F08300006C0100200008006C45
:1035A0002DE9F04F50492C232A242B2522222126B5
:1035B000898848F689194FF04E0A4FF04F0B45F2B3
:1035C000105EF02749F24138F8B147484FF0010C3E
:1035D000414580F806C04FF4A07CA0F800C04780A9
:1035E0000FD0A1F5A647103F0BD0A1F5D047043F5F
:1035F0004ED0494550D10281A0F80AB0A0F80CA0E5
:1036000060E00381448185815CE037484FF0000C25
:10361000414580F806C007804FF4A077478011D05D
:10362000A1F5D04CBCF1040C0CD0A1F5A04CBCF51C
:10363000447C07D0494514D10281A0F80AA0A0F823
:103640000CB04CE003814481A1F5D0428581043A5D
:1036500003D0A1F5A642103A41D107804FF4F07192
:103660000FE071450FD14FF4305101814FF42851D3
:1036700041814FF42C5181814FF4F07101804FF45E
:10368000487141802BE0028120214181868126E022
:1036900003814581848115E071450FD14FF430528B
:1036A00002814FF4285242814FF42C5282814FF410
:1036B000487202804FF4F072428003E0028146813A
:1036C00020228281A1F5D042043A03D0A1F5A6427E
:1036D000103A04D14FF4F0710180A0F802C0BDE8A7
:1036E000F04F002002F058B96C0100202DE9F04F96
:1036F00001210E02A1B0304602F0C6FA012140F2CB
:10370000691002F0E5FA4FF00108ADF83C80102591
:103710008DF83F5003208DF83E0047460FA9FE4824
:10372000FFF798FE4CF23370ADF83C0018248DF88A
:103730003F4003208DF83E000FA9F848FFF78AFEAE
:103740004FF68070ADF83C008DF83F4003208DF8B7
:103750003E000FA9F248FFF77DFE41F20100ADF8EF
:103760003C008DF83F4003208DF83E000FA9ED4846
:10377000FFF770FE00220F201097CDE91120139261
:1037800014920320CDE9182015921A920620169261
:103790001792CDE900021B921C92CDE902251D92E1
:1037A00004922802CDE90820069205928000CDE916
:1037B0000A20079210A8CDE90C2017A80E906846A1
:1037C000FFF7E4FD01210620FFF7D0FD322003F0D2
:1037D0000DF80121002002F0CBF9322003F006F8A9
:1037E000002002F0CDF8D04DD04C49F2413AA71C50
:1037F000A88046F6040B4FF6FF79FF2804D348450E
:1038000002D0B0F5134F1ED1D3202080388809EAAA
:1038100000210843A880504515D0BF212180A880F1
:10382000584510D0D4212180A0F5A641A880103998
:1038300009D04FF45C412180A880B0F5004F02D13F
:1038400045F21050A88081B2B9A002F05FFDA888AF
:10385000504504D1EF203880112020800AE05845DF
:103860000DD111202080142002F0C0FF2A202080DA
:10387000DF203880782002F0B9FF2920FDE3A0F591
:10388000A641103946D0A0F5AA4110394DD0A0F577
:1038900013414FF4E06740F2022B40F23F144FF423
:1038A000274A25397ED0FD1DA0F5134128397AD04D
:1038B000A0F513414FF4887A203975D0A0F5134153
:1038C000313901F0F981A0F5A841083901F0C98228
:1038D000A0F5A8514FF4407A053901F05E83A0F5B8
:1038E0003541053901F06584A0F54541053901F000
:1038F0005E85A0F50941893901F02286A0F58A414B
:10390000313901F0D286A0F58A41353901F08D8731
:1039100001F07FBF5520388011202080642002F004
:1039200065FF822038802C20A8E74FF47043552192
:10393000184602F01DF94FF20105AA21284602F0AF
:1039400017F96E1C5221304602F012F9AF1C082103
:10395000384602F00DF94FF2040A0121504602F0F8
:1039600007F90D214FF4304002F002F90D214BF21E
:10397000010002F0FDF80D214BF2020002F0F8F810
:103980004FF4364B3421584602F0F2F834214BF212
:10399000016002F0EDF834214BF2026002F0E8F829
:1039A0000D2102E0FEE3FEE3FEE34FF4314002F0BE
:1039B000DFF80D214BF2011002F0DAF80D214BF285
:1039C000021002F0D5F834214FF4374002F0D0F85D
:1039D00034214BF2017002F0CBF834214BF202702B
:1039E00002F0C6F800214FF4324002F0C1F8002185
:1039F0004BF2012002F0BCF800214BF2022002F051
:103A0000B7F824214FF4384002F0B2F824214BF6E5
:103A1000010002F0ADF824214BF6020002F0A8F8F4
:103A200001214FF43F4002F0A3F80F214FF433403F
:103A300002F09EF80F214BF2013002F099F80F21AD
:103A40004BF2023002F094F834214FF4394002F086
:103A50008FF834214BF6011002F08AF834214BF62E
:103A6000021002F085F808214FF4354002F080F88A
:103A700008214BF2015002F07BF808214BF2025072
:103A800002F076F803214FF4424002F071F824214D
:103A90004FF43A4002F06CF824214BF6012002F07A
:103AA00067F824214BF6022002F062F800214FF45F
:103AB0003C4002F05DF878214BF6014002F058F8E6
:103AC00000214BF6024002F053F800214FF43D4034
:103AD00002F04EF878214BF6015002F049F800212F
:103AE0004BF6025002F044F800214FF43E4002F041
:103AF0003FF864214BF6016002F03AF800214FF4E0
:103B0000514002F035F833214DF2011002F030F847
:103B100000214DF2021013E0000C0140001401409E
:103B200000180140002001406C010020FE07006CDD
:103B3000204C43442049443A25780D0A00000000F7
:103B400002F016F834214DF2031002F011F80021B2
:103B50004DF2041002F00CF83A214DF2051002F07B
:103B600007F800214DF2061002F002F84A214DF24A
:103B7000071001F0FDFF00214DF2081001F0F8FFE1
:103B80005C214DF2091001F0F3FF00214DF20A1003
:103B900001F0EEFF81214DF20B1001F0E9FF002151
:103BA0004DF20C1001F0E4FFA6214DF20D1001F0D2
:103BB000DFFF00214DF20E1001F0DAFFE5214DF29A
:103BC0000F1001F0D5FF01214DF2101001F0D0FFD0
:103BD00013214DF2111001F0CBFF01214DF2121013
:103BE00001F0C6FF54214DF2131001F0C1FF012175
:103BF0004DF2141001F0BCFF82214DF2151001F0BE
:103C0000B7FF01214DF2161001F0B2FFCA214DF2AB
:103C1000171001F0ADFF02214DF2181001F0A8FFBE
:103C200000214DF2191001F0A3FF02214DF21A10EC
:103C300001F09EFF01214DF21B1001F099FF0221BE
:103C40004DF21C1001F094FF34214DF21D1001F0D3
:103C50008FFF02214DF21E1001F08AFF67214DF205
:103C60001F1001F085FF02214DF2201001F080FFAE
:103C700084214DF2211001F07BFF02214DF2221030
:103C800001F076FFA4214DF2231001F071FF022113
:103C90004DF2241001F06CFFB7214DF2251001F018
:103CA00067FF02214DF2261001F062FFCF214DF295
:103CB000271001F05DFF02214DF2281001F058FF9E
:103CC000DE214DF2291001F053FF02214DF22A109E
:103CD00001F04EFFF2214DF22B1001F049FF0221BD
:103CE0004DF22C1001F044FFFE214DF22D1001F099
:103CF0003FFF03214DF22E1001F03AFF10214DF24B
:103D00002F1001F035FF03214DF2301001F030FF8C
:103D100033214DF2311001F02BFF03214DF232100F
:103D200001F026FF6D214DF2331001F021FF00213B
:103D30004FF4524001F01CFF33214DF2012001F0FD
:103D400017FF00214DF2022001F012FF34214DF245
:103D5000032001F00DFF00214DF2042001F008FFC7
:103D60003A214DF2052001F003FF00214DF206201B
:103D700001F0FEFE4A214DF2072001F0F9FE00217C
:103D80004DF2082001F0F4FE5C214DF2092001F013
:103D9000EFFE00214DF20A2001F0EAFE81214DF2F2
:103DA0000B2001F0E5FE00214DF20C2001F0E0FEB9
:103DB000A6214DF20D2001F0DBFE00214DF20E2078
:103DC00001F0D6FEE5214DF20F2001F0D1FE0121D8
:103DD0004DF2102001F0CCFE13214DF2112001F024
:103DE000C7FE01214DF2122001F0C2FE54214DF216
:103DF000132001F0BDFE01214DF2142001F0B8FEA8
:103E000082214DF2152001F0B3FE01214DF2162062
:103E100001F0AEFECA214DF2172001F0A9FE0221E9
:103E20004DF2182001F0A4FE00214DF2192001F0FE
:103E30009FFE02214DF21A2001F09AFE01214DF25F
:103E40001B2001F095FE02214DF21C2001F090FE96
:103E500034214DF21D2001F08BFE02214DF21E2077
:103E600001F086FE67214DF21F2001F081FE022144
:103E70004DF2202001F07CFE84214DF2212001F042
:103E800077FE02214DF2222001F072FEA4214DF2B4
:103E9000232001F06DFE02214DF2242001F068FE86
:103EA000B7214DF2252001F063FE02214DF22620BC
:103EB00001F05EFECF214DF2272001F059FE0221D4
:103EC0004DF2282001F054FEDE214DF2292001F0B0
:103ED0004FFE02214DF22A2001F04AFEF2214DF25E
:103EE0002B2001F045FE02214DF22C2001F040FE76
:103EF000FE214DF22D2001F03BFE03214DF22E203C
:103F000001F036FE10214DF22F2001F031FE032189
:103F10004DF2302001F02CFE33214DF2312001F022
:103F200027FE03214DF2322001F022FE6D214DF2D9
:103F3000332001F01DFE00214FF4534001F018FE24
:103F400033214DF2013001F013FE00214DF2023019
:103F500001F00EFE34214DF2033001F009FE002184
:103F60004DF2043001F004FE3A214DF2053001F02B
:103F7000FFFD00214DF2063001F0FAFD4A214DF21D
:103F8000073001F0F5FD00214DF2083001F0F0FDA1
:103F90005C214DF2093001F0EBFD00214DF20A30B9
:103FA00001F0E6FD81214DF20B3001F0E1FD002131
:103FB0004DF20C3001F0DCFDA6214DF20D3001F088
:103FC000D7FD00214DF20E3001F0D2FDE5214DF27A
:103FD0000F3001F0CDFD01214DF2103001F0C8FD90
:103FE00013214DF2113001F0C3FD01214DF21230C9
:103FF00001F0BEFD54214DF2133001F0B9FD012155
:104000004DF2143001F0B4FD82214DF2153001F073
:10401000AFFD01214DF2163001F0AAFDCA214DF28B
:10402000173001F0A5FD02214DF2183001F0A0FD7E
:1040300000214DF2193001F09BFD02214DF21A30A2
:1040400001F096FD01214DF21B3001F091FD02219E
:104050004DF21C3001F08CFD34214DF21D3001F089
:1040600087FD02214DF21E3001F082FD67214DF2E5
:104070001F3001F07DFD022100E0ECE34DF2203025
:1040800001F076FD84214DF2213001F071FD022115
:104090004DF2223001F06CFDA4214DF2233001F0ED
:1040A00067FD02214DF2243001F062FDB7214DF28F
:1040B000253001F05DFD02214DF2263001F058FD62
:1040C000CF214DF2273001F053FD02214DF228306F
:1040D00001F04EFDDE214DF2293001F049FD0221B3
:1040E0004DF22A3001F044FDF2214DF22B3001F067
:1040F0003FFD02214DF22C3001F03AFDFE214DF240
:104100002D3001F035FD03214DF22E3001F030FD50
:1041100010214DF22F3001F02BFD03214DF23030F4
:1041200001F026FD33214DF2313001F021FD032154
:104130004DF2323001F01CFD6D214DF2333001F0B3
:1041400017FD00214FF4544001F012FD33214DF2D0
:10415000014001F00DFD00214DF2024001F008FD8B
:1041600034214DF2034001F003FD00214DF20440E3
:1041700001F0FEFC3A214DF2054001F0F9FC00216E
:104180004DF2064001F0F4FC4A214DF2074001F0E7
:10419000EFFC00214DF2084001F0EAFC5C214DF2F9
:1041A000094002E059E3FDE3FDE301F0E1FC0021F9
:1041B0004DF20A4001F0DCFC81214DF20B4001F090
:1041C000D7FC00214DF20C4001F0D2FCA6214DF2AB
:1041D0000D4001F0CDFC00214DF20E4001F0C8FC75
:1041E000E5214DF20F4001F0C3FC01214DF21040DA
:1041F00001F0BEFC13214DF2114001F0B9FC012188
:104200004DF2124001F0B4FC54214DF2134001F084
:10421000AFFC01214DF2144001F0AAFC82214DF2C5
:10422000154001F0A5FC01214DF2164001F0A0FC63
:10423000CA214DF2174001F09BFC02214DF21840BB
:1042400001F096FC00214DF2194001F091FC022191
:104250004DF21A4001F08CFC01214DF21B4001F09F
:1042600087FC02214DF21C4001F082FC34214DF20A
:104270001D4001F07DFC02214DF21E4001F078FC52
:1042800067214DF21F4001F073FC02214DF22040E6
:1042900001F06EFC84214DF2214001F069FC022105
:1042A0004DF2224001F064FCA4214DF2234001F0C4
:1042B0005FFC02214DF2244001F05AFCB7214DF27F
:1042C000254001F055FC02214DF2264001F050FC42
:1042D000CF214DF2274001F04BFC02214DF2284046
:1042E00001F046FCDE214DF2294001F041FC0221A3
:1042F0004DF22A4001F03CFCF2214DF22B4001F03E
:1043000037FC02214DF22C4001F032FCFE214DF22F
:104310002D4001F02DFC03214DF22E4001F028FC30
:1043200010214DF22F4001F023FC03214DF23040CB
:1043300001F01EFC33214DF2314001F019FC032144
:104340004DF2324001F014FC6D214DF2334001F08A
:104350000FFC00214FF4554001F00AFC33214DF2CF
:10436000015001F005FC00214DF2025001F000FC6B
:1043700034214DF2035001F0FBFB00214DF20450BB
:1043800001F0F6FB3A214DF2055001F0F1FB00215E
:104390004DF2065001F0ECFB4A214DF2075001F0BE
:1043A000E7FB00214DF2085001F0E2FB5C214DF2E9
:1043B000095001F0DDFB00214DF20A5001F0D8FB5D
:1043C00081214DF20B5001F0D3FB00214DF20C5036
:1043D00001F0CEFBA6214DF20D5001F0C9FB0021EA
:1043E0004DF20E5001F0C4FBE5214DF20F5001F0EB
:1043F000BFFB01214DF2105001F0BAFB13214DF229
:10440000115001F0B5FB01214DF2125001F0B0FB4B
:1044100054214DF2135001F0ABFB01214DF2145029
:1044200001F0A6FB82214DF2155001F0A1FB012104
:104430004DF2165001F09CFBCA214DF2175001F0CD
:1044400097FB02214DF2185001F092FB00214DF232
:10445000195001F08DFB02214DF21A5001F088FB3A
:1044600001214DF21B5001F083FB02214DF21C5043
:1044700001F07EFB34214DF21D5001F079FB022149
:104480004DF21E5001F074FB67214DF21F5001F0F8
:104490006FFB02214DF2205001F06AFB84214DF2A6
:1044A000215001F065FB02214DF2225001F060FB2A
:1044B000A4214DF2235001F05BFB02214DF2245068
:1044C00001F056FBB7214DF2255001F051FB0221BE
:1044D0004DF2265001F04CFBCF214DF2275001F058
:1044E00047FB02214DF2285001F042FBDE214DF244
:1044F000295001F03DFB02214DF22A5001F038FB1A
:10450000F2214DF22B5001F033FB02214DF22C50E1
:1045100001F02EFBFE214DF22D5001F029FB03216D
:104520004DF22E5001F024FB10214DF22F5001F0DE
:104530001FFB03214DF2305001F01AFB33214DF2E5
:10454000315001F015FB03214DF2325001F010FB08
:104550006D214DF2335001F00BFB00214FF456401A
:1045600001F006FB33214DF2016001F001FB002157
:104570004DF2026001F0FCFA34214DF2036001F0CB
:10458000F7FA00214DF2046001F0F2FA3A214DF2FF
:10459000056001F0EDFA00214DF2066001F0E8FA45
:1045A0004A214DF2076001F0E3FA00214DF2086064
:1045B00001F0DEFA5C214DF2096001F0D9FA002128
:1045C0004DF20A6001F0D4FA81214DF20B6001F046
:1045D000CFFA00214DF20C6001F0CAFAA6214DF28B
:1045E0000D6001F0C5FA00214DF20E6001F0C0FA35
:1045F000E5214DF20F6001F0BBFA01214DF2106090
:1046000001F0B6FA13214DF2116001F0B1FA012167
:104610004DF2126001F0ACFA54214DF2136001F03A
:10462000A7FA01214DF2146001F0A2FA82214DF2A5
:10463000156001F09DFA01214DF2166001F098FA23
:10464000CA214DF2176001F093FA02214DF2186071
:1046500001F08EFA00214DF2196001F089FA022171
:104660004DF21A6001F084FA01214DF21B6001F055
:104670007FFA02214DF21C6001F07AFA34214DF2EA
:104680001D6001F075FA02214DF21E6001F070FA12
:1046900067214DF21F6001F06BFA02214DF220609C
:1046A00001F066FA84214DF2216001F061FA0221E5
:1046B0004DF2226001F05CFAA4214DF2236001F07A
:1046C00057FA02214DF2246001F052FAB7214DF25F
:1046D000256001F04DFA02214DF2266001F048FA02
:1046E000CF214DF2276001F043FA02214DF22860FC
:1046F00001F03EFADE214DF2296001F039FA022183
:104700004DF22A6001F034FAF2214DF22B6001F0F3
:104710002FFA02214DF22C6001F02AFAFE214DF20F
:104720002D6001F025FA03214DF22E6001F020FAF0
:1047300010214DF22F6001F01BFA03214DF2306081
:1047400001F016FA33214DF2316001F011FA032124
:104750004DF2326001F00CFA6D214DF2336001F040
:1047600007FA5521184601F003FAAA21284601F05C
:10477000FFF95221304601F0FBF90821384601F0DB
:10478000F7F90021504601F0F3F9CC214FF4314004
:1047900001F0EEF900214BF2011001F0E9F90521D9
:1047A000584601F0E5F970214FF4374001F0E0F987
:1047B00070214BF2017001F0DBF901214FF4384018
:1047C00001F0D6F903214BF6010001F0D1F90321E4
:1047D0004BF6020001F0CCF903214BF6030001F087
:1047E000C7F902214FF43C4001F0C2F900214BF619
:1047F000014001F0BDF900214BF6024001F0B8F98B
:10480000D0214FF4494001F0B3F902214CF60110D8
:1048100001F0AEF950214CF6021001F0A9F9502137
:104820004CF6031001F0A4F950214CF6041001F0ED
:104830009FF900214FF4545001F09AF955214FF49B
:10484000685001F095F94FF488502080782001F0ED
:10485000E7FF4FF424502080FEE347F6F001E52007
:1048600001F086F93146012001F082F93946022033
:1048700001F07EF941F23001032001F079F90021C5
:10488000042001F075F95946082001F071F9002162
:10489000092001F06DF900210A2001F069F90021D9
:1048A0000C2001F065F900210D2001F061F90021D3
:1048B0000F2001F05DF90021102001F059F90721C6
:1048C000112001F055F90021122001F051F90021C9
:1048D000132001F04DF90021072001F049F941F2C0
:1048E0009061102001F044F940F22721112001F0DD
:1048F0003FF99D21122001F03BF94FF4C8511320DC
:1049000001F036F92521292001F032F90D212B2063
:1049100001F02EF90721302001F02AF940F203318D
:10492000312001F025F90321322001F021F940F274
:104930000621352001F01CF90821362001F018F974
:1049400040F20641372001F013F94FF4417138204D
:1049500001F00EF90721392001F00AF940F2026155
:104960003C2001F005F908213D2001F001F900216A
:10497000502001F0FDF8EF21512001F0F9F800215D
:10498000522001F0F5F82146532001F0F1F851468C
:10499000602001F0EDF80121612001F0E9F800212B
:1049A0006A2001E027E0E2E001F0E2F80021802047
:1049B00001F0DEF80021812001F0DAF800218220E8
:1049C00001F0D6F80021832001F0D2F800218420E4
:1049D00001F0CEF80021852001F0CAF810219020C6
:1049E00001F0C6F84FF4C061922001F0C1F840F226
:1049F00033110720FEE341F28F01EC2001F0B8F8FB
:104A000041F23421EF2001F0B3F83146012001F0EA
:104A1000AFF83946022001F0ABF841F23001032033
:104A200001F0A6F80021042001F0A2F85946082060
:104A300001F09EF80021092001F09AF800210A20D7
:104A400001F096F801210C2001F092F800210D20D0
:104A500001F08EF800210F2001F08AF800211020CB
:104A600001F086F80721112001F082F800211220C0
:104A700001F07EF80021132001F07AF801210720CF
:104A800001F076F8322001F0B1FE41F290411020A1
:104A900001F06EF840F22721112001F069F8322070
:104AA00001F0A4FE8A21122001F062F8322001F008
:104AB0009DFE4FF4D051132001F05AF80621292011
:104AC00001F056F80D212B2001F052F8322001F0B0
:104AD0008DFE0021202001F04BF80021212001F063
:104AE00047F8322001F082FE0021302001F040F82A
:104AF00040F20461312001F03BF840F205313220F0
:104B000001F036F80021352001F032F840F6094175
:104B1000362001F02DF84FF40171372001F028F80C
:104B200040F20131382001F023F82946392001F004
:104B30001FF800213C2001F01BF840F60A213D201F
:104B400001F016F8322001F051FE0021502001F052
:104B50000FF8EF21512001F00BF80021522001F055
:104B600007F82146532001F003F851464EE1002199
:104B7000084600F0FDFF3146012000F0F9FF3946FC
:104B8000022000F0F5FF41F23001032000F0F0FFB9
:104B90000021042000F0ECFF5946082000F0E8FF57
:104BA0000021092000F0E4FF00210A2000F0E0FFCE
:104BB00001210C2000F0DCFF00210D2000F0D8FFC7
:104BC00000210F2000F0D4FF322001F00FFE40F250
:104BD0000111072000F0CCFF322001F007FE4FF456
:104BE0008651102000F0C4FF0721112000F0C0FF03
:104BF00053465146122000F0BBFF4FF430611320A2
:104C000000F0B6FF0021292000F0B2FF44F21001AD
:104C10002B2000F0ADFF0021502000F0A9FFEF2174
:104C2000512000F0A5FF0021522000F0A1FF2146F5
:104C3000532000F09DFF4FF41C51602000F098FFBE
:104C40000121612000F094FF00216A2000F090FF14
:104C50000021802000F08CFF0021812000F088FFDF
:104C60000021822000F084FF0021832000F080FFDB
:104C70000021842000F07CFF0021852000F078FFD7
:104C80001021902000F074FF0021922000F070FFAE
:104C90000121932000F06CFF1946952000F068FF79
:104CA0000021972000F064FF0021982000F060FFB1
:104CB00040F27311072079E341F21401E72000F07C
:104CC00057FF3146012000F053FF4FF400710220DE
:104CD00000F04EFF41F23801032000F049FF594631
:104CE000082000F045FF0021092000F041FF0021CD
:104CF0000A2000F03DFF00210C2000F039FF0021C8
:104D00000D2000F035FF00210F2000F031FF0021C1
:104D1000102000F02DFF0721112000F029FF0021B5
:104D2000122000F025FF0021132000F021FFC820F1
:104D300001F05CFD41F29061102000F019FF40F29B
:104D40002721112000F014FF322001F04FFD0C212B
:104D5000122000F00DFF322001F048FD4FF40061F9
:104D6000132000F005FF1121292000F001FF0B2185
:104D70002B2000F0FDFE322001F038FD0021202024
:104D800000F0F6FE2146212000F0F2FE0021302046
:104D900000F0EEFE4FF483731946312000F0E8FE78
:104DA0000021322000F0E4FE4FF40171352000F0C4
:104DB000DFFE41F20A61362000F0DAFE2946372094
:104DC00000F0D6FE1946382000F0D2FE29463920E0
:104DD00000F0CEFE40F202413C2000F0C9FE40F659
:104DE0000F413D2000F0C4FE0021502000F0C0FE25
:104DF000EF21512000F0BCFE0021522000F0B8FE4F
:104E00002146532000F0B4FE4FF41C51602000F006
:104E1000AFFE0121612000F0ABFE00216A2000F00E
:104E2000A7FE0021802000F0A3FE0021812000F0D9
:104E30009FFE0021822000F09BFE0021832000F0D5
:104E400097FE0021842000F093FE0021852000F0D1
:104E50008FFE1021902000F08BFE4FF4C061922055
:104E6000FEE33146012000F083FE3946022000F0C7
:104E70007FFE41F23001032000F07AFE0021042081
:104E800000F076FE40F20721082000F071FE0021BC
:104E9000092000F06DFE00210A2000F069FE0021CB
:104EA0000C2000F065FE00210D2000F061FE0021C5
:104EB0000F2000F05DFE142001F098FC41F2B0617B
:104EC000102000F055FE0121112000F051FE0121BB
:104ED000172000F04DFE4FF49C71122000F048FEA8
:104EE0004FF40061132000F043FE0921292000F057
:104EF0003FFE09212A2000F03BFE0021A42000F003
:104F000037FE0021502000F033FEEF21512000F049
:104F10002FFE0021522000F02BFE2146532000F0EE
:104F200027FE4FF41C51602000F022FE0121612079
:104F300000F01EFE00216A2000F01AFE00218020F1
:104F400000F016FE0021812000F012FE00218220D8
:104F500000F00EFE0021832000F00AFE00218420D4
:104F600000F006FE0021852000F002FE13219020B3
:104F700000F0FEFD0021922000F0FAFD03219320B5
:104F800000F0F6FD5146952000F0F2FD40F273115D
:104F9000072000F0EDFD322008E10021072000F09D
:104FA000E7FD322001F022FC4FF48E71122000F058
:104FB000DFFD0121A42000F0DBFD0F21082000F01F
:104FC000D7FD08210A2000F0D3FD08210D2000F0B4
:104FD000CFFD2946302000F0CBFD0721312000F025
:104FE000C7FD40F20361322000F0C2FD3946332094
:104FF00000F0BEFD5946342000F0BAFD02213520F4
:1050000000F0B6FD41F60F71362000F0B1FD2946E3
:10501000372000F0ADFD0021382000F0A9FD00216F
:10502000392000F0A5FD29463A2000F0A1FD00211D
:105030003B2000F09DFD07213C2000F099FD002160
:105040003D2000F095FD322001F0D0FB012107202A
:1050500000F08EFD012100E0DBE3172000F088FD69
:10506000322001F0C3FB4FF4BD51102000F080FD51
:1050700040F21721112000F07BFD4FF48F711220B8
:1050800000F076FD4FF47061132000F071FD0021F7
:105090002A2000F06DFD0A21292000F069FD4FF45F
:1050A0009F71122000F064FD0021502000F060FD8F
:1050B000EF21512000F05CFD0021522000F058FD4E
:1050C0002146532000F054FD4FF41C51602000F0A5
:1050D0004FFD0121612000F04BFD00216A2000F00E
:1050E00047FD0021802000F043FD0021812000F0D9
:1050F0003FFD0021822000F03BFD0021832000F0D5
:1051000037FD0021842000F033FD0021852000F0D0
:105110002FFD1321902000F02BFD5146922000F02E
:1051200027FD0521932000F023FD0021952000F0AC
:105130001FFD0021972000F01BFD0021982000F0AA
:1051400017FD3146012000F013FD3946022000F022
:105150000FFD41F23801032000F00AFD0021042078
:1051600000F006FD00210C2000F002FD00210F20C0
:1051700000F0FEFC0021202000F0FAFC002121209C
:1051800000F0F6FC2121072000F0F2FC142001F0D1
:105190002DFB6121072000F0EBFC142001F026FB21
:1051A00040F27311072000F0E3FC142001F01EFB15
:1051B0002FE30021084600F0DBFC0021084600F048
:1051C000D7FC0021084600F0D3FC0021084600F07F
:1051D000CFFC0121A42000F0CBFC142001F006FB41
:1051E0004FF41C5A5146602000F0C2FC5D465946FF
:1051F000082000E0D6E000F0BBFC4FF40571302041
:1052000000F0B6FC43F21571312000F0B1FC40F221
:105210000461322000F0ACFC40F61661332000F04F
:10522000A7FC42F21121342000F0A2FC4FF4A85157
:10523000352000F09DFC48F20751362000F098FC24
:1052400041F20741372000F093FC41F2034138203E
:1052500000F08EFC2021392000F08AFC1A219020D9
:1052600000F086FC0021102000F082FC07211120B4
:1052700000F07EFC0021122000F07AFC00211320B7
:1052800000F076FC142001F0B1FA4FF4E661102032
:1052900000F06EFC40F23711112000F069FC142080
:1052A00001F0A4FA4FF4DC71122000F061FC14202C
:1052B00001F09CFA4FF47061132000F059FC80213A
:1052C0002A2000F055FC4821292000F051FC142030
:1052D00001F08CFA3146012000F04AFC39460220E8
:1052E00000F046FC41F23801032000F041FC294661
:1052F000082000F03DFC00210A2000F039FC0021CC
:105300000C2000F035FC00210D2000F031FC302194
:105310000E2000F02DFC0021502000F029FCEF2190
:10532000512000F025FC0021522000F021FC2146F4
:10533000532000F01DFC5146602000F019FC0121B3
:10534000612000F015FC00216A2000F011FC112101
:10535000902000F00DFC4FF4C061922000F008FC9A
:1053600040F20241932000F003FC0221942000F05F
:10537000FFFB142001F03AFA0121072000F0F8FBAE
:10538000142001F033FA6121072000F0F1FB40F214
:105390007311072000F0ECFB0021202000F0E8FB57
:1053A0000021212000F0E4FB222100202FE2002137
:1053B000084600F0DDFB0021084600F0D9FB142070
:1053C00001F014FA0021084600F0D2FB0021084643
:1053D00000F0CEFB0021084600F0CAFB0021084681
:1053E00000F0C6FB0121A42000F0C2FB142001F054
:1053F000FDF94FF41C51602000F0BAFB40F60601A5
:10540000082000F0B5FB40F203731946302000F08D
:10541000AFFB0121312000F0ABFB0421322000F072
:10542000A7FB4FF48171332000F0A2FB5546514693
:10543000342000F09DFB40F20311352000F098FB72
:105440001F21362000F094FB1946372000F090FB16
:105450000121382000F08CFB0421392000F088FB6A
:105460001521902000F084FB4FF48261102000F0A1
:105470007FFB40F24721112000F07AFB4FF4DE71F0
:10548000122000F075FB4FF46061132000F070FBF8
:10549000782001F0ABF93146012000F069FB4FF4B0
:1054A0000071022000F064FB41F23001032000F0A3
:1054B0005FFB08210A2000F05BFB00210C2000F0BC
:1054C00057FB20210E2000F053FB00210F2000F09D
:1054D0004FFB0021202000F04BFB0021212000F099
:1054E00047FB3D212A2000F043FB142001F07EF908
:1054F0002D21292000F03CFB0021502000F038FB3A
:105500004DF2EF01512000F033FB0021522000F05A
:105510002FFB2146532000F02BFB0021612000F0DF
:1055200027FB00216A2000F023FB2946922000F08F
:105530001FFB0521932000F01BFB3146FFF7BABB90
:105540000121002000F014FB4AF6A401032000F022
:105550000FFB00210C2000F00BFB40F60C010D208E
:1055600000F006FB4FF42C510E2000F001FBB0219F
:105570001E2000F0FDFA42F63F31012000F0F8FA5B
:105580004FF4C061022000F0F3FA0021102000F077
:10559000EFFA46F27801112000F0EAFA0021052026
:1055A00000F0E6FA0021062000F0E2FA4EF61C7147
:1055B000162000F0DDFA0321172000F0D9FA40F29E
:1055C0003321072000F0D4FA00210B2000F0D0FA9C
:1055D00000210F2000F0CCFA0021412000F0C8FA91
:1055E0000021422000F0C4FA0021482000F0C0FA57
:1055F0002146492000F0BCFA00214A2000F0B8FA08
:1056000000214B2000F0B4FA4FF46F41442000F029
:10561000AFFA0021452000F0ABFA2146462000F009
:10562000A7FA2946302000F0A3FA4FF40173194677
:10563000312000F09DFA1946322000F099FA40F22C
:1056400002542146332000F093FA611D342000F00B
:105650008FFA1946352000F08BFA1946362000E003
:1056600086E100F085FA2146372000F081FA40F209
:10567000023319463A2000F07BFA19463B2000F02D
:1056800077FA0021232000F073FA0021242000F093
:105690006FFA4FF40041252000F06AFA00214F20F4
:1056A00000F066FA00214E20B1E00121002000F058
:1056B0005FFA0A2001F09AF841F22861102000F008
:1056C00057FA0E21122000F053FA40F63921132028
:1056D00000F04EFA0A2001F089F84021112000F074
:1056E00047FA5021152000F043FA0A2001F07EF815
:1056F0001E21122000F03CFA0A2001F077F84FF446
:10570000B151102000F034FA42F63921132000F094
:105710002FFA0A2001F06AF83146012000F028FA39
:105720005146022000F024FA41F23801032000F033
:105730001FFA5946082000F01BFA08210A2000F041
:1057400017FA0021302000F013FA40F20241312014
:1057500000F00EFA4FF48371322000F009FA40F2A3
:105760000351332000F004FA4FF48271342000F02A
:10577000FFF940F20131352000F0FAF929463620D0
:1057800000F0F6F940F20531372000F0F1F94FF45E
:105790000271382000F0ECF940F60B71392000F06E
:1057A000E7F90221412000F0E3F94FF41C51602099
:1057B00000F0DEF90121612000F0DAF94FF4047104
:1057C000902000F0D5F94FF48571922000F0D0F9C7
:1057D0000421932000F0CCF93146A02000F0C8F954
:1057E0000121072000F0C4F92121072000F0C0F9B1
:1057F0002321072000F0BCF93321072000F0B8F97D
:1058000040F23311072000F0B3F90021A02000F08E
:10581000AFF90020FDF7C4FE5849C1F88081484621
:10582000FDF788FE21B0BDE8F08F3021152000F093
:105830009FF910219A2000F09BF92021112000F0FF
:1058400097F943F22841102000F092F9022112202A
:1058500000F08EF941F23801132000F089F9282078
:1058600000F0C4FF1221084600F082F9282000F061
:10587000BDFF43F22041102000F07AF943F23801D5
:10588000132000F075F9462000F0B0FF0021302011
:1058900000F06EF940F20241312000F069F940F267
:1058A0000731322000F064F94FF44171332000F0E9
:1058B0005FF90421342000F05BF940F2014135200A
:1058C00000F056F92946362000F052F940F2053131
:1058D000372000F04DF94FF4C2631946382000F02C
:1058E00047F91946392000F043F93146012000F00C
:1058F0003FF95146022000F03BF941F2300103200C
:1059000000F036F940F60801082000F031F90821CE
:105910000A2000F02DF94FF41C51602000F028F906
:105920000121612000F024F94FF49F71902000F0D4
:105930001FF93146922000F01BF93146932000F008
:1059400017F94FF44051A02000F012F91021A320C4
:1059500000F00EF90121072000F00AF921210720AB
:1059600000F006F92321072000F002F93321072077
:1059700000F0FEF840F23311E0E500000080214223
:10598000044910B50880052000F04AFF0148801C3A
:10599000008810BDFE07006CF0B54F4C0023214677
:1059A000A579898846F60402012D18D1914216D0B6
:1059B000082814D2DFE800F00406080A0C0E1012C2
:1059C00006200CE007200AE0042008E0052006E09D
:1059D000012004E0002002E0032000E00220A1F505
:1059E000134745F2103645F21055413F05D091421C
:1059F00003D0B14201D0A94249D1082812D2DFE830
:105A000000F0110406080A0C0E1080230AE040235F
:105A100008E0C02306E0202304E0602302E0A02386
:105A200000E0E023A94202D14FF4585000E03620B4
:105A3000B14203D0A94201D043F00803914201D101
:105A400043F00203194600F093F8980614D4A079A5
:105A5000012811D020886188884201D92180608086
:105A60001E4AA088911CA842A0890AD1A378C01C14
:105A700010805B1ED8B208E0208861888842EDD390
:105A8000EEE71080A078401EC0B20880F0BD082864
:105A900012D2DFE800F0040608110A0C0E103023C1
:105AA0000AE0102308E0202306E0382304E028233E
:105AB00002E0182300E00823A1F50940893806D048
:105AC000032043F48051BDE8F04000F051B81120AC
:105AD00046F240011943F6E76C010020FE07006C16
:105AE0002DE9F0431B4E1C4A3746B5880C46931CE3
:105AF000B989B7F80A80A5F5134CBCF1410C16D052
:105B0000A5F5A647103F12D0B14696F806C03688D4
:105B1000A5F5D047361A761E043F08D0A5F5AA474A
:105B2000103F09D04B46BCF1010F07D007E01180B0
:105B3000E0B21880BDE8F083491CF8E7B0B2014636
:105B4000404600F015F898892146BDE8F04300F082
:105B50000FB800006C010020FE07006C02480349EA
:105B600000890880704700006C010020FE07006C6F
:105B7000024A1080901C018070470000FE07006CF4
:105B800038B50121482000F0A3F82024ADF80040EA
:105B900010208DF8030003200B4D8DF8020069469C
:105BA0002846FDF757FC20212846FDF7A4FCADF858
:105BB0000040064C69462046FDF74CFC202120465B
:105BC000FDF799FC38BD0000000C014000180140B1
:105BD000FEE770474FF4A06000F032B870B50F23B5
:105BE000C47801780122F4B1144C2468457804F497
:105BF000E064C4F5E064240AC4F10406E340847858
:105C0000B5401C402C4301F1E021230181F8003410
:105C1000007800F01F018A404009800000F1E02078
:105C2000C0F8002170BD01F01F00824048098000CB
:105C300000F1E020C0F8802170BD00000CED00E014
:105C40000249084302490860704700000000FA0555
:105C50000CED00E0024A1140014302480160704728
:105C600080FFFF1F08ED00E004480168044A01F4CA
:105C7000E06111430160BFF34F8FFEE70CED00E0E0
:105C80000400FA0570470000044A0029516901D058
:105C9000014300E081435161704700000010024061
:105CA000044A0029D16901D0014300E08143D16158
:105CB0007047000000100240044A0029116901D019
:105CC000014300E081431161704700000010024071
:105CD000044A0029916901D0014300E081439161A8
:105CE0007047000000100240044A0029D16801D02A
:105CF000014300E08143D160704700000010024082
:105D000030B51F494A6812F00C031E4A03D0042B19
:105D100001D0082B21D002604A680F231A4C03EAF5
:105D20001212A35C0268DA4042604B68072505EA5C
:105D30001323E35C22FA03F383604B6805EAD32361
:105D4000E35CDA40C2604968032303EA9131231F10
:105D5000595CB2FBF1F1016130BD4A684B6802F455
:105D600070124FF0020413F4803F04EB924202D011
:105D70004B689B0301D5054B00E0024B5A43CAE731
:105D80000010024000127A002400002000093D00AB
:105D900010B5002306E000BF30F8024B21F8134095
:105DA0005B1C9BB29342F7D310BD00002DE9F05F5E
:105DB000A0F1006415468A468346B4F5002F52D2FE
:105DC000FDF7B6FAE70AC4F34906C6F58064A542B2
:105DD00000D82C46DFF894904FF0006000EBC7200D
:105DE00080464FF480622149FFF7D2FF00204FF632
:105DF000FF7106E0331839F813208A4203D1401CA2
:105E000080B2A042F6D3A04225D24046FDF73CFA2C
:105E10000020494607E000BF3AF810208319401CD3
:105E200021F8132080B2A042F6D3104940464FF427
:105E3000806200BF00F01CF8A54210D0281B0AEBBE
:105E4000440AA344002685B24FF480647F1CA54217
:105E5000C2D82C46C0E7224651465846EAE7BDE87C
:105E6000F05FFDF743BABDE8F09F00007A01002023
:105E70002DE9F04116460F460546002408E000BF14
:105E800037F814102846FDF739FA641CA4B2AD1C8B
:105E9000B442F5D3BDE8F081704700000CB5002195
:105EA000264801910091026842F4803202604FF46A
:105EB000A063026802F400320092019A521C01921F
:105EC000009A12B9019A9A42F3D10268920333D52B
:105ED000012100911A490A6842F010020A600A681A
:105EE00022F003020A600A6842F002020A60416876
:105EF000416041684160416841F4806141604168AE
:105F000021F47C114160416841F4E811416001686D
:105F100041F08071016001688901FCD5416821F080
:105F200003014160416841F0020141604168C1F3F1
:105F300081010229FAD10CBD00910CBD0010024074
:105F4000002002404FF0E0210428086903D020F02F
:105F500004000861704740F00400FAE77047000051
:105F60000F4810B5016841F00101016041680D4A18
:105F70001140416001680C4A11400160016821F440
:105F800080210160416821F4FE0141604FF41F014E
:105F90008160FFF783FF05494FF00060086010BD86
:105FA000001002400000FFF8FFFFF6FE08ED00E0E1
:105FB00010B54FF08044208AC00707D0064800691A
:105FC00080470020A0844FF47A70A085208A20F0BA
:105FD0000100208210BD0000780000200029018807
:105FE00002D041F0010101E021F001010180704780
:105FF000002A828901D00A4300E08A4382817047E7
:1060000030B502881B4B1C4C98420DD0A0420BD0DF
:10601000B0F1804F08D0194DA84205D0184DA842C4
:1060200002D0184DA84203D122F070054A882A43B5
:10603000154DA84206D0154DA84203D022F4407554
:10604000CA882A4302808A8882850A880285984203
:106050000AD0A04208D00E4A904205D00D4A904284
:1060600002D00D4A904201D1097A01860121818234
:1060700030BD0000002C014000340140000400400D
:1060800000080040000C00400010004000140040D8
:106090000040014000440140004801407FB50C46EB
:1060A000054601210846FFF7FBFDADF80040002042
:1060B000ADF80450ADF80600ADF802004FF0804492
:1060C00069462046FFF79CFF012241212046FFF749
:1060D0008FFF1C208DF80C0003218DF80D108DF81A
:1060E0000E1001208DF80F0003A8FFF777FD0121A6
:1060F0002046FFF773FF7FBD70B5154C40F2255168
:10610000204600F06FF800280ED0204600F0F8F886
:10611000C2B2104801880B0406D44C044FF00003AF
:1061200006D50A2A01D0038070BD41F400410DE07C
:106130000D2A09D0C1F30D04074D491C89B22A5517
:106140000180C729EFD870BD41F48041018070BD46
:1061500000380140180000207A09002000298189B8
:1061600002D041F4005101E021F4005181817047D7
:10617000174910B588420AD101218C032046FFF748
:10618000B3FD2046BDE810400021FFF7ADBD114929
:10619000884202D101214C0410E00F49884202D10B
:1061A00001218C040AE00D49884202D10121CC046E
:1061B00004E00B4988420AD101210C052046FFF773
:1061C0007BFD2046BDE810400021FFF775BD10BDE6
:1061D000003801400044004000480040004C0040AE
:1061E0000050004030B501F01F0201240025C1F32A
:1061F000421304FA02F2012B0FD0022B0FD0838A34
:106200004FEA11210088134204FA01F400EA040065
:1062100001D000B10125284630BD8389F0E7038A0B
:10622000EEE710B5C1F3421301F01F040121A140B4
:10623000012B07D0022B07D01430002A026805D0AA
:106240000A4304E00C30F8E71030F6E78A430260B6
:1062500010BD000030B50446008A85B00D464CF6EE
:10626000FF710840E98801432182A1894EF6F310AD
:106270000140A8882A8910436A890A431043A081F3
:10628000A08A4FF6FF410840A9890143A1826846D0
:10629000FFF736FD1948844201D1039800E00298C7
:1062A000A189090400EBC00101EB0010296801D5A8
:1062B000490000E08900B0FBF1F06422B0FBF2F18C
:1062C00009010B096FF018056B4300EB8300A389EC
:1062D0001D044FF0320306D503EBC000B0FBF2F013
:1062E00000F0070005E003EB0010B0FBF2F000F057
:1062F0000F000843208105B030BD00000038014088
:106300008088C0F308007047FEE700000FB4054B1B
:1063100010B503A9044A029800F018F810BC5DF803
:1063200014FB0000556800081C00002002E008C8AB
:10633000121F08C1002AFAD170477047002001E0FF
:1063400001C1121F002AFBD1704700002DE9FF4F49
:106350008DB00F460546002606E025280BD0DDE966
:106360000F1290476D1C761C28780028F5D111B0CB
:106370003046BDE8F08F0024A246A1460122EC4938
:1063800000E0044315F8013F203B02FA03F0084205
:10639000F7D128782A2810D06FF02F022878A0F1A2
:1063A0003001092914D80AEB8A0102EB410144F0BB
:1063B000020400EB010A6D1CF0E701CF5FEA000A5E
:1063C00003D544F40054CAF1000A44F002046D1CE1
:1063D00028782E2817D115F8010F44F004042A2834
:1063E0000ED06FF02F022878A0F1300109290AD8C9
:1063F00009EB890102EB410100EB01096D1CF2E799
:1064000057F8049B6D1C28786C280FD006DC4C28AC
:1064100017D068280DD06A2814D104E0742810D051
:106420007A280FD10DE044F400140AE044F48014FB
:1064300001E044F440146978814202D104F58014EB
:106440006D1C6D1C2A786E2A1FD00CDC632A31D09B
:1064500004DC002A8BD0582A11D1A3E0642A68D02A
:10646000692A0CD165E0732A2ED004DC6F2A73D020
:10647000702A04D19BE0752A6FD0782A6ED010461E
:10648000DDE90F129047761C50E1C4F30250022858
:1064900006D0032809D0042801CF09D0066045E1C1
:1064A00001CFF117C0E9006140E101CF06803DE175
:1064B00006703BE117F8040B8DF8000000208DF802
:1064C0000100EB46012003E057F804BB4FF0FF301A
:1064D00061074FF0000102D40DE008F10101884688
:1064E00049450FDA8045F8DB1BF808100029F4D184
:1064F00008E008F1010188468142FADB1BF8081028
:106500000029F6D1DDE90F23AAEB080081462146D8
:1065100000F036F9304400EB080604E0DDE90F1224
:106520001BF8010B9047B8F10108F7D22146484605
:10653000F7E00A21C4F302534FF0000B0891022B3D
:1065400004D001CFC117032B09D00AE0FF1D27F0AB
:106550000707F7E8020108E032E01FE020E000B2A0
:10656000C117042B01D140B2C117031E71F1000302
:1065700007DA4FF0000CD0EB0C006CEB01012D237F
:1065800002E0230504D52B238DF82430012303E0FA
:10659000E30701D02023F7E7984658E00A2110E0EE
:1065A00010210EE010204FF0000B08900CE010219D
:1065B0004FF0000B44F004044FF00809089103E089
:1065C00008214FF0000B0891C4F30253022B04D0B2
:1065D00001CF0021032B06D006E0FF1D27F007079F
:1065E000F7E8020103E080B2042B00D1C0B24FF003
:1065F000000823072BD5702A07D0DDF820C08CF0C7
:10660000100C5CEA0B0C05D00EE040238DF8243012
:10661000012308E050EA010306D030238DF824302E
:106620008DF8252002239846DDF820C08CF0080C58
:106630005CEA0B0C0BD150EA010301D1630706D5CC
:1066400030238DF824304FF00108A9F10109582AB0
:1066500004D038A20B9208AA0A920BE03AA2F9E7FA
:106660005B46089AFCF780FD0B9B9B5C0A9A521EC6
:106670000A92137050EA0102F2D10A98ADEB0000C1
:1066800000F1200B600702D524F4803401E04FF0C4
:106690000109D94502DDA9EB0B0000E0002000EB69
:1066A0000B0141440890AAEB010AE00306D4DDE99E
:1066B0000F232146504600F063F806444FF00009CE
:1066C00008E009A911F80900DDE90F12904709F166
:1066D0000109761CC145F4DBE0030CD5DDE90F238D
:1066E0002146504600F04CF8064404E0DDE90F1264
:1066F00030209047761C0899481E08900029F5DC48
:1067000008E00A980A990078491C0A91DDE90F12FD
:106710009047761CBBF10001ABF1010BF1DC214687
:106720005046DDE90F2300F019F806446D1C1BE606
:106730000928010030313233343536373839616257
:10674000636465660000000030313233343536371B
:106750003839414243444546000000002DE9F041EC
:10676000044600251E461746880404D405E0394631
:106770002020B0476D1C641EF9D52846BDE8F08185
:106780002DE9F041044600251E469046C80301D578
:10679000302700E02027880404D505E0414638462C
:1067A000B0476D1C641EF9D52846BDE8F081000095
:1067B00010B56FF00400FFF7C5FB094809490068F0
:1067C000B0FBF1F0C1B2084801EB41020170C2EB2D
:1067D000C1114FF6FF7202EAC101418010BD0000F5
:1067E0000000002000127A00140000200B494988A4
:1067F00048434FF0E021486100228A61086940F077
:10680000010008610869C30701D0C003FAD508690F
:1068100020F0010008618A61704700001400002028
:106820000B49097848434FF0E021486100228A6112
:10683000086940F0010008610869C30701D0C0037E
:10684000FAD5086920F0010008618A6170470000EC
:106850001400002004490A885206FCD5024AC1B23D
:10686000121D1180704700000038014010B51FA0B4
:10687000FFF74CFD1E48FFF749FD1EA0FFF746FD40
:106880002C48FFF743FD2C48FFF740FD2BA0FFF7F6
:106890003DFD39A0FFF73AFD3DA0FFF737FD42A0CF
:1068A000FFF734FD47A0FFF731FD4DA0FFF72EFDA8
:1068B00059A0FFF72BFD66A0FFF728FD71A0FFF799
:1068C00025FD79A0FFF722FD80A0FFF71FFD8AA01C
:1068D000FFF71CFD8FA0FFF719FD94A0FFF716FD31
:1068E000BDE810409EA0FFF711BD00000D0A00009A
:1068F00034780008CDA8B9FD55534D415254C4E336
:10690000BFC9D2D4CAB9D3C3B4AEBFDAD6FACAD6D5
:10691000B5F7D3C3B9CCBCFEC0EFC3E6B5C4C8CE8F
:10692000BACEBAAFCAFD2CB2A2D6B4D0D02E0D0AC0
:1069300000000000C07800087878000855534D41E9
:106940005254D3D03132B8F6CFB5CDB3C3FCC1EE7B
:1069500028BAF335B8F6D6F7D2AAD3C9426F6F7406
:106960004C6F61646572BACD417070B9B2CDACD66E
:10697000A7B3D6293A0D0A003F3A20202020202034
:10698000BBF1C8A1B0EFD6FAD0C5CFA20D0A000066
:1069900068656C703A202020BBF1C8A1B0EFD6FA30
:1069A000D0C5CFA20D0A00006C6973743A20202074
:1069B000BFC9D3C3B5C4BAAFCAFDC1D0B1ED0D0ACA
:1069C0000A00000069643A2020202020BFC9D3C3F8
:1069D000BAAFCAFDB5C44944C1D0B1ED0D0A0A0031
:1069E0006865783A20202020B2CECAFD3136BDF845
:1069F000D6C6CFD4CABE2CBAF3B8FABFD5B8F12BDD
:106A0000CAFDD7D6BCB4D6B4D0D0BDF8D6C6D7AAA6
:106A1000BBBB0D0A0A0000006465633A20202020F9
:106A2000B2CECAFD3130BDF8D6C6CFD4CABE2CBA5C
:106A3000F3B8FABFD5B8F12BCAFDD7D6BCB4D6B4DB
:106A4000D0D0BDF8D6C6D7AABBBB0D0A0A0000003D
:106A500072756E74696D653A312CBFAAC6F4BAAF0F
:106A6000CAFDD4CBD0D0BCC6CAB13B302CB9D8B14A
:106A7000D5BAAFCAFDD4CBD0D0BCC6CAB13B0D0A83
:106A80000A0000007570646174653A20CDA8B9FDF4
:106A9000426F6F744C6F61646572CFC2D4D8B9CC49
:106AA000BCFE0D0A0000000075706C6F61643A2036
:106AB000CDA8B9FD426F6F744C6F61646572C9CF28
:106AC000B4ABB9CCBCFE0D0A000000006572617366
:106AD000653A2020B2C1B3FDB3FD426F6F746C6F95
:106AE00061646572D6AECDE2B5C4466C617368C7A9
:106AF000F8D3F20D0A0000006D656E753A20202073
:106B0000CCF8D7AABBD8494150204D656E750D0A07
:106B10000000000072756E6170703A20D4CBD0D046
:106B200055736572204170700D0A0000C7EBB0B458
:106B3000D5D5B3CCD0F2B1E0D0B4B8F1CABDCAE477
:106B4000C8EBBAAFCAFDC3FBBCB0B2CECAFDB2A29D
:106B5000D2D4BBD8B3B5BCFCBDE1CAF82E0D0A0037
:106B60002D2D2D2D2D2D2D2D2D2D2D2D2D2D2D2D55
:106B70002D2D2D2D2D2D2D2D2D2D2D2D2D2D2D2D45
:106B80002D2D2D2D2D2D2D2D2D2D2D2D2D2D2D2D35
:106B9000200D0A0A000000000024FCF7BDFCFFF7EE
:106BA00007FEFFF717F84FF4E13000F039F8FEF771
:106BB000E7FFFCF79BFD0F480F490068B0FBF1F0C1
:106BC0000E49C0B2496888470DA0FFF79FFB124DE0
:106BD000641CA4B23220FFF709FE0A2CF8D1D5F8C4
:106BE000940128B15FF00000C5F894010024EFE79C
:106BF0000120F9E70000002040420F00780000204B
:106C00000D0A20CAE4C8EB3A68656C70B2E9D1AFEE
:106C1000D6B8C1EE0D0A000000802142006870471E
:106C2000F0B5054687B0012144F20400FFF750F8A3
:106C3000224E3046FFF79CFA7015ADF81000032481
:106C40008DF8124018201E4F8DF8130004A9384605
:106C5000FCF700FC3015ADF8100004208DF813008F
:106C600004A93846FCF7F6FB25208DF814008DF8B2
:106C700015408DF8164001208DF8170005A8FEF785
:106C8000ADFF0020ADF80400ADF80600ADF8080037
:106C9000ADF80C000C20ADF80A00009569463046AE
:106CA000FFF7D8FA012240F225513046FFF7B9FA32
:106CB00001213046FFF752FA07B0F0BD003801401D
:106CC0000008014070B596B0054614AB01AA03A9AF
:106CD00000F0DAF9002824D18DF84C001D4C042670
:106CE00015E000BF216806EBC00014AB08586A46E7
:106CF0000BA900F0C9F9002813D103A90BA800F0D3
:106D0000FAFB80B19DF84C00401C8DF84C00217DB1
:106D1000C0B28142E6D8207D9DF84C1088420ED149
:106D2000042016B070BD9DF800009DF80410884244
:106D300001D90220F5E79DF84C00A075EBE713A9F7
:106D4000284600F059FA0028EBD19DF84C006075F8
:106D50000020E6E7780000202DE9F0417F4C9AB052
:106D6000A57D207DA8427DD90421206801EBC501C5
:106D700019AB405810AA11A900F086F911A978A002
:106D8000FFF7C4FA00270DF1180833E0208B01212A
:106D9000B940084217D0222173A0FFF7B7FA38464E
:106DA00000F094FA011971A02431FFF7AFFA222103
:106DB0006DA0FFF7ABFA384600F088FA2044243083
:106DC00048F827000CE0384600F080FA2044416A79
:106DD00048F82710E07D08B365A000BFFFF796FADA
:106DE0009DF84000401E874202D063A0FFF78EFA54
:106DF0007F1CFFB29DF840008742C7D35FA0FFF71A
:106E000085FA00F0A5FA607D0B2814D2DFE800F0C7
:106E1000080D31384048525E6B78880058A0DDE795
:106E2000206850F83500804704E0206850F835109D
:106E300006988847064600F05BFA9DF86400012832
:106E40007DD050A0FFF762FA94F8EC0000280DD036
:106E5000D4F8F0100A20B1FBF0F200FB1212B1FBE3
:106E6000F0F100E002E048A0FFF750FA1AB0BDE8E8
:106E7000F081206850F83520DDE906019047D9E718
:106E8000206806AE50F8353096E807009847D1E7FD
:106E9000206806AE50F8355096E80F00A847C9E7BD
:106EA0000A980090206806AE50F8355096E80F001A
:106EB000A847BFE7DDE90A01CDE90001206806AE79
:106EC00050F8355096E80F00A847B3E70AAB06AE76
:106ED00093E807008DE80700206850F8355096E8E1
:106EE0000F00A847A6E70AAE96E80F008DE80F004E
:106EF000206806AE50F8355096E80F00A84799E78D
:106F00000BAE96E80F0001AE86E80F000A980090DD
:106F1000206806AE50F8355096E80F00A84789E77C
:106F20000CAE96E80F0002AE86E80F00DDE90A011C
:106F3000CDE90001206806AE50F8355000E003E0CE
:106F400096E80F00A84775E7E07D314618B116A016
:106F5000FFF7DCF978E717A0FAE7000078000020D7
:106F60000D0A25732800000025630000257300002A
:106F700030582558000000002C00000029000000B7
:106F8000256C75003B0D0A0046756E6374696F6E63
:106F90002052756E2054696D653A25642E25316442
:106FA0006D730D0A000000003D305825583B0D0A56
:106FB000000000003D256C753B0D0A00F0B504464D
:106FC000002007460646054623782C2B03D0292BA4
:106FD00004D01BB103E015B9012700E065B31EB171
:106FE000222B27D047BB2BE0A3F1300CBCF1090FBB
:106FF00015D9A3F1610CBCF1050F10D9A3F1410C17
:10700000BCF1050F0BD9582B09D0782B07D0222BB8
:107010000CD0202B1DD02C2B1BD0FF260CE05FB9F1
:10702000612B00D3203B01F8013B12E027B9012678
:1070300035460EE0002567B100230B701670F0BDD9
:107040003DB15C2B02D1401CC0B2641C237801F816
:10705000013B401CC0B2641CB6E730B5002515707A
:107060000AE001F8014B1478401C641CE4B214706F
:107070009C4201D3012030BD0478202C01D0002C8B
:10708000EFD10D70002030BD2DE9FF4F002582B0FB
:10709000984604462F462E464FF0010BAA462A4634
:1070A000A94615E0202910D002F07F03052B0CD251
:1070B00002B9802202F07F03042B01D12A290AD1D0
:1070C000521C0DF80310D2B201E0852A04D0401CF6
:1070D00001780029E6D162B102F07F0244A10DF8E7
:1070E0000290684600F007FA38B1012188F80010D4
:1070F00000224FF00008234614E088F80090F7E7DC
:1071000008F1010000F0FF0813F8010F202801D05A
:107110002A2807D1184600F093F9282802D02A28F7
:1071200000D047461878282801D00028E8D10FB1B0
:107130003C44641C00273946207888B1282804D0B4
:10714000292806D022280FD010E079B96D1CEDB2A5
:107150000CE059B925B16D1E15F0FF0501D00CE00A
:107160000127012E32D039E049B100214DB12C2840
:107170000FD020281FD028281DD07AB117E0012178
:10718000F4E7202820D0039B18700398401C03903C
:107190001AE0521C4FF0010BD2B20CE0BAF1050F0D
:1071A00005D20DF80A000AF1010000F0FF0A0BF108
:1071B000010000F0FF0B012D06D1BBF1020F03D13E
:1071C000761C4FF0030BF6B2641CB5E70DF80A907D
:1071D00007A1684600F08FF900B9002604980670F0
:1071E000039880F8009006B03846BDE8F08F0000A4
:1071F000766F6964000000002DE9F04300248946A1
:10720000314DB5B0214622466B18491CC9B29A7659
:107210000A29F9D303E000BF10F8011F91B10178EA
:107220002829F9D1461C012733AA69463046FFF7C1
:10723000C5FE06449DF8CC0040B1012824D0FF28AB
:1072400039D10BE0012035B0BDE8F0839DF8000096
:1072500080B334A9684600F0FBF808B10220F2E7D9
:10726000204600F033F8284434994162288B07FA0D
:1072700004F188432883042029198876641CE4B229
:107280000A2C18D90320DEE7684600F049F900F11E
:107290000108204600F01AF841196846243100F030
:1072A00036F9288B07FA04F108432919288381F855
:1072B0001A80E3E7FFE73078292801D00028B3D10E
:1072C00089F800400020BEE778000020024610B593
:1072D00000200146054B05E05C18491CA47EC9B29C
:1072E0002044C0B29142F7D310BD000078000020C6
:1072F0004FF08040018ACA070649D1F8F02004D037
:107300004FF6FF731A44C1F8F020808C1044C1F886
:10731000F00070477800002000EBC00101EB001086
:107320004FF0FF3101EB800010B581B24FF47A705D
:10733000FEF7B4FE01490120C87510BD7800002099
:107340000246012000E05043491EC9B2FBD27047FB
:107350004FF08040018A21F0010101824FF6FF7158
:107360008185002181840248C0F8F0107047000038
:10737000780000202DE9F041174D2888010429D517
:107380001649C0B2164F00260E54B96813488847F4
:1073900004000FD0114800F0CDF8012801D00400FE
:1073A00017D0012C09D0022C0CD0032C0CD0042CAB
:1073B0000FD10BE0F86880470BE00AA0FEF7A6FFAC
:1073C0000CA004E010A002E013A000E016A0FEF75D
:1073D0009DFF2E80BDE8F081180000207A09002072
:1073E0007800002020BAAFCAFDB4EDCEF3210D0A1B
:1073F0000000000020CAE4C8EB3A68656C70B2E98E
:10740000D1AF0D0A0000000020B2CECAFDB4EDCE0F
:10741000F3210D0A0000000020B2CECAFDCCABB6AD
:10742000E0210D0A0000000020CEB4D5D2B5BDC6C3
:10743000A5C5E4B5C4BAAFCAFD210D0A000000001D
:1074400010F8011F202901D10028F9D1C8B27047D6
:107450002DE9F0410E4600244FF00A080146346041
:107460000A78A2F13003092B0DD9113B052B0AD95B
:10747000582A05D012F0FF0F0DD00120BDE8F08191
:10748000012C02D0F9E7412A01D34FF01008641C07
:10749000E4B2491CE4E70546B8F1100F01D084B10D
:1074A00012E0032C01D20220E8E72878302802D12C
:1074B0006878582801D00320E0E7A41EE4B2AD1C90
:1074C00001E00420DAE70CB1641EE4B22878074634
:1074D0003038092801D8074600E0373F21464046AA
:1074E000FFF72EFF316807FB0010306015F8010F21
:1074F0000028E8D1C2E702780B789A4201D0012037
:10750000704712B1401C491CF5E700207047027813
:107510000A700278002A02D0401C491CF7E7704725
:10752000002102781AB1491CC9B2401CF9E708468B
:1075300070470000F0B58DB004461E236A4602A9CC
:10754000FFF78BFD019000286FD19DF800002718F0
:1075500000266F4C8DF800609DF8000054F8201054
:1075600002A8FFF7C8FF38B19DF80000401CC0B268
:107570008DF800000D28EFD39DF800000425654C20
:107580000D2852D2DFE800F007070A2B527190B0A5
:10759000B2B5B8BBBE00FFF769F91DE05EA0FEF70B
:1075A000B5FE5EA0FEF7B2FE8DF800600CE000BFF5
:1075B000216805EBC000095868A0FEF7A7FE9DF8FA
:1075C0000000401C8DF80000217D9DF800008142E4
:1075D000EED851A0FEF79AFE00200DB0F0BD4EA0EF
:1075E000FEF794FE5FA0FEF791FE8DF8006016E0B6
:1075F000216805EBC0000BAB08580AAA02A9FFF7E7
:1076000043FD9DF80010206850F8312002A965A0C4
:10761000FEF77CFE9DF80000401C8DF80000217DE7
:107620009DF800008142E3D8D3E76FE03AA0FEF76F
:107630006DFE6A4602A93846FFF7C0FC9DF80000BF
:10764000002843D101A902A8FFF702FF8DF800002E
:1076500010B104283AD102E057A001991CE059A0CA
:10766000FEF754FE0120E075B3E72BA0FEF74EFEB7
:107670006A4602A93846FFF7A1FC9DF8000028BB26
:1076800001A902A8FFF7E4FE8DF8000010B104285C
:107690001CD104E050A00199FEF738FE99E751A0F3
:1076A000FEF734FEE67594E71BA0FEF72FFE6A4650
:1076B00002A93846FFF782FC9DF8000030B901A905
:1076C00002A8FFF7C5FE8DF8000008B1022084E78C
:1076D000019810F0FF0084F8EC0001D046A000E013
:1076E0004CA0FEF713FE74E7FEF7BEFA4EF6EE600E
:1076F00009E04DF6DD5006E04CF6CC4003E04FF6D5
:10770000FF7000E00020FBF7F9FEEDE7012064E7E1
:1077100034000020780000200D0A00002D2D2D2DB2
:107720002D2D2D2D2D2D2D2D2D2D2D2D2D2D2D2D89
:107730002D2D2D2D2DBAAFCAFDC7E5B5A52D2D2DAB
:107740002D2D2D2D2D2D2D2D2D2D2D2D2D2D2D2D69
:107750002D2D2D2D2D2D2D2D200D0A0025730D0ADB
:10776000000000002D2D2D2D2D2D2D2D2D2D2D2DFD
:107770002D2D2D2D2D2D2D2D2D2D2D2D2DBAAFCA8D
:10778000FD204944202D2D2D2D2D2D2D2D2D2D2D40
:107790002D2D2D2D2D2D2D2D2D2D2D2D2D2D2D2D19
:1077A000200D0A0025732069642069733A0D0A30A0
:1077B00058253038580D0A004845583A3058255851
:1077C0000D0A00003136BDF8D6C6B2CECAFDCFD400
:1077D000CABE210D0A0000004445433A256C750DD0
:1077E0000A0000003130BDF8D6C6B2CECAFDCFD4F3
:1077F000CABE210D0A00000052756E2054696D65E5
:107800002043616C63756C6174696F6E204F4E0D1F
:107810000A00000052756E2054696D652043616C4A
:1078200063756C6174696F6E204F46460D0A0000E7
:10783000016070472D2D2D2D2D2D2D2D2D2D2D2D14
:107840002D2D2D2D2D2D2D2D2D2D2D2D55534D41E6
:107850005254205620302E312E342D2D2D2D2D2DED
:107860002D2D2D2D2D2D2D2D2D2D2D2D2D2D2D2D48
:10787000200D0A0A00000000BFDAB5D8D6B7B5C897
:10788000D7F7CEAAB2CECAFD292CB5A5B8F6BAAFA5
:10789000CAFDD7EEB6E0D6A7B3D63130B8F6CAE403
:1078A000C8EBB2CECAFD2CB2A2D6A7B3D6BAAFCA25
:1078B000FDB7B5BBD8D6B5CFD4CABE2E0D0A0A00C7
:1078C000C4E3BFC9D2D4CBE6D2E2B8FCB8C4BAAFE5
:1078D000CAFDB5C4CAE4C8EBB2CECAFD28D6A7B368
:1078E000D6CAFDD7D62831302F3136BDF8D6C629B5
:1078F000A1A2D7D6B7FBB4AEA1A2BAAFCAFDC8EB5E
:107900000D0A00003F0000006465630075706C6F35
:10791000616400006964000072756E74696D6500D1
:1079200065726173650000007570646174650000C4
:1079300068656C700000000072756E617070000008
:1079400072657365740000006C6973740000000058
:107950006D656E750000000068657800766F69647B
:107960002077726974655F616464722875333220B0
:10797000616464722C7533322076616C29000000DA
:1079800075333220726561645F6164647228753397
:107990003220616464722900B87900080000002078
:1079A0006C0100002E3200081C7A00086C010020D7
:1079B000DC0C00003C6300081184A24A04C00901E9
:1079C000020304060708096D020406081C69201357
:1079D00004791B0830041A48041A14041A58041AAB
:1079E00008041A18041A40041A28041A0C041A204D
:1079F000041A50041A3804131D6C1B088008133134
:107A0000781B085C082268142019731B08C518131A
:0C7A1000596D1B08750C1A026701DC00A0
:04000005080031318D
:00000001FF
