:020000040800F2
:103000009810002031390008B1320008B3320008AE
:10301000B7320008BB320008BF32000800000000D1
:10302000000000000000000000000000C3320008A3
:10303000C532000800000000C7320008C93200088D
:103040004B3900084B3900084B3900084B39000850
:103050004B3900084B3900084B3900084B39000840
:103060004B3900084B3900084B3900084B39000830
:103070004B3900084B3900084B3900084B39000820
:103080004B3900084B3900084B3900084B39000810
:103090004B3900084B3900084B3900084B39000800
:1030A0004B3900084B3900084B3900084B390008F0
:1030B000D75F00084B3900084B3900084B3900082E
:1030C0004B3900084B3900084B3900084B390008D0
:1030D0004B390008CF3700084B3900084B3900083E
:1030E0004B3900084B3900084B3900084B390008B0
:1030F0004B3900084B3900084B3900084B390008A0
:103100004B3900084B3900084B3900084B3900088F
:103110004B3900084B3900084B3900084B3900087F
:103120004B3900084B3900084B3900084B3900086F
:1031300000F002F800F06BF80AA090E8000C82445E
:103140008344AAF10107DA4501D100F060F8AFF23B
:10315000090EBAE80F0013F0010F18BFFB1A43F075
:10316000010318472C4000004C4000000A444FF077
:10317000000C10F8013B13F0070408BF10F8014BD6
:103180001D1108BF10F8015B641E05D010F8016B1B
:10319000641E01F8016BF9D113F0080F1EBF10F87F
:1031A000014BAD1C0C1B09D16D1E58BF01F801CBA2
:1031B000FAD505E014F8016B01F8016B6D1EF9D525
:1031C0009142D6D37047000000230024002500263A
:1031D000103A28BF78C1FBD8520728BF30C148BF7A
:1031E0000B607047642903F0C384752903F0C08421
:1031F000782903F0F984632903F09486732903F096
:103200009986002070471FB51FBD10B510BD03F093
:10321000C3FE1146FFF7F7FF00F008F803F0E1FEE8
:1032200003B4FFF7F2FF03BC00F074FA002400F0CF
:1032300023FB00F001FA00F067FA4FF4E13000F0F0
:1032400077FA00F031F9104800681049B0FBF1F04E
:10325000C5B20F484168284688470EA003F02AFCF3
:1032600010E0601C84B20A2000F022FA142C09D16C
:103270000E48006808B9012000E000200B490860F2
:103280004FF00004EDE700000000002040420F0076
:10329000780000200D0A20CAE4C8EB3A68656C701B
:1032A000B2E9D1AFD6B8C1EE0D0A00009481214237
:1032B000704700BFFEE700BFFEE700BFFEE700BFAC
:1032C000FEE7704770477047704700000CB500205C
:1032D000019000906B48006840F4803069490860B4
:1032E00000BF6848006800F4003000900198401C5E
:1032F0000190009818B90198B0F5A06FF1D161481C
:10330000006810F4003F02D00120009001E000208E
:1033100000900098012842D15B48006840F01000FE
:10332000594908600846006820F003000860084614
:10333000006840F002000860524840685149486007
:103340000846406848600846406840F4806048602D
:103350000846406820F47C1048600846406840F405
:10336000E81048600846006840F08070086000BFC0
:103370004448006810F0007FFAD04248406820F0CE
:103380000300404948600846406840F00200486039
:1033900000BF3C48406800F00C000828F9D10CBD83
:1033A00010B5FFF793FF10BD10B53648006840F028
:1033B00001003449086008464068344908403149F2
:1033C000486008460068324908402E4908600846AF
:1033D000006820F4802008600846406820F4FE0061
:1033E00048604FF41F008860FFF7DAFF4FF000607D
:1033F0002849086010BD10B5002100200022214B93
:103400005B6803F00C0121B1042906D0082928D1FA
:1034100007E0214B214C236027E01F4B1F4C23600A
:1034200023E0184B5B6803F47010164B5B6803F4E1
:103430008032022303EB904022B9194B4343174CCF
:1034400023600DE00F4B5B6813F4003F04D0144B76
:103450004343124C236003E00F4B43430F4C236064
:1034600003E00D4B0D4C236000BF00BF054B5B68B4
:10347000C3F303130B4CE15C084B1B68CB40074CB8
:10348000236010BD00100240002002400000FFF841
:10349000FFFFF6FE08ED00E000127A0000000020B9
:1034A00000093D000400002008B50121482001F07A
:1034B000C5FA2020ADF8000010208DF8030003208D
:1034C0008DF802006946094800F0FEFD20210748FA
:1034D00000F0A5FE2020ADF800006946044800F089
:1034E000F3FD2021024800F09AFE08BD000C0140C7
:1034F000001801400146088870472DE9F041054653
:103500000E461746002407E036F81410284600F04F
:1035100004FCAD1C601C84B2BC42F5DBBDE8F0814C
:1035200030B503460C461546002207E01846FFF763
:10353000E1FF24F812009B1C501C82B2AA42F5DB6A
:1035400030BD2DE9F05F80468A461746B8F1006F1E
:1035500002D33748804501D3BDE8F09F00F095FACB
:10356000A8F1006B4FEADB25CBF34909C9F580646C
:10357000A74200DC3C464DE04FF0006101EBC52066
:103580004A142C49FFF7CCFF00260BE009EB06009C
:10359000284931F81000A0F57F41FF3900D003E041
:1035A000701C86B2A642F1DB00BFA6421BDA4FF0C8
:1035B000006101EBC52000F0ADFA002608E03AF802
:1035C000160006EB09011B4A22F81100701C86B296
:1035D000A642F4DB4FF0006101EBC5204A14154907
:1035E000FFF78BFF04E0224651464046FFF785FF78
:1035F000A74200D10FE06D1C4FF000090AEB440A0E
:10360000A044381B87B2B7F5806F02DD4FF48064A9
:1036100000E03C46B0E700BF00F043FA00BF9BE784
:1036200013B50446012201A92046FFF78AFF1CBDFD
:10363000000008086C01002010B56FF0040000F0D5
:10364000E7F92D4800682D49B0FBF1F02C490870CE
:103650000846007800EB4001C1EBC0104FF6FF7147
:1036600001EAC0002749088010BD0146244A1278AB
:103670004A434FF0E0235A6100229A611A461269C8
:1036800042F001021A6100BF4FF0E022106910F011
:10369000010F02D010F4803FF6D04FF0E022126903
:1036A00022F001024FF0E0231A6100229A61704774
:1036B0000146144A12884A434FF0E0235A6100221F
:1036C0009A611A46126942F001021A6100BF4FF076
:1036D000E022106910F0010F02D010F4803FF6D004
:1036E0004FF0E022126922F001024FF0E0231A614C
:1036F00000229A61704700000000002000127A004A
:10370000140000201600002010B54FF4A06000F057
:103710002FF910BD014600BF704700BF4A4A12880A
:1037200012F0400FFAD0C2B2474B1B1D1A807047EF
:1037300010B586B00446012144F2040001F07EF980
:10374000414800F00DFE4FF40070ADF81400032066
:103750008DF8160018208DF8170005A93B4800F0D9
:10376000B3FC4FF48060ADF8140004208DF817000E
:1037700005A9364800F0A8FC25208DF8000003209C
:103780008DF801008DF8020001208DF803006846D5
:1037900000F0F3F801940020ADF80800ADF80A003D
:1037A000ADF80C00ADF810000C20ADF80E0001A92A
:1037B000254800F018FE012240F22551224800F071
:1037C000AAFE0121204800F09AFE06B010BD10B5F7
:1037D00040F225511C4800F083FF10B31A4800F056
:1037E000FFFEC4B21A48008810F4004F2BD11848CD
:1037F000008810F4804F0CD00A2C03D0002014490C
:10380000088020E01248008840F4004010490880F9
:1038100019E00D2C06D10E48008840F480400C4978
:10382000088010E00A480088C0F30D0009490C54D4
:1038300007480088401C0649088008460088C728B9
:1038400001DD0020088010BD003801400008014063
:10385000180000206C09002001B500F016F90122C3
:1038600069462748FFF76DFE00F01BF908BD10B54B
:103870002348FFF73FFE10BD10B500242046FFF798
:10388000EBFF4FF440511F4800F0AAF810BD04466A
:103890001DA1204603F09CFA28B94EF6EE60FFF712
:1038A000DBFF00F01FF81AA1204603F091FA28B9B7
:1038B0004CF6CC40FFF7D0FF00F014F816A12046DC
:1038C00003F086FA28B94FF6FF70FFF7C5FF00F046
:1038D00009F813A1204603F07BFA08B900F002F8BA
:1038E00000F000F81048006800F4E0600F49084359
:1038F000001D0D490860BFF3408F00BFFEE70000C8
:1039000000280008003000087570646174650000CC
:1039100065726173650000006D656E7500000000E2
:1039200072756E61707000000CED00E00000FA0529
:103930000948804709480047FEE7FEE7FEE7FEE743
:10394000FEE7FEE7FEE7FEE7FEE7FEE7044805497F
:10395000054A064B70470000A933000831310008C2
:10396000980A002098100020980C0020980C002045
:1039700031490143314A1160704770B5002100237D
:103980000F22C4780CB32D4C246804F4E064C4F511
:10399000E064210AC1F10403CA40447804FA03F147
:1039A0008478144021430901254C0678A1550478F8
:1039B00004F01F050124AC4005786D114FF0E0269E
:1039C00006EB8505C5F8004109E0047804F01F0501
:1039D0000124AC401B4D0678761145F8264070BD99
:1039E000194A0A400243154B1B1F1A60704739B130
:1039F000124A121D12680243104B1B1D1A6006E08A
:103A00000E4A121D126882430C4B1B1D1A60704730
:103A1000042808D14FF0E021096941F004014FF07A
:103A2000E022116107E04FF0E021096921F0040173
:103A30004FF0E022116170470000FA050CED00E044
:103A400000E400E080E100E080FFFF1F014600206D
:103A5000FE4A106800F03800084310607047FB49C8
:103A6000096821F00801F94A11601146096801430B
:103A700011607047F549096821F01001F34A11609F
:103A800011460968014311607047F148EF494860E9
:103A9000F04848607047EE48EC494860ED4848609F
:103AA0007047EA48006940F08000E84908617047C3
:103AB000E648006940F08000E4490861704704204E
:103AC000E249C96811F0010F01D001200EE0DF4981
:103AD000C96811F0040F01D0022007E0DB49C96872
:103AE00011F0100F01D0032000E00420704700B552
:103AF00002460423FFF7E3FF034603E0FFF7DFFF7F
:103B00000346521E012B01D1002AF7D102B9052329
:103B1000184600BD30B5044604254FF43020FFF7A9
:103B2000E6FF0546042D17D1C848006940F00200A1
:103B3000C649086108464461006940F040000861D8
:103B40004FF43020FFF7D3FF0546C048006941F627
:103B5000FD710840BD490861284630BD10B50424F8
:103B60004FF43020FFF7C3FF0446042C16D1B748AA
:103B7000006940F00400B54908610846006940F05A
:103B8000400008614FF43020FFF7B1FF0446AF4812
:103B9000006941F6FB710840AC490861204610BD40
:103BA00000B502460423FFF78AFF034603E0FFF750
:103BB00086FF0346521E012B01D1002AF7D102B91C
:103BC0000523184600BD10B504244FF43020FFF73C
:103BD000E7FF0446042C16D19C48006940F004001D
:103BE0009A4908610846006940F0400008614FF4B6
:103BF0003020FFF7D5FF04469448006941F6FB7179
:103C0000084092490861204610BD00208F49C969CB
:103C100011F0020F01D0012000E00020704730B504
:103C2000A5250424FFF7F1FF00B100254FF4302053
:103C3000FFF75DFF0446042C3AD18548834988602C
:103C4000844888600846006940F020000861084602
:103C5000006940F0400008614FF43020FFF747FF53
:103C60000446042C1BD17948006941F6DF710840F5
:103C7000764908610846006940F0100008617648FE
:103C80000580E002FFF733FF0446052C10D06F4893
:103C9000006941F6EF7108406C49086108E0052CA5
:103CA00006D06A48006941F6EF710840674908612B
:103CB000204630BD78B506460C460425002000900D
:103CC000E802FFF714FF0546042D24D15F48006980
:103CD00040F001005D4908613480E802FFF707FF0A
:103CE0000546042D10D1B01C0090200C00990880CE
:103CF000E802FFF7FCFE05465448006941F6FE71F4
:103D000008405249086106E05048006941F6FE71DA
:103D100008404E490861284678BD70B504460D46F6
:103D20000426F002FFF7E3FE0646042E11D14748B1
:103D3000006940F00100454908612580F002FFF765
:103D4000D6FE06464148006941F6FE7108403F49EB
:103D50000861304670BD70B505460E460424E00289
:103D6000FFF7C5FE0446042C17D13948374988604F
:103D7000384888600846006940F0100008612E80CD
:103D8000E002FFF7B4FE0446052C06D02F48006978
:103D900041F6EF7108402D490861204670BD2DE9BC
:103DA000F04304464FF6FF763746B046B146042549
:103DB000E443E6B2C4F30727C4F307484FEA1469A3
:103DC000E802FFF794FE0546042D49D120481F491B
:103DD0008860204888600846006940F0100008614B
:103DE000FF2E06D01C4808300680E802FFF77FFE51
:103DF0000546042D08D1FF2F06D017480A3007804A
:103E0000E802FFF774FE0546042D0AD1B8F1FF0F52
:103E100007D011480C30A0F80080E802FFF767FED9
:103E20000546042D0AD1B9F1FF0F07D00A480E301C
:103E3000A0F80090E802FFF75AFE0546052D0FD0C6
:103E40000248006941F6EF71084007E00020024097
:103E500023016745AB89EFCD00F8FF1F6649086174
:103E60002846BDE8F08330B5054604244FF43020E1
:103E7000FFF73DFE0446042C41D160485E4988604E
:103E80005F4888600846006940F0200008610846E5
:103E9000006940F0400008614FF43020FFF727FE32
:103EA0000446042C22D15448006941F6DF710840D1
:103EB000514908610846006940F0100008611DB1D1
:103EC00000205049088002E0A5204E4908804FF4A8
:103ED0003020FFF70CFE0446052C10D04648006940
:103EE00041F6EF7108404449086108E0052C06D00E
:103EF0004148006941F6DF7108403F4908612046AA
:103F000030BDF0B505460E46174604243B483A49F5
:103F100088603B488860E002FFF7E9FD0446042C16
:103F200019D13548006940F010003349086147F065
:103F3000F800304328433349891C0880E002FFF72A
:103F4000D6FD0446052C06D02B48006941F6EF71DA
:103F50000840294908612046F0BD2748C06980080B
:103F600070472548006A704700202349096811F00E
:103F7000200F01D0012000E00020704729B11E4A27
:103F8000126902431C4B1A6104E01B4A1269824306
:103F9000194B1A61704701460020012908D1164AC1
:103FA000D26912F0010F01D0012008E0002006E0E4
:103FB000114AD2680A4201D0012000E00020704777
:103FC0000D49C860704704200B49C96811F0010F02
:103FD00001D001200EE00849C96811F0040F01D09A
:103FE000022007E00449C96811F0100F01D0032036
:103FF00000E00420704700000020024023016745D4
:10400000AB89EFCD00F8FF1F10B50446CA488442C3
:1040100008D10121042000F02BFD0021042000F034
:1040200027FD46E0C548844208D10121082000F060
:104030001FFD0021082000F01BFD3AE0C04884422B
:1040400008D10121102000F013FD0021102000F004
:104050000FFD2EE0BB48844208D10121202000F052
:1040600007FD0021202000F003FD22E0B648844235
:1040700008D10121402000F0FBFC0021402000F08D
:10408000F7FC16E0B148844208D10121802000F0FD
:10409000EFFC0021802000F0EBFC0AE0AC488442F9
:1040A00007D10121801500F0E3FC0021A01500F0EC
:1040B000DFFC10BD10B50121084600F0D9FC00213D
:1040C000012000F0D5FC10BD2DE9F041024600258D
:1040D0000026002000230024002791F803C00CF0E4
:1040E0000F0591F803C01CF0100F03D091F802C027
:1040F0004CEA050591F800C0BCF1000F31D01468FE
:1041000000202BE04FF0010C0CFA00F3B1F800C0D6
:104110000CEA03069E4220D183004FF00F0C0CFAEC
:1041200003F7BC4305FA03FC4CEA040491F803C00E
:10413000BCF1280F06D14FF0010C0CFA00FCC2F8BC
:1041400014C00AE091F803C0BCF1480F05D14FF04C
:10415000010C0CFA00FCC2F810C0401C0828D1D396
:104160001460B1F800C0BCF1FF0F34DD54680020CA
:104170002EE000F1080C4FF0010808FA0CF3B1F83A
:1041800000C00CEA03069E4221D183004FF00F0CC1
:104190000CFA03F7BC4305FA03FC4CEA040491F85B
:1041A00003C0BCF1280F05D100F1080C08FA0CF887
:1041B000C2F8148091F803C0BCF1480F07D100F198
:1041C000080C4FF0010808FA0CF8C2F81080401CE7
:1041D0000828CED35460BDE8F0814FF6FF7101800E
:1041E000022181700421C17070470246002093684B
:1041F0000B4201D0012000E0002070470146886892
:1042000080B2704702460020D3680B4201D00120E3
:1042100000E0002070470146C86880B27047016125
:104220007047416170470AB1016100E04161704728
:10423000C16070474FF480320A43826181618261BC
:1042400082698269704702460020424B18684FF627
:104250008073184040EA021008433E4B18607047D4
:104260003D49C8617047F0B50A460023002400218B
:10427000002500F00046B6F1004F02D1354EF1693D
:1042800001E0344E7168C0F3034583B200F4401678
:10429000B6F5401F08D121F070612E4E766826F0E9
:1042A00070662C4F7E6012E000F48016B6F5801F19
:1042B00006D1032606FA05F4A14341F0706106E039
:1042C000460D360103FA06F6B14341F0706122B1A2
:1042D000460D360103FA06F6314300F00046B6F10A
:1042E000004F02D11B4EF16101E01A4E7160F0BD2A
:1042F00030B500228B071C0F0F2303FA04F2154B75
:1043000008338C1053F824309343124C08348D102A
:1043100044F8253023468C1053F824308C07240FA2
:1043200000FA04F423430B4C08348D1044F8253074
:1043300030BD0A490860704700080140000C014088
:10434000001001400014014000180140001C014011
:10435000002001400000014000002042DC0020421B
:1043600010B50446FB48844209D10121880300F0BE
:104370007FFB00214FF4804000F07AFB32E0F648EA
:10438000844209D10121480400F07FFB00214FF451
:10439000003000F07AFB25E0F048844209D1012189
:1043A000880400F072FB00214FF4802000F06DFBC8
:1043B00018E0EB48844209D10121C80400F065FBF4
:1043C00000214FF4002000F060FB0BE0E548844240
:1043D00008D10121080500F058FB00214FF480109E
:1043E00000F053FB10BD2DE9F04786B005460E46A0
:1043F0000024A24600BFA1460027B08900B100BF3B
:104400002F462C8A4CF6FF700440F08804432C821F
:10441000AC894EF6F3100440B088318908437189A5
:1044200008430443AC81AC8A4FF6FF400440B08996
:104430000443AC8201A800F094FAC648874202D136
:10444000DDF810A001E0DDF80CA0A88910F4004F01
:1044500008D00AEBCA0000EB0A1031684900B0FB33
:10446000F1F807E00AEBCA0000EB0A103168890096
:10447000B0FBF1F86420B8FBF0F0040120096421DE
:1044800001FB1089A88910F4004F08D0322000EBFE
:10449000C900B0FBF1F000F00700044308E032204F
:1044A00000EB09106421B0FBF1F000F00F000443B1
:1044B0002C8106B0BDE8F0874FF416510160002151
:1044C0008180C18001810C2141810021818170475F
:1044D00010B502460020108A4FF2FF0318400B88E7
:1044E0004C8823438C882343CC8823431843108271
:1044F00010BD0021018041808180C180704721B1C1
:10450000828942F40052828104E082894DF6FF7371
:104510001A4082817047F0B503460024002600252A
:104520000020A1F510676A3F00D100BF1846C1F313
:10453000421401F01F06012707FA06F5012C01D1EC
:104540000C3004E0022C01D1103000E014301AB11C
:1045500007682F43076002E00768AF430760F0BDBC
:104560001AB1838A0B43838202E0838A8B4383825E
:104570007047028A4FF6F0731A400282028A0A4399
:104580000282704782894FF2FF731A4082818289CA
:104590000A438281704721B1828942F002028281FE
:1045A00004E082894FF6FD731A4082817047028AC7
:1045B0004FF6DF731A400282028A0A430282704772
:1045C00021B1028A42F48042028204E0028A4BF660
:1045D000FF731A4002827047C1F30802828070475D
:1045E00001468888C0F308007047818941F00101C5
:1045F00081817047028BD2B20283028B42EA012290
:1046000002837047028B02F47F420283028B0A43CB
:104610000283704721B1828A42F02002828204E044
:10462000828A4FF6DF731A408282704721B1828AF4
:1046300042F01002828204E0828A4FF6EF731A4041
:104640008282704721B1828A42F00802828204E0AD
:10465000828A4FF6F7731A408282704721B18289AD
:1046600042F40042828103E08289C2F30E02828119
:10467000704721B1828A42F40062828204E0828A19
:104680004FF2FF731A4082827047828A4FF6FB73A3
:104690001A408282828A0A438282704721B1828ACA
:1046A00042F00202828204E0828A4FF6FD731A40D1
:1046B0008282704702460020B1F5007F00D100BF22
:1046C00013880B4201D0012000E00020704701F464
:1046D0000072B2F5007F00D100BFCA43028070476C
:1046E00070B502460024002300250020A1F51066C5
:1046F0006A3E00D100BFC1F3421501F01F0301263D
:1047000006FA03F3012D02D19689334006E0022D0B
:1047100002D1168A334001E0968A33400C120126FA
:1047200006FA04F41688344013B10CB1012000E0FD
:10473000002070BD10B500220023A1F510646A3C72
:1047400000D100BF0A1201249440A3B2DC430480CC
:1047500010BD000000380140004400400048004007
:10476000004C004000500040DD48006840F001006F
:10477000DB49086008464068DA490840D849486083
:1047800008460068D8490840D549086008460068CE
:1047900020F4802008600846406820F4FE0048604D
:1047A0004FF41F0088607047CD49096821F48031BB
:1047B000CB4A11601146096821F480211160B0F5DF
:1047C000803F03D0B0F5802F0ED106E0C4490968C0
:1047D00041F48031C24A116007E0C149096841F4DF
:1047E000A021BF4A116000E000BF00BF704710B5B4
:1047F00001460022002300204A11012A02D1B84CB0
:10480000236806E0022A02D1B54C236A01E0B44CC9
:10481000636A01F01F02012494401C4201D0012070
:1048200000E0002010BD38B50020009000240025D5
:1048300000BF3120FFF7DBFF05460098401C0090C9
:104840000098B0F5A06F01D0002DF2D03120FFF715
:10485000CEFF08B1012400E00024204638BD014607
:1048600000209F4A106820F0F80040EAC100106064
:1048700070479E490860704702460020984B586870
:1048800020F47C1042EA01031843954B58607047AE
:1048900096490866704701460020914A506820F00A
:1048A00003000843506070478D48406800F00C00DA
:1048B0007047014600208A4A506820F0F000084303
:1048C0005060704701460020854A506820F4E0603F
:1048D00008435060704701460020814A506820F428
:1048E000605040EAC1005060704729B17C4A527A5A
:1048F00002437B4B5A7204E0794A527A8243784BE6
:104900005A7270477A490860704701460020744A1D
:10491000506820F440400843506070470021754AB9
:1049200011706F4A82F82010012802D0042808D1A3
:1049300003E001216F4A117004E005216D4A1170F6
:1049400000E000BF00BF70476B49086070476449D2
:10495000096A0143624A1162704767494439086035
:10496000704730B500210022002400235C4D6D68A3
:1049700005F00C0121B1042905D0082923D105E057
:104980005E4D056022E05D4D05601FE0544D6D6891
:1049900005F47012524D6D6805F48034022505EB64
:1049A00092421CB9564D554305600BE04C4D6D6865
:1049B00015F4003F03D0524D5543056002E04F4DC2
:1049C0005543056002E04D4D056000BF00BF444DFA
:1049D0006D6805F0F00109094A4D6B5C0568DD4022
:1049E00045603F4D6D6805F4E061090A454D6B5C1B
:1049F0004568DD4085603A4D6D6805F46051C90A2F
:104A0000404D6B5C4568DD40C560354D6D6805F413
:104A10004041890B3C4D6B5CC568B5FBF3F5056106
:104A200030BD29B12E4A526902432D4B5A6104E030
:104A30002B4A526982432A4B5A61704729B1284A4E
:104A400092690243264B9A6104E0254A92698243A7
:104A5000234B9A61704729B1214AD2690243204B06
:104A6000DA6104E01E4AD26982431D4BDA61704765
:104A700029B11B4AD2680243194BDA6004E0184A94
:104A8000D2688243164BDA60704729B1144A126922
:104A90000243134B1A6104E0114A12698243104B1E
:104AA0001A61704714494039086070470F49C8645B
:104AB00070470B49C87170470948406A40F08070E0
:104AC00007494862704701460020054A92680A4239
:104AD00001D0012000E00020704701498872704732
:104AE000001002400000FFF8FFFFF6FE0000424207
:104AF000D8004242201002408004424200127A0054
:104B000000093D00200000203000002010B50446C0
:104B1000FE48844208D10121C014FFF7A9FF0021FB
:104B2000E014FFF7A5FFC4E0B4F1804F08D10121E4
:104B30000846FFF7AAFF00210120FFF7A6FFB8E013
:104B4000F348844208D101210220FFF79EFF002193
:104B50000220FFF79AFFACE0EE48844208D1012121
:104B60000420FFF792FF00210420FFF78EFFA0E052
:104B7000E948844208D101210820FFF786FF00217F
:104B80000820FFF782FF94E0E448844208D1012125
:104B90001020FFF77AFF00211020FFF776FF88E052
:104BA000DF48844208D101212020FFF76EFF002159
:104BB0002020FFF76AFF7CE0DA48844208D1012117
:104BC0004014FFF755FF00216014FFF751FF70E01C
:104BD000D548844209D10121C804FFF749FF0021CB
:104BE0004FF40020FFF744FF63E0D048844209D12E
:104BF00001210805FFF73CFF00214FF48010FFF76B
:104C000037FF56E0CA48844209D101214805FFF721
:104C10002FFF00214FF40010FFF72AFF49E0C5489D
:104C2000844208D101214020FFF72FFF00214020BE
:104C3000FFF72BFF3DE0C048844208D101218020CE
:104C4000FFF723FF00218020FFF71FFF31E0BB4863
:104C5000844208D101218015FFF717FF0021A0151C
:104C6000FFF713FF25E0B648844209D1012108046B
:104C7000FFF7FEFE00214FF48030FFF7F9FE18E049
:104C8000B048844209D101214804FFF7F1FE002118
:104C90004FF40030FFF7ECFE0BE0AB48844208D144
:104CA00001218804FFF7E4FE00214FF48020FFF784
:104CB000DFFE10BD00220288944B98420ED0994B23
:104CC00098420BD0B0F1804F08D0914B984205D05C
:104CD000904B984202D0904B984204D14FF68F737C
:104CE0001A404B881A438D4B984207D08C4B984200
:104CF00004D04FF6FF431A40CB881A4302808B88BA
:104D000083850B880385814B98420BD0854B984255
:104D100008D08B4B984205D08A4B984202D08A4BE0
:104D2000984201D10B7A038601238382704770B5C4
:104D3000002400220023058C4FF6FE7635400584C2
:104D4000028C8388048B4FF68F752C40B51E2C4047
:104D50000D882C43751E2A400D892A434D882A430D
:104D60006A4DA8420BD06F4DA84208D0744DA8429E
:104D700005D0744DA84202D0734DA84213D14FF60E
:104D8000F7752A404D892A434FF6FB752A408D88D6
:104D90002A434FF6FF652B404FF6FF552B408D8978
:104DA0002B43CD892B4383800483CD888586028461
:104DB00070BD70B5002400220023058C4FF6EF76FD
:104DC00035400584028C8388048B48F6FF752C409F
:104DD0004FF6FF452C400D884FF6FF7606EA052575
:104DE0002C434FF6DF752A400D8906EA05152A4344
:104DF0004D8806EA05152A43444DA84202D0494D84
:104E0000A8421DD14FF67F752A404D894FF6FF7697
:104E100006EA05152A434FF6BF752A408D8806EA33
:104E200005152A434FF6FF352B404FF2FF752B40F7
:104E30008D8906EA85052B43CD8906EA85052B4336
:104E400083800483CD880587028470BD70B50024FB
:104E500000220023058C4FF6FF6635400584028C46
:104E60008388848B4FF68F752C404FF6FC752C4051
:104E70000D882C434FF6FF552A400D894FF6FF76DB
:104E800006EA05252A434D8806EA05252A431F4DD3
:104E9000A84202D0234DA8421DD14FF2FF752A40EF
:104EA0004D894FF6FF7606EA05252A434FF6FF3572
:104EB0002A408D8806EA05252A434EF6FF752B40C9
:104EC0004DF6FF752B408D8906EA05152B43CD89DC
:104ED00006EA05152B4383808483CD888587028469
:104EE00070BD70B5002200230024058C4EF6FF76BD
:104EF00035400584038C8488828B48F6FF752A40F0
:104F00004FF6FF452A400D8820E00000002C0140AC
:104F10000004004000080040000C00400010004069
:104F20000014004000340140004C0140005001409A
:104F30000054014000180040001C004000200040C8
:104F40000040014000440140004801404FF6FF7618
:104F500006EA05252A434DF6FF752B400D8906EA22
:104F600005352B434D8806EA05352B43FA4DA842FB
:104F700002D0FA4DA84208D14BF6FF752C408D891E
:104F80004FF6FF7606EA85152C4384808283CD8810
:104F9000A0F84050038470BD828B4FF2FF331A405B
:104FA0008283828B4FF6FF7303EA01231A438283C5
:104FB0007047F0B50C461546002200210026078CEC
:104FC0004EF6FF7C07EA0C070784828B018C4FF6B4
:104FD000FF7707EA043640F6FF473A404FF6FF777F
:104FE00007EA05273A434FF6FF7707EA03373A43C4
:104FF000D94FB8420ED0D94FB8420BD0B0F1804F44
:1050000008D0D74FB84205D0D64FB84202D0D64FBD
:10501000B84206D14DF6FF77394046F48057394300
:1050200005E047F6FF57394044F4805739438283FF
:105030000184F0BD828B4FF6F3731A408283828B1A
:105040000A4382837047F0B50C46154600220021C2
:105050000026078C4FF6FF6C07EA0C070784828B4B
:10506000018C4FF6FF7707EA04264FF60C773A409B
:105070004FF6FF7707EA03172F433A43B64FB8427C
:105080000ED0B64FB8420BD0B0F1804F08D0B44F1D
:10509000B84205D0B34FB84202D0B34FB84206D1A0
:1050A0004FF6FF57394046F48077394305E04FF219
:1050B000FF57394044F48077394382830184F0BD3F
:1050C000028B4FF2FF331A400283028B4FF6FF73BD
:1050D00003EA01231A4302837047F0B50C461546D4
:1050E000002200210026078C4FF6EF7C07EA0C0710
:1050F0000784028B018C4FF6FF7707EA041640F60F
:10510000FF473A404FF6FF7707EA03373A434FF637
:10511000FF7707EA05273A438F4FB8420ED08F4FEB
:10512000B8420BD0B0F1804F08D08D4FB84205D0B7
:105130008C4FB84202D08C4FB84206D14FF6DF7781
:10514000394046F01007394305E04FF65F773940A4
:1051500044F01007394302830184F0BD028B4FF6FF
:10516000F3731A400283028B0A4302837047F0B53F
:105170000C46154600220021068C4FF6FE773E4075
:105180000684028B018C4FF60C7632407E1C06EAB8
:1051900003162E433243704EB0420ED06F4EB042D3
:1051A0000BD0B0F1804F08D06D4EB04205D06D4E9F
:1051B000B04202D06C4EB04206D14FF6FD7631407F
:1051C00044F00106314305E04FF6F576314044F0F6
:1051D0000106314302830184F0BD70B505460C46DB
:1051E0005D4885420ED05D4885420BD0B5F1804FB9
:1051F00008D05B48854205D05A48854202D05A48BB
:10520000854200D100E000BF208850B92389A288E0
:1052100061882846FFF7ABFFE1882846FFF79EFF2D
:1052200025E0208804280AD12389A288618828469D
:10523000FFF753FFE1882846FFF742FF17E0208879
:1052400008280AD12389A28861882846FFF7FBFE37
:10525000E1882846FFF7EEFE09E02389A2886188ED
:105260002846FFF7A6FEE1882846FFF795FE70BDA9
:105270002DE9F04105460C4600260127608808B953
:10528000022600E00026A088012801D1022700E0C4
:1052900001272088A0B92389A28861882846FFF7C2
:1052A00066FFE1882846FFF759FF23893A463146D1
:1052B0002846FFF712FFE1882846FFF701FF13E0B9
:1052C0002389A28861882846FFF707FFE1882846DE
:1052D000FFF7F6FE23893A4631462846FFF747FF97
:1052E000E1882846FFF73AFFBDE8F0810A884B883D
:1052F0001A438B881A43CB881A430B891A434B896C
:105300001A438B891A43A0F8442070474FF6FF7167
:10531000818000210180C18041800172704700219D
:10532000018041808180C180018141818181C18171
:105330007047002101804180012181800021C180CE
:10534000018170470021018041808180C1800181FD
:105350004181818170470000002C014000340140F0
:105360000004004000080040000C004021B1028809
:1053700042F00102028004E002884FF6FE731A40F8
:105380000280704731B1B0F8442042F40042A0F8E6
:10539000442005E0B0F84420C2F30E02A0F84420F7
:1053A00070471AB183890B43838102E083898B4361
:1053B000838170478182704741EA0203A0F8483038
:1053C00070471AB183890B43838102E083898B4341
:1053D0008381704701894FF6F8721140018170474F
:1053E0000A46002101894FF68F731940114301814C
:1053F000704730B504460D4629462046FFF7F0FFBA
:10540000208940F00700208130BD2DE9F04104469D
:105410000D4616461F46602D06D13B4601223146F9
:105420002046FFF75AFE05E03B4601223146204662
:10543000FFF79DFE29462046FFF7D2FF208940F066
:1054400007002081BDE8F08130B50C4600210189BC
:10545000C9B24FF6FF7505EA0325154325432943D5
:10546000018130BD2DE9F04105460E4617469846AC
:10547000002443463A4631462846FFF7E5FF2C898B
:105480004FF6F870044044F007044FF68F70044064
:1054900044F070042C81BDE8F081F0B504460D465F
:1054A00016461F463B46324629462046FFF7CCFFAC
:1054B000208940F480402081F0BD018582827047C0
:1054C0000A46002101884FF68F731940114301806D
:1054D0007047F0B50C4615461E46002100220023F9
:1054E0000189028B038C4FF6F877394021434FF640
:1054F000FC473A4040F201173A434FF6DD773B4014
:105500004FF6FF7707EA06172F433B4301810283DB
:105510000384F0BD0A460021018B4FF68F731940BA
:105520001143018370470A460021018B48F6FF733F
:1055300019404FF6FF7303EA0223194301837047B2
:105540000A460021818B4FF68F73194011438183E6
:1055500070470A460021818B48F6FF7319404FF6C9
:10556000FF7303EA022319438183704721B1028844
:1055700042F08002028004E002884FF67F731A40F6
:105580000280704721B1828842F00402828004E0E8
:1055900082884FF6FB731A408280704721B182885F
:1055A00042F00802828004E082884FF6F7731A40C6
:1055B0008280704721B1828842F00102828004E03B
:1055C00082884FF6FE731A40828070470A46002197
:1055D000018B4FF6F77319401143018370470A4658
:1055E0000021018B4FF2FF7319404FF6FF7303EA5E
:1055F00002231943018370470A460021818B4FF62D
:10560000F77319401143818370470A460021818B4B
:105610004FF2FF7319404FF6FF7303EA0223194359
:10562000818370470A460021018B4FF6FB731940B6
:105630001143018370470A460021018B4FF6FF3367
:1056400019404FF6FF7303EA0223194301837047A1
:105650000A460021818B4FF6FB7319401143818369
:1056600070470A460021818B4FF6FF3319404FF6F1
:10567000FF7303EA02231943818370470A4600211E
:10568000018B4FF67F7319401143018370470A461F
:105690000021018BC1F30E014FF6FF7303EA0223D1
:1056A0001943018370470A460021818B4FF67F73AF
:1056B00019401143818370470A460021818BC1F351
:1056C0000E014FF6FF7303EA0223194381837047EB
:1056D0000A460021018C4FF6FD73194011430184E5
:1056E00070470A460021018C4FF6F77319401143A9
:1056F000018470470A460021018C4FF6DF73194080
:105700004FF6FF7303EA02131943018470470A46F8
:105710000021018C4FF67F7319404FF6FF7303EAA7
:1057200002131943018470470A460021018C4FF689
:10573000FF5319404FF6FF7303EA02231943018414
:1057400070470A460021018C4FF2FF7319404FF653
:10575000FF7303EA02231943018470470A460021BC
:10576000018C4DF6FF7319404FF6FF7303EA0233C5
:1057700019430184704730B5002301248C40A3B243
:10578000048C9C430484048C02FA01F5ADB22C43D2
:10579000048430BD30B5002304248C40A3B2048CB3
:1057A0009C430484048C02FA01F5ADB22C430484BA
:1057B00030BD70B50346002000241846183001257E
:1057C0008D40ACB21D8CA5431D8409B1082909D1B7
:1057D00000EB6100056825F070050560056815435C
:1057E00005600EE00D1FC5F34E052844056825F43D
:1057F000E045056005684FF6FF7606EA0226354368
:10580000056070BD21B1028842F00202028004E00E
:1058100002884FF6FD731A400280704721B102885A
:1058200042F00402028004E002884FF6FB731A4043
:105830000280704721B1828842F08002828004E0B9
:1058400082884FF67F731A408280704702884FF635
:10585000F7731A40028002880A43028070478288E8
:105860004FF68F731A40828082880A438280704785
:1058700002894FF6F8731A40028102890A430281B5
:10588000704702894FF67F731A40028102890A43EA
:105890000281704781847047818570478186704797
:1058A0000187704781877047A0F8401070470288D1
:1058B0004FF6FF431A40028002880A430280704775
:1058C0000146888E70470146088F70470146888FD1
:1058D00070470146B1F8400070470146888C704718
:1058E0000146088D704702460020138A0B4201D002
:1058F000012000E000207047CA430282704730B5A3
:105900000246002000230024158A05EA0103958938
:1059100005EA010413B10CB1012000E0002030BD04
:10592000CA4302827047000010B579A001F0C2F8A6
:10593000784801F0BFF878A001F0BCF87548443011
:1059400001F0B8F87348883001F0B4F882A001F093
:10595000B1F890A001F0AEF894A001F0ABF899A0D6
:1059600001F0A8F89EA001F0A5F8A4A001F0A2F80B
:10597000B0A001F09FF8BDA001F09CF8C8A001F014
:1059800099F8D0A001F096F8D7A001F093F8E1A023
:1059900001F090F8E6A001F08DF8EBA001F08AF894
:1059A000F6A001F087F810BD10B58CB004461E2398
:1059B0000BAA03A9204600F07FFE0090009810B1CA
:1059C00001200CB010BD9DF82C00044400200B9069
:1059D0000EE0F8489DF82C2050F8221003A800F0A3
:1059E000D3FD00B908E09DF82C00401CC0B20B901C
:1059F0009DF82C000D28ECD300BF9DF82C000D283D
:105A000074D2DFE800F007080B2D5B838281807F72
:105A10007E7D7C0000BFFFF787FFABE23CA001F07A
:105A200049F8E5A001F046F800200B900EE0F2489E
:105A300000689DF82C2000EBC2004168EFA001F047
:105A400039F89DF82C00401CC0B20B90EA48007D4C
:105A50009DF82C108842EADC2DA001F02BF889E299
:105A60002BA001F027F8E7A001F024F800200B900C
:105A70001AE0E14909689DF82C2001EBC20101AB55
:105A800002AA486803A900F03DFEDB4800689DF8C3
:105A90002C1050F8312003A9EAA001F00BF89DF872
:105AA0002C00401CC0B20B90D348007D9DF82C10F8
:105AB0008842DEDC16A000F0FDFF5BE214A000F0DF
:105AC000F9FF0BAA03A9204600F0F8FE9DF82C0070
:105AD00098B9694603A800F08AFD0B909DF82C0048
:105AE00028B9DDA0009900F0E5FFC4E140E29DF88F
:105AF0002C00042802D0022063E7BAE1B2E132E2CE
:105B00002BE224E21DE216E213E2E6E1B8E1000036
:105B10000D0A000008700008CDA8B9FD55534D418D
:105B20005254C4E3BFC9D2D4CAB9D3C3B4AEBFDAE6
:105B3000D6FACAD6B5F7D3C3B9CCBCFEC0EFC3E61C
:105B4000B5C4C8CEBACEBAAFCAFD2CB2A2D6B4D0B4
:105B5000D02E0D0A0000000055534D415254D3D0B1
:105B60003132B8F6CFB5CDB3C3FCC1EE28BAF335A8
:105B7000B8F6D6F7D2AAD3C9426F6F744C6F61647E
:105B80006572BACD417070B9B2CDACD6A7B3D62983
:105B90003A0D0A003F3A202020202020BBF1C8A166
:105BA000B0EFD6FAD0C5CFA20D0A000068656C70C0
:105BB0003A202020BBF1C8A1B0EFD6FAD0C5CFA2C1
:105BC0000D0A00006C6973743A202020BFC9D3C34A
:105BD000B5C4BAAFCAFDC1D0B1ED0D0A0A000000CC
:105BE00069643A2020202020BFC9D3C3BAAFCAFDC0
:105BF000B5C44944C1D0B1ED0D0A0A006865783AD0
:105C000020202020B2CECAFD3136BDF8D6C6CFD472
:105C1000CABE2CBAF3B8FABFD5B8F12BCAFDD7D695
:105C2000BCB4D6B4D0D0BDF8D6C6D7AABBBB0D0A7B
:105C30000A0000006465633A20202020B2CECAFD2D
:105C40003130BDF8D6C6CFD4CABE2CBAF3B8FABF2D
:105C5000D5B8F12BCAFDD7D6BCB4D6B4D0D0BDF8D8
:105C6000D6C6D7AABBBB0D0A0A00000072756E74B7
:105C7000696D653A312CBFAAC6F4BAAFCAFDD4CB60
:105C8000D0D0BCC6CAB13B302CB9D8B1D5BAAFCA96
:105C9000FDD4CBD0D0BCC6CAB13B0D0A0A0000006F
:105CA0007570646174653A20CDA8B9FD426F6F7458
:105CB0004C6F61646572CFC2D4D8B9CCBCFE0D0AFA
:105CC0000000000075706C6F61643A20CDA8B9FDCA
:105CD000426F6F744C6F61646572C9CFB4ABB9CC5D
:105CE000BCFE0D0A0000000065726173653A202059
:105CF000B2C1B3FDB3FD426F6F746C6F61646572C6
:105D0000D6AECDE2B5C4466C617368C7F8D3F20D68
:105D10000A0000006D656E753A202020CCF8D7AAE5
:105D2000BBD8494150204D656E750D0A000000003A
:105D300072756E6170703A20D4CBD0D05573657295
:105D4000204170700D0A0000C7EBB0B4D5D5B3CCBC
:105D5000D0F2B1E0D0B4B8F1CABDCAE4C8EBBAAF72
:105D6000CAFDC3FBBCB0B2CECAFDB2A2D2D4BBD86E
:105D7000B3B5BCFCBDE1CAF82E0D0A002D2D2D2DAA
:105D80002D2D2D2D2D2D2D2D2D2D2D2D2D2D2D2D43
:105D90002D2D2D2D2D2D2D2D2D2D2D2D2D2D2D2D33
:105DA0002D2D2D2D2D2D2D2D2D2D2D2D200D0A0A96
:105DB00000000000340000202D2D2D2D2D2D2D2D27
:105DC0002D2D2D2D2D2D2D2D2D2D2D2D2D2D2D2D03
:105DD0002DBAAFCAFDC7E5B5A52D2D2D2D2D2D2D25
:105DE0002D2D2D2D2D2D2D2D2D2D2D2D2D2D2D2DE3
:105DF0002D2D2D2D200D0A007800002025730D0A71
:105E0000000000002D2D2D2D2D2D2D2D2D2D2D2D76
:105E10002D2D2D2D2D2D2D2D2D2D2D2D2DBAAFCA06
:105E2000FD204944202D2D2D2D2D2D2D2D2D2D2DB9
:105E30002D2D2D2D2D2D2D2D2D2D2D2D2D2D2D2D92
:105E4000200D0A0025732069642069733A0D0A3019
:105E500058253038580D0A004845583A30582558CA
:105E60000D0A0000F5A000F025FE0120F849C875D4
:105E700001E00220A5E5AFF2683000F01BFE79E0FA
:105E8000AFF2743000F016FE0BAA03A9204600F012
:105E900015FD9DF82C00C8B9694603A800F0A7FBC2
:105EA0000B909DF82C0020B9EAA0009900F002FEAA
:105EB0000EE09DF82C00042801D0022081E5E8A026
:105EC00000F0F8FD0020E249C87501E0022078E505
:105ED000AFF2C43000F0EEFD4CE0AFF2CC3000F099
:105EE000E9FD0BAA03A9204600F0E8FC9DF82C0070
:105EF000C8B9694603A800F07AFB0B909DF82C0006
:105F000078B9D349009881F8EC00084690F8EC0085
:105F100018B1D8A000F0CEFD07E0DDA000F0CAFD6A
:105F200003E002204DE502204BE5DFA000F0C2FDBA
:105F300020E000F0CAFA4EF6EE60FDF78DFC00F0AE
:105F4000C4FA4DF6DD50FDF787FC00F0BEFA4CF6C2
:105F5000CC40FDF781FC00F0B8FA4FF6FF70FDF77A
:105F60007BFC00F0B2FA0020FDF776FC00F0ADFA01
:105F7000012026E500BF002023E54FF08040008A85
:105F800020F001004FF0804108824FF6FF708885B5
:105F900000208884AE49C1F8F00070474FF080407F
:105FA000008A10F0010F08D0A948D0F8F0004FF691
:105FB000FF710844A649C1F8F000A548D0F8F000E8
:105FC0004FF08041898C0844A149C1F8F00008468F
:105FD000D0F8F000704710B54FF08040008A10F004
:105FE000010F09D09A490869804700204FF080418D
:105FF00088844FF47A7088854FF08040008A20F0C2
:1060000001004FF08041088210BD7FB505460C4667
:1060100001210846FEF71FFDADF80850ADF8044019
:106020000020ADF80A00ADF8060001A94FF080404D
:10603000FEF740FE012241218807FFF7B2F91C203C
:106040008DF8000003208DF801008DF8020001207A
:106050008DF803006846FDF790FC01218807FFF7E3
:1060600085F97FBD10B5044604EBC40000EB0410B5
:106070000122C2EB800081B24FF47A70FFF7C5FFB6
:1060800001207349C87510BD30B595B0054613ABF6
:1060900012AA09A9284600F035FB044614B120468F
:1060A00015B030BD0020149026E0694909689DF8BC
:1060B000502001EBC20113AB11AA486801A900F0FE
:1060C00021FB04460CB12046EAE709A901A800F02B
:1060D0005BFA60B99DF844009DF84810884201DDE4
:1060E0000220DDE79DF85000594988750AE09DF8C7
:1060F0005000401CC0B214905548007D9DF85010CF
:106100008842D2DC00BF5248007D9DF85010884282
:1061100001D10420C4E714A9284600F040FC04463D
:106120000CB12046BCE79DF8500049494875002055
:10613000B6E72DE9F0419AB04548847D007DA04244
:1061400002DC1AB0BDE8F0814149096801EBC401E5
:1061500006AB07AA486808A900F0D4FA08A953A01A
:1061600000F0A8FC002644E03948018B0120B04033
:1061700001421BD022214FA000F09CFC304600F0D1
:1061800001FC33492431471839464BA000F092FCFA
:10619000222148A000F08EFC304600F0F3FB2C4991
:1061A0002431084410A941F8260018E0304600F0D8
:1061B000E9FB27492431085810A941F82600244852
:1061C000C07D30B910A850F826103CA000F072FC39
:1061D00005E010A850F8261039A000F06BFC9DF8DF
:1061E0001C00401EB04202D037A000F063FC701CBF
:1061F000C6B29DF81C008642B6DB34A000F05AFC03
:10620000FFF7BBFE1248407D0B280DD2DFE800F0FF
:10621000060D6069727D8A99AABDD2000C49096891
:1062200051F8340080470546DBE0094A126852F80D
:106230003410109888470546D3E000003136BDF889
:10624000D6C6B2CECAFDCFD4CABE210D0A00000008
:10625000780000204445433A256C750D0A00000083
:106260003130BDF8D6C6B2CECAFDCFD4CABE210DDC
:106270000A00000052756E2054696D652043616C00
:1062800063756C6174696F6E204F4E0D0A000000DB
:1062900052756E2054696D652043616C63756C6145
:1062A00074696F6E204F46460D0A00000D0A257373
:1062B000280000002563000025730000256C750090
:1062C00030582558000000002C0000002900000074
:1062D000844B1B6853F83420DDE9100190470546D4
:1062E0007FE0804F3F6857F8343010A807C89847C0
:1062F000054676E0DFF8ECC1DCF800C05CF83470ED
:1063000010A80FC8B84705466BE01498DFF8D4C151
:106310000090DCF800C05CF8347010A80FC8B847D3
:1063200005465EE0DDE91401DFF8B8C1CDE9000102
:10633000DCF800C05CF8347010A80FC8B8470546F8
:106340004FE0DDE914121698DFF898C1CDE900128C
:106350000290DCF800C05CF8347010A80FC8B84791
:1063600005463EE0DDE91423DDE91610DFF874C1CF
:10637000CDE90023CDE90210DCF800C05CF83470F0
:1063800010A80FC8B84705462BE0DDE91523DDE965
:106390001710CDE90123CDE903101498DFF844C1AB
:1063A0000090DCF800C05CF8347010A80FC8B84743
:1063B000054616E0DDE9173216991998CDE9033242
:1063C00002910590DDE91401DFF818C1CDE9000163
:1063D000DCF800C05CF8347010A80FC8B847054658
:1063E00000BF00BFFFF7DAFD9DF8180001280CD1AF
:1063F0003C48C07D20B929463BA000F05BFB07E08C
:1064000029463BA000F056FB02E038A000F052FB0A
:10641000344890F8EC0088B13248D0F8F0000A21F6
:10642000B0FBF1F201FB12072E48D0F8F000B0FBF0
:10643000F1F83A46414631A000F03CFB00BF80E64F
:1064400070B53648008810F4004F38D033480578CE
:10645000002033494855234881683148884704461D
:106460001CB92049C868804726E02D48FFF79CFAF0
:106470000546012D00D02C46002C1DD0012C06D045
:10648000022C0BD0032C0DD0042C13D10EE025A030
:1064900000F010FB27A000F00DFB0CE02AA000F09C
:1064A00009FB08E02CA000F005FB04E02EA000F0A2
:1064B00001FB00E000BF00BF00201849088070BD4C
:1064C000014608687047016070472D48006800F475
:1064D000E0602C490843001D29490860BFF3408F44
:1064E00000BFFEE7780000203D256C753B0D0A00DB
:1064F0003D305825583B0D0A0000000046756E637C
:1065000074696F6E2052756E2054696D653A25640A
:106510002E2531646D730D0A000000001800002064
:106520006C09002020BAAFCAFDB4EDCEF3210D0AEC
:106530000000000020CAE4C8EB3A68656C70B2E95C
:10654000D1AF0D0A0000000020B2CECAFDB4EDCEDE
:10655000F3210D0A0000000020B2CECAFDCCABB67C
:10656000E0210D0A0000000020CEB4D5D2B5BDC692
:10657000A5C5E4B5C4BAAFCAFD210D0A00000000EC
:106580000CED00E00000FA0502460AE010780B78F6
:10659000984201D001207047107800B902E0521CE7
:1065A000491CF3E700BF0020F5E706E002780A7017
:1065B000027802B902E0401C491CF7E700BF7047AF
:1065C0000146002005E00A7802B903E0421CD0B27F
:1065D000491CF8E700BF704710B50246012000E0F3
:1065E00050430B00A1F10104E1B2F9D110BD2DE936
:1065F000F04307460E4600254FF00A083C460020AF
:1066000030601FE02078392802DC207830280ADA50
:106610002078462802DC2078412804DA207858289F
:1066200009D1012D07D12078412801DB4FF0100856
:10663000681CC5B205E0207800B904E00120BDE87F
:10664000F083641CDEE700BF3C46B8F1100F0FD1A9
:10665000032D01DA0220F2E72078302806D1607895
:10666000582803D1A41CA81EC5B204E00320E6E705
:106670000DB90420E3E71BE00DB1681EC5B2207818
:10668000392806DC2078302803DB2078A0F1300997
:1066900002E02078A0F1370929464046FFF79CFF29
:1066A000316809FB00103060641C207800B900E0FC
:1066B000E2E700BF0020C2E710B5044600201070DA
:1066C0000BE020780870641C491C1078401C107086
:1066D0001078984201DB012010BD2078202802D0DC
:1066E00020780028EDD10020087000BFF4E70146B3
:1066F000491C00E0491C0878202801D10029F9D163
:10670000087870472DE9FF4F85B0804689460027FD
:10671000002004900390012002904FF0000B002510
:1067200044461DE02078202816D005F07F0005287B
:1067300012DA0DB945F0800505F07F00042803D179
:1067400020782A2800D00EE0207805F07F010DF88F
:106750000100681CC5B202E0852D00D103E0641C75
:1067600020780028DED100BF8DB1002005F07F0128
:106770000DF80100CBA16846FFF706FF18B900210C
:106780000898017002E001210898017000254FF07F
:10679000000A444614E0641C0AF1010000F0FF0AFC
:1067A0002078202802D020782A2809D12046FFF717
:1067B0009EFF0646282E03D02A2E01D0CDF810A029
:1067C0002078282802D020780028E4D14446049874
:1067D00010B10498401C04444FF0000A002654E015
:1067E000207810B94FF0010A50E02078282803D112
:1067F00016B9781CC7B213E02078292808D13EB911
:1068000017B1781EC7B201E04FF0010A47B93DE069
:106810002078222804D10EB9012000E0002006468D
:1068200047B9207820282FD0207889F8000009F176
:10683000010929E020782C2804D101200290681C4D
:10684000C5B214E02078202811D0207828280ED056
:106850004DB9BBF1050F06DA20780DF80B000BF1EE
:10686000010000F0FF0B0298401CC0B20290012F03
:106870000AD10298022807D10298401CC0B20290A7
:106880000398401CC0B20390641CA9E700BF0398A2
:10689000012809D100200DF80B0082A16846FFF7FE
:1068A00073FE08B900200390079903980870002030
:1068B00089F80000504609B0BDE8F08FF0B50346F6
:1068C0001546002000220026002455E01F782C2FBA
:1068D00001D104B901221F78292F01D01F780FB9E7
:1068E00004B94AE0002E34D11F78302F02DB1F7824
:1068F000392F11DD1F78612F02DB1F78662F0BDD2A
:106900001F78412F02DB1F78462F05DD1F78582F97
:1069100002D01F78782F0CD102B12EE01F78612FA2
:1069200003DB1F78203F0F7001E01F780F70491CB8
:106930001FE01F78222F04D102B11EE0012601249E
:1069400017E01F78202F14D01F782C2F11D0FF268E
:1069500013E01F78222F00D1002402B10DE044B1D2
:106960001F785C2F02D15B1C471CF8B21F780F7098
:10697000491C471CF8B25B1CA8E700BF00270F703A
:106980002E70F0BD02460020002105E0474B5B5C05
:106990000344D8B24B1CD9B29142F7DB70472DE9C2
:1069A000F043B5B005460F460024002604E0002160
:1069B0003E488155701CC6B20A2EF8DB06E06D1CFD
:1069C000287818B9012035B0BDE8F0832878282848
:1069D000F5D16D1C61E034AA69462846FFF76EFFC9
:1069E000064635449DF8D00020B1012827D0FF2865
:1069F0004CD149E09DF8000000B333A96846FFF789
:106A0000F6FD06460EB10220DDE72046FFF7BAFF8D
:106A100026490A31339A0A50A1F12400008B012142
:106A2000A140884321491A39088304211F48015590
:106A3000601CC4B20A2C01DD0320C4E726E06846CE
:106A4000FFF7BEFD401C00F0FF082046FFF79AFF4D
:106A500016490A3100EB010949466846FFF7A5FDD2
:106A600012481A38018B0120A040014388B20F4917
:106A70001A3908830D4800F80480601CC4B20A2C3F
:106A800001DD03209FE701E002209CE700BF28789A
:106A9000292801D0287800B900E09CE700BF3C70AD
:106AA000002090E7766F69640000000092000020EB
:106AB000704700000FB4044910B503AA029800F013
:106AC0003DFA10BC5DF814FB1C00002070B50446B4
:106AD00085690068C10601D5302600E02026C00780
:106AE00008D070BDD4E9012130469047206A00F1FA
:106AF000010020626D1EF5D570BD70B50446856934
:106B00000078C00708D170BDD4E90121202090474A
:106B1000206A00F1010020626D1EF5D570BD70B5D0
:106B20000C460546012A05D02878800600D5EA697A
:106B3000002302E0012305E05B1C934202D2E05CEB
:106B40000028F9D1A869E618C01AA861286A184473
:106B500028622846FFF7BAFF04E0D5E9012114F8BE
:106B6000010B9047B442F8D32846FFF7C6FF70BD2B
:106B70002DE9F0410646002410687529314616A516
:106B800011D0AFF30080002803DAC0F1000013A594
:106B900007E031688A0701D511A502E0490704D54D
:106BA00010A5012401E0AFF3008000210A2306F1C3
:106BB000240707E0B0FBF3F203FB120030307854F7
:106BC0001046491C0028F5D123462A463046BDE828
:106BD000F04100F041B90000000000002D0000006D
:106BE0002B0000002000000070B504460D46214631
:106BF0001068AFF300802188090502D5104A7A4455
:106C000002E00F4A7A440E32002104F1240307E027
:106C100000F00F064FEA1010965D5E5401F101017D
:106C20000028F5D103462078000704D5702D02D046
:106C300009B1113202232046BDE8704000F00CB9C2
:106C4000D60400002DE9F05F894604464FF0000AA3
:106C5000DFF878B1FB44C0F820A02046E1688847FF
:106C6000002875D0252806D0D4E901219047206A54
:106C7000401C2062F1E700265F462046E168884715
:106C80002028054608DB312D06D207EB050010F859
:106C9000200C08B10643F0E7B00701D526F0040642
:106CA000C4F81CA00027C4F818A02A2D09D0284633
:106CB00000F0A2F938B304EB8708303DC8F818504B
:106CC00019E059F8041B204604EB87029161E16842
:106CD0008847012F054618D1E069002820DA26F000
:106CE00020061DE0D8F8180000EB800005EB4000FE
:106CF0003038C8F818002046E1688847054600F09B
:106D00007BF90028EED1012F0AD02E2D08D1204684
:106D1000E16888477F1C0546022F46F02006C4DB49
:106D2000A069002803DA404246F00106A061F0079E
:106D300001D026F010066C2D0BD0682D09D04C2DFB
:106D400039D06A2D35D0742D35D07A2D33D016E058
:106D500038E0E1682F4620468847B842054609D109
:106D60006C2F26D04FF48060E168064320468847A8
:106D7000054604E06C2F1AD04FF4807006430DB323
:106D8000A5F14100192802D8203546F400664A468C
:106D90002946204626604E46FCF724FA80B1012899
:106DA0000BD0F61D26F0070000F1080955E740203A
:106DB000E4E78020D8E70020D6E706F104094CE795
:106DC000284651E7206ABDE8F09F0000A8040000B3
:106DD0004FF0013C50F8042B51F8043B9A4221D16A
:106DE000A2EB0C03934313EACC1317D150F8042BF6
:106DF00051F8043B9A4215D1A2EB0C03934313EADA
:106E0000CC130BD150F8042B51F8043B9A4209D112
:106E1000A2EB0C03934313EACC13DBD04FF000003A
:106E2000704700BFD01A01BAB1FA81F101F0180120
:106E300022FA01F0CB40C1F12001DBB2C0B2C01A8E
:106E40002CFA01F3D11A914311EAC311E6D170472C
:106E500070477047704770472DE9F0470D469946D7
:106E60009246044600F124080168880604D5E069CA
:106E700021F01001216000E00120A84202DDA0EB1A
:106E8000050700E00027A16907EB050202EB0900F6
:106E9000A1EB0000A0612078C00602D42046FFF7D5
:106EA00015FE002608E0D4E901211AF806009047F3
:106EB000206A401C761C20624E45F4DB2078C00618
:106EC0000AD52046FFF702FE06E0D4E90121302072
:106ED0009047206A401C2062381EA7F10107F4DCAD
:106EE00007E0D4E9012118F805009047206A401C0A
:106EF0002062281EA5F10105F3DC2046FFF7FDFD09
:106F00002078000602D50220BDE8F0870120FBE7CB
:106F100010B5436913B1AFF3008001E0FFF7FFFD47
:106F2000012010BD127800F124010A7000224A707D
:106F30000122EDE711684FF0FF32E9E7074B70B52A
:106F40000D467B4400F011F80446284600F020F876
:106F500010B14FF0FF3070BD204670BDD5C7FFFFA8
:106F600001694A1C02610878704700B58FB0CDE90D
:106F700001310021059105497944CDE903101146FD
:106F80006846FFF75FFE0FB000BD0000E5FFFFFFA2
:106F9000007B00F080007047754600F029F8AE468F
:106FA00005006946534620F00700854618B020B515
:106FB000FCF7CCFCBDE820404FF000064FF0000786
:106FC0004FF000084FF0000B21F00701AC46ACE891
:106FD000C009ACE8C009ACE8C009ACE8C0098D46FE
:106FE00070470446AFF300802046FCF719F9000013
:106FF00000487047340A002030380A2801D20120A6
:1070000070470020704700002D2D2D2D2D2D2D2D8A
:107010002D2D2D2D2D2D2D2D2D2D2D2D2D2D2D2DA0
:1070200055534D415254205620302E312E342D2DA3
:107030002D2D2D2D2D2D2D2D2D2D2D2D2D2D2D2D80
:107040002D2D2D2D200D0A0A00000000C4E3BFC91C
:10705000D2D4CBE6D2E2B8FCB8C4BAAFCAFDB5C44C
:10706000CAE4C8EBB2CECAFD28D6A7B3D6CAFDD7AC
:10707000D62831302F3136BDF8D6C629A1A2D7D6B1
:10708000B7FBB4AEA1A2BAAFCAFDC8EB0D0A0000AF
:10709000BFDAB5D8D6B7B5C8D7F7CEAAB2CECAFD33
:1070A000292CB5A5B8F6BAAFCAFDD7EEB6E0D6A77B
:1070B000B3D63130B8F6CAE4C8EBB2CECAFD2CB2B2
:1070C000A2D6A7B3D6BAAFCAFDB7B5BBD8D6B5CF8F
:1070D000D4CABE2E0D0A0A00303132333435363769
:1070E000383941424344454640305800303132330C
:1070F000343536373839616263646566403078000C
:107100000400000800000000000000020001000070
:10711000103F006465630075706C6F6164006964A2
:107120000072756E74696D650065726173650075D6
:1071300070646174650068656C700072756E617072
:1071400070007265736574006C697374006D656EB0
:10715000750068657800766F696420777269746578
:107160005F616464722875333220616464722C75C7
:1071700033322076616C2900753332207265616488
:107180005F6164647228753332206164647229001F
:10719000B0710008000000206C0100006C31000894
:1071A000147200086C0100202C0F0000C831000888
:1071B0001184A24A04000910010203040607080909
:1071C0002918691C170204060811711B0836041AD5
:1071D00048041A1E041A52041A13041A21041A42EB
:1071E000041A2F041A17041A29041A4D041A3B040E
:1071F00013C1641B0878081AC7081A5608226814B5
:107200002065601B0889041333611B0841181A02AA
:047210006B01DC0032
:04000005080031318D
:00000001FF
