:020000040800F2
:10300000F01000206D830008893400088B3400081C
:103010008F34000893340008973400080000000043
:103020000000000000000000000000009B340008C9
:103030009D340008000000009F340008A1340008FF
:103040008783000887830008878300088783000838
:103050008783000887830008878300088783000828
:103060008783000887830008878300088783000818
:103070008783000887830008878300088783000808
:1030800087830008878300088783000887830008F8
:1030900087830008878300088783000887830008E8
:1030A00087830008878300088783000887830008D8
:1030B00039B00008878300088783000887830008E9
:1030C00087830008878300088783000887830008B8
:1030D00087830008E382000887830008878300084D
:1030E0008783000887830008878300088783000898
:1030F0008783000887830008878300088783000888
:103100008783000887830008878300088783000877
:103110008783000887830008878300088783000867
:103120008783000887830008878300088783000857
:1031300000F002F800F06BF80AA090E8000C82445E
:103140008344AAF10107DA4501D100F060F8AFF23B
:10315000090EBAE80F0013F0010F18BFFB1A43F075
:1031600001031847909B0000B09B00000A444FF0F9
:10317000000C10F8013B13F0070408BF10F8014BD6
:103180001D1108BF10F8015B641E05D010F8016B1B
:10319000641E01F8016BF9D113F0080F1EBF10F87F
:1031A000014BAD1C0C1B09D16D1E58BF01F801CBA2
:1031B000FAD505E014F8016B01F8016B6D1EF9D525
:1031C0009142D6D37047000000230024002500263A
:1031D000103A28BF78C1FBD8520728BF30C148BF7A
:1031E0000B607047642908F0DD84752908F0DA84E3
:1031F000782908F01385632908F06E86732908F092
:103200007386002070471FB51FBD10B510BD08F0B4
:103210009DFE1146FFF7F7FF00F008F808F0BBFE2F
:1032200003B4FFF7F2FF03BC04F0FEFF88B00025F3
:10323000002002904FF440514FF0006005F0EEF88E
:10324000012202A95A4804F0F4FE04F07FFF04F0C2
:10325000E5FF4FF4E13004F0F5FF00F011FA01F062
:103260004EF800F033FA534800685349B0FBF1F0D0
:10327000C6B252484168304688474FF478405049BA
:10328000088050A010210B46C822CDE90010322141
:103290003C2004F073FE4FA010210B46C822CDE95C
:1032A000001046213C2004F069FE4FA010210B467F
:1032B000C822CDE900105A213C2004F05FFE4EA048
:1032C00010210B46C822CDE900106E213C2004F0ED
:1032D00055FE4CA010210B46C822CDE900108221DA
:1032E0003C2004F04BFE1F203549088008805EE03A
:1032F000002000F005FA0446042C22D14FF6FF709E
:1033000040F23F13EF2296210090002004F07CFB56
:1033100042A010210B46C822CDE9001096213C2086
:1033200004F02CFE11224349434804F082FE43A0DE
:1033300010210B46C822CDE9001096213C2004F054
:103340001DFE022C22D143A010210B46C822CDE93C
:10335000001096213C2004F011FE112203A93648EA
:1033600004F056FE41A010210B46C822CDE9001002
:1033700096213C2004F002FE03A810210B46C8222F
:10338000CDE90010AA213C2004F0F8FD681C85B2AC
:103390000A2004F017FF142D09D13A48006808B933
:1033A000012000E00020374908604FF000059FE74A
:1033B000002800080000002040420F00C00000204C
:1033C00016000020576172536869702053544D33C2
:1033D00032000000464C41534820454550524F4D65
:1033E000205445535400000041544F4D40414C4936
:1033F000454E54454B000000323031322F392F31C9
:1034000033000000574B5F55503A5772697465207E
:103410004B4559313A526561640000005374617242
:103420007420577269746520464C4153482E2E2EE5
:103430002E000000BABF000800000708464C4153A8
:10344000482057726974652046696E6973686564BF
:10345000210000005374617274205265616420463B
:103460004C4153482E2E2E2E20000000546865201B
:1034700044617461205265616465642049733A2037
:103480002000000094812142704700BFFEE700BF8A
:10349000FEE700BFFEE700BFFEE7704770477047DA
:1034A000704700000CB50020019000906B48006848
:1034B00040F480306949086000BF6848006800F443
:1034C000003000900198401C0190009818B90198B4
:1034D000B0F5A06FF1D16148006810F4003F02D050
:1034E0000120009001E0002000900098012842D1C6
:1034F0005B48006840F010005949086008460068C1
:1035000020F0030008600846006840F002000860F0
:10351000524840685149486008464068486008463B
:10352000406840F4806048600846406820F47C10A1
:1035300048600846406840F4E81048600846006863
:1035400040F08070086000BF4448006810F0007FC1
:10355000FAD04248406820F00300404948600846DD
:10356000406840F00200486000BF3C48406800F0FE
:103570000C000828F9D10CBD10B5FFF793FF10BD62
:1035800010B53648006840F001003449086008462C
:10359000406834490840314948600846006832496B
:1035A00008402E4908600846006820F48020086022
:1035B0000846406820F4FE0048604FF41F00886011
:1035C000FFF7DAFF4FF000602849086010BD10B522
:1035D000002100200022214B5B6803F00C0121B187
:1035E000042906D0082928D107E0214B214C23606B
:1035F00027E01F4B1F4C236023E0184B5B6803F44C
:103600007010164B5B6803F48032022303EB90408A
:1036100022B9194B4343174C23600DE00F4B5B68F5
:1036200013F4003F04D0144B4343124C236003E0D7
:103630000F4B43430F4C236003E00D4B0D4C2360B5
:1036400000BF00BF054B5B68C3F303130B4CE15C89
:10365000084B1B68CB40074C236010BD0010024094
:10366000002002400000FFF8FFFFF6FE08ED00E03A
:1036700000127A000000002000093D000400002034
:1036800008B50121482006F003FA2020ADF800001B
:1036900010208DF8030003208DF8020069460948C8
:1036A00005F03CFD2021074805F0E3FD2020ADF8A2
:1036B00000006946044805F031FD2021024805F06C
:1036C000D8FD08BD000C01400018014008B50121DB
:1036D000442006F0DDF91C20ADF8000048208DF8EC
:1036E00003006946354805F019FD0120ADF80000DA
:1036F00028208DF803006946314805F00FFD08BD0C
:1037000010B5044614B101202E4908702D480078E8
:10371000002837D01021294805F091FD78B1082103
:10372000264805F08CFD50B10421244805F087FDA2
:1037300028B10121224805F082FD012822D10A206A
:1037400004F040FD00201F49087010211B4805F0BF
:1037500076FD08B9012010BD0821184805F06FFD5D
:1037600008B90220F7E70421144805F068FD08B9FC
:103770000320F0E70121124805F061FD01281BD16B
:103780000420E8E710210D4805F059FD012813D168
:1037900008210A4805F053FD01280DD104210748EE
:1037A00005F04DFD012807D10121054805F047FD31
:1037B00010B90120034908700020CCE7001801402F
:1037C0000008014014000020FE4908807047FD49B0
:1037D000891C08807047FB48801C00887047F94AA4
:1037E0001080921C1180704710B504462046FFF7E8
:1037F000EBFF052004F0C3FCFFF7EDFF10BDF2481E
:103800000089F04908807047EE49891C088070479C
:1038100030B5014601F01F04C1F34513CA0AE502A1
:1038200005EB43151544A8B230BD00BF0100A0F15F
:103830000102D0B2FAD1704710B503460C46E248F7
:103840008088A0F51341413905D0DF488088A0F574
:10385000A641103914D1DC494889FFF7B5FF181289
:10386000FFF7B5FFD8B2FFF7B2FFD7498889FFF756
:10387000ABFF2012FFF7ABFFE0B2FFF7A8FF5DE060
:10388000D1488088A0F5D04104391DD1CE48807937
:10389000012804D1CC480088401EC01A83B2CA490E
:1038A0004889FFF791FF1812FFF791FFD8B2FFF791
:1038B0008EFFC5498889FFF787FF2012FFF787FF32
:1038C000E0B2FFF784FF39E0BF488088A0F5AA4145
:1038D000103920D1BC494889FFF776FF1812FFF74D
:1038E00076FFB9494989491C88B2FFF76DFFD8B204
:1038F000FFF76DFFB4498889FFF766FF2012FFF7D5
:1039000066FFB1498989491C88B2FFF75DFFE0B2C3
:10391000FFF75DFF12E0AC488079012804D1AA4886
:103920000088401EC01A83B2A74948891946FFF78C
:1039300056FFA54988892146FFF751FF10BD2DE9A3
:10394000F04105460E4600240027A0469E48008808
:10395000A84203DD9C484088B04202DC0020BDE85C
:10396000F08131462846FFF767FF97488088A0F529
:10397000134141390BD094488088A0F5D0410439D7
:1039800005D091488088A0F5A641103903D12E209A
:10399000FFF71AFF0DE08C488088A0F5AA41103986
:1039A00004D14FF43850FFF70FFF02E02220FFF759
:1039B0000BFF85488088A0F51341203902D10220F1
:1039C000FFF733FF7F48801C008800B100240220ED
:1039D000FFF72BFF7B48801C04887B488088A0F57C
:1039E000134141390BD078488088A0F5A6411039A1
:1039F00005D075488088A0F5AA4110390CD1022065
:103A0000FFF713FF6F48801CB0F80080E7B24FF655
:103A1000FF7000EA072708E06B488088A0F5D041D6
:103A2000043902D16748801C048867488088A0F563
:103A30001341253917D064488088A0F58A4135396B
:103A400011D061488088A0F58A4131390BD05E4899
:103A50008088A0F50941893905D05B488088A0F5A8
:103A60003541053901D1204679E757488088A0F5CE
:103A7000134141390BD054488088A0F5A641103934
:103A800005D051488088A0F5AA41103907D1E0122D
:103A9000C002B91240EA411040EAE8205FE7204640
:103AA000FFF7B6FE5BE700B547488088A0F51341F5
:103AB00041390BD044488088A0F5D041043905D065
:103AC00041488088A0F5A641103903D12920FFF78D
:103AD0007BFE0FE03C488088A0F5AA41103904D154
:103AE0004FF42450FFF770FE04E040F273110720FA
:103AF000FFF775FE00BD00B533488088A0F513417F
:103B000041390BD030488088A0F5D041043905D028
:103B10002D488088A0F5A641103903D12820FFF751
:103B200053FE0EE028488088A0F5AA41103904D140
:103B30004FF42050FFF748FE03E000210720FFF775
:103B40004EFE00BDF0B50546002400271E488079D2
:103B500001281ED11C488088A0F5D041043918D016
:103B6000082D15D2DFE805F00406080A0C0E101225
:103B700006250DE007250BE0042509E0052507E0F3
:103B8000012505E0002503E0032501E0022500BF33
:103B900000BF0D488088A0F51341413911D00A4873
:103BA0008088A0F5D04104390BD007488088A0F563
:103BB000A641103905D004488088A0F5AA411039E3
:103BC0007ED103E0FE07006CB4010020082D1CD25A
:103BD000DFE805F00406090C0F12151800BF14E009
:103BE00044F0800411E044F040040EE044F0C004CE
:103BF0000BE044F0200408E044F0600405E044F0E9
:103C0000A00402E044F0E00400BF00BFFC4880884C
:103C1000A0F5AA41103902D14FF4585700E03627D9
:103C2000F7488088A0F5A641103907D0F44880886D
:103C3000A0F5AA41103901D044F00804F04880886A
:103C4000A0F5D041043901D144F0020421463846A0
:103C5000FFF7C5FD14F0200F03D1E9488079012852
:103C60000DD1E7480088E6494988884214DAE448DB
:103C700006884088E2490880084646800CE0E04813
:103C80000088DF494988884206DDDD48068840888B
:103C9000DB49088008464680D9488088A0F5AA41BB
:103CA000103954D1D6494889FFF78EFD0020FFF71F
:103CB0008EFDD3494989491C88B2FFF785FD00E094
:103CC00074E00020FFF783FDCD494989891C88B243
:103CD000FFF77AFDCA490988491EC1F30F20FFF793
:103CE00076FDC7494989C91C88B2FFF76DFDC449F3
:103CF0000978491EC8B2FFF76AFDC1498889FFF7F4
:103D000063FD0020FFF763FDBD498989491C88B226
:103D1000FFF75AFD0020FFF75AFDB9498989891C30
:103D200088B2FFF751FDB6494988491EC1F30F20FB
:103D3000FFF74DFDB2498989C91C88B2FFF744FDE0
:103D4000AF498978491EC8B2FFF741FD60E0AC4930
:103D50004889FFF739FD0020FFF739FD0020FFF704
:103D600036FDA7490988491EC1F30F20FFF72FFD33
:103D7000A3490978491EC8B2FFF729FDA0498889DF
:103D8000FFF722FD0020FFF722FD0020FFF71FFDB7
:103D90009B494988491EC1F30F20FFF718FD984938
:103DA0008978491EC8B2FFF712FD31E0082D1CD2F8
:103DB000DFE805F004070A0D0F12151844F030046F
:103DC00013E044F0100410E044F020040DE000BFC4
:103DD0000BE044F0380408E044F0280405E044F027
:103DE000180402E044F0080400BF00BF8448808843
:103DF000A0F50941893904D1112746F24000044356
:103E000002E0032744F4805421463846FFF7E7FCDC
:103E1000F0BD30B504460D4629462046FFF70CFD9F
:103E2000FFF7EDFC774800887749088030BD30B552
:103E300003460C46154672488088A0F51341413967
:103E400005D06F488088A0F5A641103914D16C497F
:103E50004889FFF7B9FC1812FFF7B9FCD8B2FFF791
:103E6000B6FC67498889FFF7AFFC2012FFF7AFFC6B
:103E7000E0B2FFF7ACFC5DE061488088A0F5AA41A4
:103E8000103920D15E494889FFF79EFC1812FFF7D0
:103E90009EFC5B494989491C88B2FFF795FCD8B262
:103EA000FFF795FC56498889FFF78EFC2012FFF733
:103EB0008EFC53498989491C88B2FFF785FCE0B222
:103EC000FFF785FC36E04E488088A0F5D0410439E4
:103ED0001DD14B488079012804D149480088401EF3
:103EE000C01A83B246494889FFF76EFC1812FFF7E3
:103EF0006EFCD8B2FFF76BFC41498889FFF764FC80
:103F00002012FFF764FCE0B2FFF761FC12E03C48CE
:103F10008079012804D13A480088401EC01A83B233
:103F2000374948891946FFF75AFC3549888921469F
:103F3000FFF755FC324800893349891E0880881CE8
:103F4000058030BD10B50446002C67D12C4988711E
:103F5000F02008804FF4A070488008468088A0F5C3
:103F6000134141390BD026488088A0F5D04104394F
:103F700005D023488088A0F5A64110391AD12C20FD
:103F80001F4908812A2048812B2088810846808883
:103F9000A0F5D041043905D019488088A0F5A64184
:103FA000103906D14FF4A070154908804FF4F07015
:103FB00048809CE012488088A0F50941893907D1E2
:103FC00022200F4908814E2048814F2088818EE0B1
:103FD0000B488088A0F5AA41103917D14FF4305012
:103FE000074908814FF4285048814FF42C508881AC
:103FF0004FF4F07008804FF44870488077E00DE08F
:10400000B4010020160000200008006C2220FE49A8
:104010000881202048812120888168E00120FA4918
:1040200088714FF4A0700880F0204880084680888E
:10403000A0F51341413905D0F3488088A0F5A64189
:10404000103907D12C20F04908812A2048812B20E3
:10405000888139E0EC488088A0F5D041043907D147
:104060002C20E94908812B2048812A2088812BE0D7
:10407000E5488088A0F50941893907D12220E24925
:1040800008814F2048814E2088811DE0DE488088CD
:10409000A0F5AA41103910D14FF43050DA49088107
:1040A0004FF4285048814FF42C5088814FF44870C9
:1040B00008804FF4F070488006E02220D249088141
:1040C0002120488120208881CF488088A0F5D041D8
:1040D000043905D0CC488088A0F5A641103906D116
:1040E0004FF4F070C84908804FF4A0704880002059
:1040F000FFF728FD10BD2DE9FF4F04460D4616467B
:104100001F46A019401E86B2E819401E87B2BE485D
:104110008088A0F5134141390BD0BB488088A0F5B9
:10412000A641103905D0B8488088A0F5D04104399F
:1041300020D1B5494889FFF747FB2012FFF747FB1D
:10414000E0B2FFF744FB3012FFF741FBF0B2FFF79C
:104150003EFBAD498889FFF737FB2812FFF737FB95
:10416000E8B2FFF734FB3812FFF731FBF8B2FFF784
:104170002EFB90E0A4488088A0F5AA41103944D1D4
:10418000A1494889FFF720FB2012FFF720FB9E4939
:104190004989491C88B2FFF717FBE0B2FFF717FB0C
:1041A00099494989891C88B2FFF70EFB3012FFF745
:1041B0000EFB95494989C91C88B2FFF705FBF0B28F
:1041C000FFF705FB90498889FFF7FEFA2812FFF7F1
:1041D000FEFA8D498989491C88B2FFF7F5FAE8B2E1
:1041E000FFF7F5FA88498989891C88B2FFF7ECFA4C
:1041F0003812FFF7ECFA84498989C91C88B2FFF7A5
:10420000E3FAF8B2FFF7E3FA45E07F488079012846
:104210000ED1A846B9467C480088801B401E80B25B
:10422000019079480088001B401E80B2009003E096
:10423000A046B1460195009773488088A0F50941D2
:1042400089390CD14FF0440AD34648EA09201FFAB5
:1042500080F8C146452003904620029007E04FF0C9
:10426000500A4FF0510B52200390532002904146C8
:104270005046FFF7B4FA49465846FFF7B0FA01999D
:104280000398FFF7ACFA00990298FFF7A8FA2946BD
:104290002046FFF7D1FABDE8FF8F70B5044600262F
:1042A000594805884088454357488088A0F5D04143
:1042B000043916D154488079012812D1002052497E
:1042C00088712A2048812B20888100210846FFF729
:1042D000B3FA01204C4988712B2048812A2088811B
:1042E00003E000210846FFF7A7FAFFF788FA002647
:1042F00002E046480480761CAE42FAD370BD00B599
:104300009FB00121080205F0B6FB012140F26910BF
:1043100005F0BEFB0120ADF8780010208DF87B0081
:1043200003208DF87A001EA9394804F0F7FE4CF2FC
:104330003370ADF8780018208DF87B0003208DF8DD
:104340007A001EA9334804F0E9FE4FF68070ADF8FC
:10435000780018208DF87B0003208DF87A001EA9C4
:104360002D4804F0DBFE41F20100ADF87800182082
:104370008DF87B0003208DF87A001EA9274804F0F1
:10438000CDFE01200890002009900F200A90002007
:104390000B900C900D900E900190029003200390D2
:1043A0000020049005900690079006200F900020B2
:1043B00010901190102012900020139015901490DE
:1043C000169017904FF480501890002019904FF4D9
:1043D00080401A9000201B9008A81C9001A81D90F6
:1043E0000FA804F07EFB0121062004F0DBFC322044
:1043F00003F0E8FE01210020FFF7F1F9322003F07D
:10440000E1FE00200CE00000B40100200008006C78
:10441000000C014000140140001801400020014040
:10442000FFF7E2F9FE49888008468088FF280ADB0A
:1044300008468088A0F57F41FF3904D0F84880887D
:10444000B0F5134F7ED1D320FFF7BEF9FFF7C3F9C4
:10445000FFF7C1F9FFF7BFF9F14988800846808866
:104460004FF6FF7101EA0020ED498880FFF7B3F9AC
:10447000EB4989880843EA49888008468088A0F586
:10448000134141396CD0BF20FFF79EF9FFF7A3F924
:10449000FFF7A1F9FFF79FF9FFF79DF9E049888041
:1044A000084680884FF6FF7101EA0020DC498880C9
:1044B000FFF791F9DA4989880843D9498880084685
:1044C0008088A0F5D04104394AD0D420FFF77CF988
:1044D000FFF781F9FFF77FF9FFF77DF9D049888071
:1044E000084680884FF6FF7101EA0020CC49888099
:1044F000FFF771F9CA4989880843C9498880084685
:104500008088A0F5A64110392AD04FF45A40FFF711
:104510005BF9FFF760F94FF45B40FFF755F9FFF7E0
:104520005AF9BF498880084680884FF6FF7101EA32
:104530000020BB4988804FF45C40FFF745F9FFF746
:104540004AF900E00CE0B64989880843B4498880FC
:1045500008468088B0F5004F02D145F2105088809F
:10456000AF488188AFA007F0BFFAAD488088A0F5BA
:10457000134141397ED1CF20FFF726F90020FFF704
:1045800026F9C120FFF723F93020FFF720F9ED20AD
:10459000FFF71AF96420FFF71AF90320FFF717F95C
:1045A0001220FFF714F98120FFF711F9E820FFF737
:1045B0000BF98520FFF70BF91020FFF708F97A2097
:1045C000FFF705F9CB20FFF7FFF83920FFF7FFF8D9
:1045D0002C20FFF7FCF80020FFF7F9F83420FFF754
:1045E000F6F80220FFF7F3F8F720FFF7EDF82020A8
:1045F000FFF7EDF8EA20FFF7E7F80020FFF7E7F80C
:104600000020FFF7E4F8C020FFF7DEF81B20FFF7DB
:10461000DEF8C120FFF7D8F80120FFF7D8F8C52051
:10462000FFF7D2F83020FFF7D2F83020FFF7CFF8AD
:10463000C720FFF7C9F8B720FFF7C9F83620FFF702
:10464000C3F84820FFF7C3F83A20FFF7BDF855201C
:10465000FFF7BDF8B120FFF7B7F80020FFF7B7F874
:104660001A20FFF7B4F8B620FFF7AEF80A20FFF7DC
:10467000AEF800E097E0A220FFF7A9F8F220FFF7DC
:10468000A3F80020FFF7A3F82620FFF79DF80120EC
:10469000FFF79DF8E020FFF797F80F20FFF797F856
:1046A0002A20FFF794F82820FFF791F80820FFF759
:1046B0008EF80E20FFF78BF80820FFF788F85420BB
:1046C000FFF785F8A920FFF782F84320FFF77FF86E
:1046D0000A20FFF77CF80F20FFF779F80020FFF79A
:1046E00076F80020FFF773F80020FFF770F800203D
:1046F000FFF76DF8E120FFF767F80020FFF767F894
:104700001520FFF764F81720FFF761F80720FFF77F
:104710005EF81120FFF75BF80620FFF758F82B2012
:10472000FFF755F85620FFF752F83C20FFF74FF8F7
:104730000520FFF74CF81020FFF749F80F20FFF78E
:1047400046F83F20FFF743F83F20FFF740F80F20DF
:10475000FFF73DF82B20FFF737F80020FFF737F879
:104760000020FFF734F80120FFF731F83F20FFF772
:104770002EF82A20FFF728F80020FFF728F800205D
:10478000FFF725F80020FFF722F8EF20FFF71FF8CA
:104790001120FFF719F8782003F014FD2920FFF706
:1047A00013F803F025B91E488088A0F5D0410439DC
:1047B0007ED11120FFF708F8142003F003FDD0206C
:1047C000FFF702F80720FFF702F84220FEF7FFFF8D
:1047D0001D20FEF7FCFFD120FEF7F6FF0020FEF7BC
:1047E000F6FF1A20FEF7F3FF0920FEF7F0FFD220B4
:1047F000FEF7EAFF0120FEF7EAFF2220FEF7E7FFBF
:10480000C020FEF7E1FF1020FEF7E1FF3B20FEF79E
:10481000DEFF0020FEF7DBFF0220FEF7D8FF09E0F5
:10482000B4010020204C43442049443A25780D0A25
:10483000000000001120FEF7CAFFC520FEF7C4FFEC
:104840000320FEF7C4FFC820FEF7BEFF0020FEF7DE
:10485000BEFF2520FEF7BBFF2120FEF7B8FF052095
:10486000FEF7B5FF0020FEF7B2FF0A20FEF7AFFF0C
:104870006520FEF7ACFF2520FEF7A9FF7720FEF7A5
:10488000A6FF5020FEF7A3FF0F20FEF7A0FF002099
:10489000FEF79DFFF820FEF797FF0120FEF797FF38
:1048A000FE20FEF791FF0020FEF791FF022000E0BE
:1048B00035E0FEF78CFF2020FEF786FF3620FEF75E
:1048C00083FF0820FEF783FF3A20FEF77DFF552087
:1048D000FEF77DFF2B20FEF777FF0020FEF777FF26
:1048E0000020FEF774FF0120FEF771FF3F20FEF766
:1048F0006EFF2A20FEF768FF0020FEF768FF002009
:10490000FEF765FF0120FEF762FFDF20FEF75FFF85
:10491000782003F057FC2920FEF756FF41E7FE48B8
:104920008088A0F5A641103940F07C87ED20FEF785
:104930004BFF0120FEF74BFFFE20FEF748FFEE2065
:10494000FEF742FFDE20FEF742FF2120FEF73FFF89
:10495000F120FEF739FF0120FEF739FFDF20FEF7D7
:1049600033FF1020FEF733FFC420FEF72DFF8F200A
:10497000FEF72DFFC620FEF727FF0020FEF727FFDA
:10498000E220FEF724FFE220FEF721FFE220FEF7FF
:104990001EFFBF20FEF718FFAA20FEF718FFB02069
:1049A000FEF712FF0D20FEF712FF0020FEF70FFFAB
:1049B0000D20FEF70CFF0020FEF709FF1120FEF787
:1049C00006FF0020FEF703FF1920FEF700FF00207E
:1049D000FEF7FDFE2120FEF7FAFE0020FEF7F7FEAF
:1049E0002D20FEF7F4FE0020FEF7F1FE3D20FEF73D
:1049F000EEFE0020FEF7EBFE5D20FEF7E8FE002055
:104A0000FEF7E5FE5D20FEF7E2FE0020FEF7DFFE8A
:104A1000B120FEF7D9FE8020FEF7D9FE0020FEF778
:104A2000D6FE8B20FEF7D3FE0020FEF7D0FE9620A8
:104A3000FEF7CDFE0020FEF7CAFEB220FEF7C4FE50
:104A40000020FEF7C4FE0020FEF7C1FE0220FEF7A4
:104A5000BEFE0020FEF7BBFE0320FEF7B8FE0020DE
:104A6000FEF7B5FEB320FEF7AFFE0020FEF7AFFE67
:104A70000020FEF7ACFE0020FEF7A9FE0020FEF7A6
:104A8000A6FE0020FEF7A3FE0020FEF7A0FE0020F9
:104A9000FEF79DFE0020FEF79AFE0020FEF797FE2F
:104AA0000020FEF794FE0020FEF791FE0020FEF7A6
:104AB0008EFE0020FEF78BFE0020FEF788FE002011
:104AC000FEF785FE0020FEF782FE0020FEF77FFE47
:104AD0000020FEF77CFE0020FEF779FE0020FEF7A6
:104AE00076FE0020FEF773FE0020FEF770FE002029
:104AF000FEF76DFE0020FEF76AFEB420FEF764FEAE
:104B00008B20FEF764FE0020FEF761FE9620FEF784
:104B10005EFE0020FEF75BFEA120FEF758FE00209F
:104B2000FEF755FEB520FEF74FFE0220FEF74FFEC2
:104B30000020FEF74CFE0320FEF749FE0020FEF7A2
:104B400046FE0420FEF743FE0020FEF740FEB6209E
:104B5000FEF73AFE0020FEF73AFE0020FEF737FE91
:104B6000B720FEF731FE0020FEF731FE0020FEF7F1
:104B70002EFE3F20FEF72BFE0020FEF728FE5E20D3
:104B8000FEF725FE0020FEF722FE6420FEF71FFE42
:104B90000020FEF71CFE8C20FEF719FE0020FEF719
:104BA00016FEAC20FEF713FE0020FEF710FEDC2000
:104BB000FEF70DFE0020FEF70AFE7020FEF707FE4E
:104BC0000020FEF704FE9020FEF701FE0020FEF715
:104BD000FEFDEB20FEF7FBFD0020FEF7F8FDDC20DC
:104BE000FEF7F5FD0020FEF7F2FDB820FEF7ECFD24
:104BF0000020FEF7ECFD0020FEF7E9FD0020FEF7A7
:104C0000E6FD0020FEF7E3FD0020FEF7E0FD0020BA
:104C1000FEF7DDFD0020FEF7DAFD0020FEF7D7FDF0
:104C2000BA20FEF7D1FD2420FEF7D1FD0020FEF7CB
:104C3000CEFD0020FEF7CBFD0020FEF7C8FDC12011
:104C4000FEF7C2FD2020FEF7C2FD0020FEF7BFFDEB
:104C50005420FEF7BCFD0020FEF7B9FDFF20FEF753
:104C6000B6FD0020FEF7B3FDC220FEF7ADFD0A2021
:104C7000FEF7ADFD0020FEF7AAFD0420FEF7A7FD1C
:104C80000020FEF7A4FDC320FEF79EFD3C20FEF7AA
:104C90009EFD0020FEF79BFD3A20FEF798FD0020C8
:104CA000FEF795FD3920FEF792FD0020FEF78FFDFF
:104CB0003720FEF78CFD0020FEF789FD3C20FEF733
:104CC00086FD0020FEF783FD3620FEF780FD0020E4
:104CD000FEF77DFD3220FEF77AFD0020FEF777FD1E
:104CE0002F20FEF774FD0020FEF771FD2C20FEF74B
:104CF0006EFD0020FEF76BFD2920FEF768FD002009
:104D0000FEF765FD2620FEF762FD0020FEF75FFD41
:104D10002420FEF75CFD01E0B40100200020FEF736
:104D200056FD2420FEF753FD0020FEF750FD232002
:104D3000FEF74DFD0020FEF74AFD3C20FEF747FD43
:104D40000020FEF744FD3620FEF741FD0020FEF76F
:104D50003EFD3220FEF73BFD0020FEF738FD2F2000
:104D6000FEF735FD0020FEF732FD2C20FEF72FFD6B
:104D70000020FEF72CFD2920FEF729FD0020FEF77C
:104D800026FD2620FEF723FD0020FEF720FD24202F
:104D9000FEF71DFD0020FEF71AFD2420FEF717FD8B
:104DA0000020FEF714FD2320FEF711FD0020FEF782
:104DB0000EFDC420FEF708FD6220FEF708FD00206E
:104DC000FEF705FD0520FEF702FD0020FEF7FFFCC3
:104DD0008420FEF7FCFC0020FEF7F9FCF020FEF733
:104DE000F6FC0020FEF7F3FC1820FEF7F0FC002094
:104DF000FEF7EDFCA420FEF7EAFC0020FEF7E7FC3E
:104E00001820FEF7E4FC0020FEF7E1FC5020FEF73E
:104E1000DEFC0020FEF7DBFC0C20FEF7D8FC0020B7
:104E2000FEF7D5FC1720FEF7D2FC0020FEF7CFFCE2
:104E30009520FEF7CCFC0020FEF7C9FCF320FEF71E
:104E4000C6FC0020FEF7C3FCE620FEF7C0FC0020F5
:104E5000FEF7BDFCC520FEF7B7FC3220FEF7B7FC1D
:104E60000020FEF7B4FC4420FEF7B1FC0020FEF762
:104E7000AEFC6520FEF7ABFC0020FEF7A8FC762018
:104E8000FEF7A5FC0020FEF7A2FC8820FEF79FFCA1
:104E90000020FEF79CFCC620FEF796FC2020FEF7C3
:104EA00096FC0020FEF793FC1720FEF790FC0020F4
:104EB000FEF78DFC0120FEF78AFC0020FEF787FC40
:104EC000C720FEF781FC0020FEF781FC0020FEF7E2
:104ED0007EFC0020FEF77BFC0020FEF778FCC8205B
:104EE000FEF772FC0020FEF772FC0020FEF76FFC5C
:104EF0000020FEF76CFC0020FEF769FCC920FEF7DD
:104F000063FC0020FEF763FC0020FEF760FC00203D
:104F1000FEF75DFC0020FEF75AFC0020FEF757FC70
:104F20000020FEF754FC0020FEF751FC0020FEF7A5
:104F30004EFC0020FEF74BFC0020FEF748FC002052
:104F4000FEF745FC0020FEF742FC0020FEF73FFC88
:104F50000020FEF73CFC0020FEF739FC0020FEF7A5
:104F600036FCE020FEF730FC1620FEF730FC002077
:104F7000FEF72DFC1C20FEF72AFC0020FEF727FC84
:104F80002120FEF724FC0020FEF721FC3620FEF74E
:104F90001EFC0020FEF71BFC4620FEF718FC00203C
:104FA000FEF715FC5220FEF712FC0020FEF70FFC66
:104FB0006420FEF70CFC0020FEF709FC7A20FEF7C7
:104FC00006FC0020FEF703FC8B20FEF700FC00200F
:104FD000FEF7FDFB9920FEF7FAFB0020FEF7F7FB3A
:104FE000A820FEF7F4FB0020FEF7F1FBB920FEF746
:104FF000EEFB0020FEF7EBFBC420FEF7E8FB0020F1
:10500000FEF7E5FBCA20FEF7E2FB0020FEF7DFFB20
:10501000D220FEF7DCFB0020FEF7D9FBD920FEF7FB
:10502000D6FB0020FEF7D3FBE020FEF7D0FB0020EC
:10503000FEF7CDFBF320FEF7CAFB0020FEF7C7FB0F
:10504000E120FEF7C1FB1620FEF7C1FB0020FEF7B2
:10505000BEFB1C20FEF7BBFB0020FEF7B8FB2220A6
:10506000FEF7B5FB0020FEF7B2FB3620FEF7AFFBE4
:105070000020FEF7ACFB4520FEF7A9FB0020FEF761
:10508000A6FB5220FEF7A3FB0020FEF7A0FB642046
:10509000FEF79DFB0020FEF79AFB7A20FEF797FBB8
:1050A0000020FEF794FB8B20FEF791FB0020FEF71B
:1050B0008EFB9920FEF78BFB0020FEF788FBA820D3
:1050C000FEF785FB0020FEF782FBB920FEF77FFB91
:1050D0000020FEF77CFBC420FEF779FB0020FEF7E2
:1050E00076FBCA20FEF773FB0020FEF770FBD22090
:1050F000FEF76DFB0020FEF76AFBD820FEF767FB8A
:105100000020FEF764FBE020FEF761FB0020FEF7C5
:105110005EFBF320FEF75BFB0020FEF758FBE2206E
:10512000FEF752FB0520FEF752FB0020FEF74FFB77
:105130000B20FEF74CFB0020FEF749FB1B20FEF77F
:1051400046FB0020FEF743FB3420FEF740FB002027
:10515000FEF73DFB4420FEF73AFB0020FEF737FB4D
:105160004F20FEF734FB0020FEF731FB6120FEF7F5
:105170002EFB0020FEF72BFB7920FEF728FB0020FA
:10518000FEF725FB8820FEF722FB0020FEF71FFB21
:105190009720FEF71CFB0020FEF719FBA620FEF768
:1051A00016FB0020FEF713FBB720FEF710FB0020D4
:1051B000FEF70DFBC220FEF70AFB0020FEF707FBFF
:1051C000C720FEF704FB0020FEF701FBD120FEF70D
:1051D000FEFA0020FEF7FBFAD620FEF7F8FA0020D0
:1051E000FEF7F5FADD20FEF7F2FA0020FEF7EFFAFF
:1051F000F320FEF7ECFA0020FEF7E9FAE320FEF7D1
:10520000E3FA0520FEF7E3FA0020FEF7E0FA0A20B1
:10521000FEF7DDFA0020FEF7DAFA1C20FEF7D7FAD7
:105220000020FEF7D4FA3320FEF7D1FA0020FEF773
:10523000CEFA4420FEF7CBFA0020FEF7C8FA502041
:10524000FEF7C5FA0020FEF7C2FA6220FEF7BFFAA9
:105250000020FEF7BCFA7820FEF7B9FA0020FEF72E
:10526000B6FA8820FEF7B3FA0020FEF7B0FA9720CE
:10527000FEF7ADFA0020FEF7AAFAA620FEF7A7FA7D
:105280000020FEF7A4FAB720FEF7A1FA0020FEF7EF
:105290009EFAC220FEF79BFA0020FEF798FAC7207C
:1052A000FEF795FA0020FEF792FAD120FEF78FFA6A
:1052B0000020FEF78CFAD520FEF789FA0020FEF7D1
:1052C00086FADD20FEF783FA0020FEF780FAF3204D
:1052D000FEF77DFA0020FEF77AFAE420FEF774FA72
:1052E0000120FEF774FA0020FEF771FA0120FEF7A4
:1052F0006EFA0020FEF76BFA0220FEF768FA002033
:10530000FEF765FA2A20FEF762FA0020FEF75FFA40
:105310003C20FEF75CFA0020FEF759FA4B20FEF71E
:1053200056FA0020FEF753FA5D20FEF750FA0020EF
:10533000FEF74DFA7420FEF74AFA0020FEF747FA0E
:105340008420FEF744FA0020FEF741FA9320FEF78E
:105350003EFA0020FEF73BFAA220FEF738FA0020C2
:10536000FEF735FAB320FEF732FA0020FEF72FFAE7
:10537000BE20FEF72CFA0020FEF729FAC420FEF723
:1053800026FA0020FEF723FACD20FEF720FA0020AF
:10539000FEF71DFAD320FEF71AFA0020FEF717FADF
:1053A000DD20FEF714FA0020FEF711FAF320FEF7D5
:1053B0000EFA0020FEF70BFAE520FEF705FA0020B2
:1053C000FEF705FA0020FEF702FA0020FEF7FFF9CB
:1053D0000020FEF7FCF90220FEF7F9F90020FEF7A5
:1053E000F6F92920FEF7F3F90020FEF7F0F93C204A
:1053F000FEF7EDF90020FEF7EAF94B20FEF7E7F99A
:105400000020FEF7E4F95D20FEF7E1F90020FEF749
:10541000DEF97420FEF7DBF90020FEF7D8F98420CE
:10542000FEF7D5F90020FEF7D2F99320FEF7CFF969
:105430000020FEF7CCF9A220FEF7C9F90020FEF704
:10544000C6F9B320FEF7C3F90020FEF7C0F9BE206D
:10545000FEF7BDF90020FEF7BAF9C420FEF7B7F950
:105460000020FEF7B4F9CD20FEF7B1F90020FEF7D9
:10547000AEF9D320FEF7ABF90020FEF7A8F9DC2047
:10548000FEF7A5F90020FEF7A2F9F320FEF79FF939
:105490000020FEF79CF9E620FEF796F91120FEF7B2
:1054A00096F90020FEF793F93420FEF790F90020DA
:1054B000FEF78DF95620FEF78AF90020FEF787F9EE
:1054C0007620FEF784F90020FEF781F97720FEF7B9
:1054D0007EF90020FEF77BF96620FEF778F90020C0
:1054E000FEF775F98820FEF772F90020FEF76FF9D4
:1054F0009920FEF76CF90020FEF769F9BB20FEF752
:1055000066F90020FEF763F99920FEF760F90020A4
:10551000FEF75DF96620FEF75AF90020FEF757F90D
:105520005520FEF754F90020FEF751F95520FEF7FB
:105530004EF90020FEF74BF94520FEF748F9002010
:10554000FEF745F94320FEF742F90020FEF73FF948
:105550004420FEF73CF90020FEF739F9E720FEF77A
:1055600033F93220FEF733F90020FEF730F95520E9
:10557000FEF72DF90020FEF72AF97620FEF727F92D
:105580000020FEF724F96620FEF721F90020FEF73F
:105590001EF96720FEF71BF90020FEF718F96720B7
:1055A000FEF715F90020FEF712F98720FEF70FF934
:1055B0000020FEF70CF99920FEF709F90020FEF70C
:1055C00006F9BB20FEF703F90020FEF700F9992049
:1055D000FEF7FDF80020FEF7FAF87720FEF7F7F85F
:1055E0000020FEF7F4F84420FEF7F1F80020FEF763
:1055F000EEF85620FEF7EBF80020FEF7E8F823203F
:10560000FEF7E5F80020FEF7E2F83320FEF7DFF8BA
:105610000020FEF7DCF84520FEF7D9F80020FEF761
:10562000D6F8E820FEF7D0F80020FEF7D0F80020EA
:10563000FEF7CDF89920FEF7CAF80020FEF7C7F86C
:105640008720FEF7C4F80020FEF7C1F88820FEF797
:10565000BEF80020FEF7BBF87720FEF7B8F8002070
:10566000FEF7B5F86620FEF7B2F80020FEF7AFF8B7
:105670008820FEF7ACF80020FEF7A9F8AA20FEF774
:10568000A6F80020FEF7A3F8BB20FEF7A0F8002044
:10569000FEF79DF89920FEF79AF80020FEF797F89C
:1056A0006620FEF794F80020FEF791F85520FEF7EB
:1056B0008EF80020FEF78BF85520FEF788F80020C2
:1056C000FEF785F84420FEF782F80020FEF77FF809
:1056D0004420FEF77CF80020FEF779F85520FEF70D
:1056E00076F80020FEF773F8E920FEF76DF8AA209F
:1056F000FEF76DF80020FEF76AF80020FEF767F865
:105700000020FEF764F80020FEF75EF8AA20FEF7FE
:105710005EF8CF20FEF758F80020FEF758F800207A
:10572000FEF755F80020FEF752F80020FEF74FF87C
:105730000020FEF74CF80020FEF749F80020FEF7A5
:1057400046F80020FEF743F80020FEF740F800205E
:10575000FEF73DF80020FEF73AF80020FEF737F894
:105760000020FEF734F80020FEF731F80020FEF7A5
:105770002EF80020FEF72BF80020FEF728F8F02086
:10578000FEF722F80020FEF722F85020FEF71FF85F
:105790000020FEF71CF80020FEF719F80020FEF7A5
:1057A00016F8F320FEF710F80020FEF710F8F920A5
:1057B000FEF70AF80620FEF70AF81020FEF707F8B1
:1057C0002920FEF704F80020FEF701F83A20FDF743
:1057D000FBFF5520FDF7FBFF1120FDF7F5FF6420CF
:1057E00002F0F0FC2920FDF7EFFF3520FDF7ECFF7C
:1057F0000020FDF7ECFF5120FDF7E6FFFF20FDF74D
:10580000E6FF5320FDF7E0FF2C20FDF7E0FF5520D9
:10581000FDF7DAFF8220FDF7DAFF2C20FDF7D4FF39
:1058200002F0E6B8FE488088A0F5AA4110397DD183
:1058300055214FF47040FDF7D2FFAA214FF201002D
:10584000FDF7CDFF52214FF20200FDF7C8FF0821FE
:105850004FF20300FDF7C3FF01214FF20400FDF7F3
:10586000BEFF0D214FF43040FDF7B9FF0D214BF283
:105870000100FDF7B4FF0D214BF20200FDF7AFFF71
:1058800034214FF43640FDF7AAFF34214BF201607A
:10589000FDF7A5FF34214BF20260FDF7A0FF0D21BB
:1058A0004FF43140FDF79BFF0D214BF20110FDF746
:1058B00096FF0D214BF20210FDF791FF34214FF4BA
:1058C0003740FDF78CFF34214BF20170FDF787FF65
:1058D00034214BF20270FDF782FF00214FF4324079
:1058E000FDF77DFF00214BF20120FDF778FF00213D
:1058F0004BF20220FDF773FF24214FF43840FDF7EF
:105900006EFF24214BF60100FDF769FF24214BF6C1
:105910000200FDF764FF01214FF43F40FDF75FFFF8
:105920000F214FF43340FDF75AFF00E0FDE30F2154
:105930004BF20130FDF753FF0F214BF20230FDF720
:105940004EFF34214FF43940FDF749FF34214BF627
:105950000110FDF744FF34214BF60210FDF73FFF25
:1059600008214FF43540FDF73AFF08214BF2015072
:10597000FDF735FF08214BF20250FDF730FF032100
:105980004FF44240FDF72BFF24214FF43A40FDF73E
:1059900026FF24214BF60120FDF721FF24214BF6A1
:1059A0000220FDF71CFF00214FF43C40FDF717FFDC
:1059B00078214BF60140FDF712FF00214BF6024023
:1059C000FDF70DFF00214FF43D40FDF708FF782162
:1059D0004BF60150FDF703FF00214BF60250FDF797
:1059E000FEFE00214FF43E40FDF7F9FE64214BF628
:1059F0000160FDF7F4FE00214FF45140FDF7EFFE8A
:105A000033214DF20110FDF7EAFE00214DF20210A4
:105A1000FDF7E5FE34214DF20310FDF7E0FE002115
:105A20004DF20410FDF7DBFE3A214DF20510FDF7B3
:105A3000D6FE00214DF20610FDF7D1FE4A214DF2AF
:105A40000710FDF7CCFE00214DF20810FDF7C7FE50
:105A50005C214DF20910FDF7C2FE00214DF20A1043
:105A6000FDF7BDFE81214DF20B10FDF7B8FE0021C0
:105A70004DF20C10FDF7B3FEA6214DF20D10FDF70F
:105A8000AEFE00214DF20E10FDF7A9FEE5214DF20C
:105A90000F10FDF7A4FE01214DF21010FDF79FFE3F
:105AA00013214DF21110FDF79AFE01214DF2121053
:105AB000FDF795FE54214DF21310FDF790FE0121E4
:105AC0004DF21410FDF78BFE82214DF21510FDF7FB
:105AD00086FE01214DF21610FDF781FECA214DF21E
:105AE0001710FDF77CFE02214DF21810FDF777FE2E
:105AF00000214DF21910FDF772FE02214DF21A102D
:105B0000FDF76DFE01214DF21B10FDF768FE02212D
:105B10004DF21C10FDF763FE34214DF21D10FDF710
:105B20005EFE02214DF21E10FDF759FE67214DF277
:105B30001F10FDF754FE02214DF22010FDF74FFE1D
:105B400084214DF22110FDF74AFE02214DF2221070
:105B5000FDF745FEA4214DF22310FDF740FE022182
:105B60004DF22410FDF73BFEB7214DF22510FDF755
:105B700036FE02214DF22610FDF731FECF214DF207
:105B80002710FDF72CFE02214DF22810FDF727FE0D
:105B9000DE214DF22910FDF722FE02214DF22A10DE
:105BA000FDF71DFEF2214DF22B10FDF718FE02212C
:105BB0004DF22C10FDF713FEFE214DF22D10FDF7D6
:105BC0000EFE03214DF22E10FDF709FE10214DF2BD
:105BD0002F10FDF704FE03214DF23010FDF7FFFDFD
:105BE00033214DF23110FDF7FAFD03214DF2321051
:105BF000FDF7F5FD6D214DF23310FDF7F0FD0021AD
:105C00004FF45240FDF7EBFD33214DF20120FDF73B
:105C1000E6FD00214DF20220FDF7E1FD342101E017
:105C2000B40100204DF20320FDF7D9FD00214DF213
:105C30000420FDF7D4FD3A214DF20520FDF7CFFDFC
:105C400000214DF20620FDF7CAFD4A214DF2072042
:105C5000FDF7C5FD00214DF20820FDF7C0FD5C21D8
:105C60004DF20920FDF7BBFD00214DF20A20FDF7A2
:105C7000B6FD81214DF20B20FDF7B1FD00214DF263
:105C80000C20FDF7ACFDA6214DF20D20FDF7A7FD80
:105C900000214DF20E20FDF7A2FDE5214DF20F206F
:105CA000FDF79DFD01214DF21020FDF798FD132118
:105CB0004DF21120FDF793FD01214DF21220FDF769
:105CC0008EFD54214DF21320FDF789FD01214DF287
:105CD0001420FDF784FD82214DF21520FDF77FFD94
:105CE00001214DF21620FDF77AFDCA214DF2172051
:105CF000FDF775FD02214DF21820FDF770FD002122
:105D00004DF21920FDF76BFD02214DF21A20FDF72F
:105D100066FD01214DF21B20FDF761FD02214DF2D0
:105D20001C20FDF75CFD34214DF21D20FDF757FDD1
:105D300002214DF21E20FDF752FD67214DF21F207A
:105D4000FDF74DFD02214DF22020FDF748FD842195
:105D50004DF22120FDF743FD02214DF22220FDF7F7
:105D60003EFDA4214DF22320FDF739FD02214DF225
:105D70002420FDF734FDB7214DF22520FDF72FFD3E
:105D800002214DF22620FDF72AFDCF214DF22720DA
:105D9000FDF725FD02214DF22820FDF720FDDE2133
:105DA0004DF22920FDF71BFD02214DF22A20FDF7BF
:105DB00016FDF2214DF22B20FDF711FD02214DF2CF
:105DC0002C20FDF70CFDFE214DF22D20FDF707FDE7
:105DD00003214DF22E20FDF702FD10214DF22F2060
:105DE000FDF7FDFC03214DF23020FDF7F8FC3321D7
:105DF0004DF23120FDF7F3FC03214DF23220FDF787
:105E0000EEFC6D214DF23320FDF7E9FC00214FF44B
:105E10005340FDF7E4FC33214DF20130FDF7DFFC88
:105E200000214DF20230FDF7DAFC34214DF203304F
:105E3000FDF7D5FC00214DF20430FDF7D0FC3A21EE
:105E40004DF20530FDF7CBFC00214DF20630FDF799
:105E5000C6FC4A214DF20730FDF7C1FC00214DF28E
:105E60000830FDF7BCFC5C214DF20930FDF7B7FCB2
:105E700000214DF20A30FDF7B2FC81214DF20B30CA
:105E8000FDF7ADFC00214DF20C30FDF7A8FCA6217A
:105E90004DF20D30FDF7A3FC00214DF20E30FDF761
:105EA0009EFCE5214DF20F30FDF799FC01214DF2EA
:105EB0001030FDF794FC13214DF21130FDF78FFCEB
:105EC00001214DF21230FDF78AFC54214DF21330BE
:105ED000FDF785FC01214DF21430FDF780FC822195
:105EE0004DF21530FDF77BFC01214DF21630FDF728
:105EF00076FCCA214DF21730FDF771FC02214DF2FC
:105F00001830FDF76CFC00214DF21930FDF767FCED
:105F100002214DF21A30FDF762FC01214DF21B30D7
:105F2000FDF75DFC02214DF21C30FDF758FC3421D9
:105F30004DF21D30FDF753FC02214DF21E30FDF7EE
:105F40004EFC67214DF21F30FDF749FC02214DF256
:105F50002030FDF744FC84214DF22130FDF73FFC59
:105F600002214DF22230FDF73AFCA4214DF22330FC
:105F7000FDF735FC02214DF22430FDF730FCB7214E
:105F80004DF22530FDF72BFC02214DF22630FDF7B6
:105F900026FCCF214DF22730FDF721FC02214DF2E6
:105FA0002830FDF71CFCDE214DF22930FDF717FCEF
:105FB00002214DF22A30FDF712FCF2214DF22B3076
:105FC000FDF70DFC02214DF22C30FDF708FCFE21FF
:105FD0004DF22D30FDF703FC03214DF22E30FDF77D
:105FE000FEFB10214DF22F30FDF7F9FB03214DF29E
:105FF0003030FDF7F4FB33214DF23130FDF7EFFB8C
:1060000003214DF23230FDF7EAFB6D214DF23330C2
:10601000FDF7E5FB00214FF45440FDF7E0FB332191
:106020004DF20140FDF7DBFB00214DF20240FDF790
:10603000D6FB34214DF20340FDF7D1FB00214DF298
:106040000440FDF7CCFB3A214DF20540FDF7C7FBBC
:1060500000214DF20640FDF7C2FB4A214DF20740F8
:10606000FDF7BDFB00214DF20840FDF7B8FB5C21B8
:106070004DF20940FDF7B3FB00214DF20A40FDF758
:10608000AEFB81214DF20B40FDF7A9FB00214DF243
:106090000C40FDF7A4FBA6214DF20D40FDF79FFB40
:1060A00000214DF20E40FDF79AFBE5214DF20F4025
:1060B000FDF795FB01214DF21040FDF790FB1321F8
:1060C0004DF21140FDF78BFB01214DF21240FDF71F
:1060D00086FB54214DF21340FDF781FB01214DF267
:1060E0001440FDF77CFB82214DF21540FDF777FB54
:1060F00001214DF21640FDF772FBCA214DF2174007
:10610000FDF76DFB02214DF21840FDF768FB002101
:106110004DF21940FDF763FB02214DF21A40FDF7E5
:106120005EFB01214DF21B4000E006E3FDF757FB4B
:1061300002214DF21C40FDF752FB34214DF21D406F
:10614000FDF74DFB02214DF21E40FDF748FB672194
:106150004DF21F40FDF743FB02214DF22040FDF7B9
:106160003EFB84214DF22140FDF739FB02214DF227
:106170002240FDF734FBA4214DF22340FDF72FFB15
:1061800002214DF22440FDF72AFBB7214DF22540B4
:10619000FDF725FB02214DF22640FDF720FBCF2124
:1061A0004DF22740FDF71BFB02214DF22840FDF781
:1061B00016FBDE214DF22940FDF711FB02214DF2C5
:1061C0002A40FDF70CFBF2214DF22B40FDF707FBB7
:1061D00002214DF22C40FDF702FBFE214DF22D4035
:1061E000FDF7FDFA03214DF22E40FDF7F8FA1021DC
:1061F0004DF22F40FDF7F3FA03214DF23040FDF749
:10620000EEFA33214DF23140FDF7E9FA03214DF268
:106210003240FDF7E4FA6D214DF23340FDF7DFFA2D
:1062200000214FF45540FDF7DAFA33214DF20150C9
:10623000FDF7D5FA00214DF20250FDF7D0FA3421D6
:106240004DF20350FDF7CBFA00214DF20450FDF75B
:10625000C6FA3A214DF20550FDF7C1FA00214DF280
:106260000650FDF7BCFA4A214DF20750FDF7B7FA88
:1062700000214DF20850FDF7B2FA5C214DF20950B1
:10628000FDF7ADFA00214DF20A50FDF7A8FA812181
:106290004DF20B50FDF7A3FA00214DF20C50FDF723
:1062A0009EFAA6214DF20D50FDF799FA00214DF20C
:1062B0000E50FDF794FAE5214DF20F50FDF78FFADD
:1062C00001214DF21050FDF78AFA13214DF21150C1
:1062D000FDF785FA01214DF21250FDF780FA5421A5
:1062E0004DF21350FDF77BFA01214DF21450FDF7EA
:1062F00076FA82214DF21550FDF771FA01214DF227
:106300001650FDF76CFACA214DF21750FDF767FAE7
:1063100002214DF21850FDF762FA00214DF219509A
:10632000FDF75DFA02214DF21A50FDF758FA0121EE
:106330004DF21B50FDF753FA02214DF21C50FDF7B0
:106340004EFA34214DF21D50FDF749FA02214DF26B
:106350001E50FDF744FA67214DF21F50FDF73FFA3A
:1063600002214DF22050FDF73AFA84214DF22150DE
:10637000FDF735FA02214DF22250FDF730FAA42143
:106380004DF22350FDF72BFA02214DF22450FDF778
:1063900026FAB7214DF22550FDF721FA02214DF2E0
:1063A0002650FDF71CFACF214DF22750FDF717FAC2
:1063B00002214DF22850FDF712FADE214DF229504C
:1063C000FDF70DFA02214DF22A50FDF708FAF221ED
:1063D0004DF22B50FDF703FA02214DF22C50FDF740
:1063E000FEF9FE214DF22D50FDF7F9F903214DF292
:1063F0002E50FDF7F4F910214DF22F50FDF7EFF973
:1064000003214DF23050FDF7EAF933214DF23150BE
:10641000FDF7E5F903214DF23250FDF7E0F96D216A
:106420004DF23350FDF7DBF900214FF45640FDF7F4
:10643000D6F933214DF20160FDF7D1F900214DF27B
:106440000260FDF7CCF934214DF20360FDF7C7F986
:1064500000214DF20460FDF7C2F93A214DF20560CA
:10646000FDF7BDF900214DF20660FDF7B8F94A21AC
:106470004DF20760FDF7B3F900214DF20860FDF71A
:10648000AEF95C214DF20960FDF7A9F900214DF24A
:106490000A60FDF7A4F981214DF20B60FDF79FF929
:1064A00000214DF20C60FDF79AF9A6214DF20D6026
:1064B000FDF795F900214DF20E60FDF790F9E52109
:1064C0004DF20F60FDF78BF901214DF21060FDF7E1
:1064D00086F913214DF21160FDF781F901214DF28A
:1064E0001260FDF77CF954214DF21360FDF777F946
:1064F00001214DF21460FDF772F982214DF2156011
:10650000FDF76DF901214DF21660FDF768F9CA211A
:106510004DF21760FDF763F902214DF21860FDF7A7
:106520005EF900214DF21960FDF759F902214DF293
:106530001A60FDF754F901214DF21B60FDF74FF988
:1065400002214DF21C60FDF74AF934214DF21D6025
:10655000FDF745F902214DF21E60FDF740F9672174
:106560004DF21F60FDF73BF902214DF22060FDF76F
:1065700036F984214DF22160FDF731F902214DF207
:106580002260FDF72CF9A4214DF22360FDF727F9D5
:1065900002214DF22460FDF722F9B7214DF225606A
:1065A000FDF71DF902214DF22660FDF718F9CF2104
:1065B0004DF22760FDF713F902214DF22860FDF737
:1065C0000EF9DE214DF22960FDF709F902214DF2A5
:1065D0002A60FDF704F9F2214DF22B60FDF7FFF878
:1065E00002214DF22C60FDF7FAF8FE214DF22D60EC
:1065F000FDF7F5F803214DF22E60FDF7F0F81021BC
:106600004DF22F60FDF7EBF803214DF23060FDF7FE
:10661000E6F833214DF23160FDF7E1F803214DF248
:106620003260FDF7DCF86D214DF23360FDF7D7F8ED
:1066300055214FF47040FDF7D2F8AA214FF2010026
:10664000FDF7CDF852214FF20200FDF7C8F80821FE
:106650004FF20300FDF7C3F800214FF20400FDF7ED
:10666000BEF8CC214FF43140FDF7B9F800214BF2D0
:106670000110FDF7B4F805214FF43640FDF7AFF8EF
:1066800070214FF43740FDF7AAF870214BF20170EA
:10669000FDF7A5F801214FF43840FDF7A0F80321DC
:1066A0004BF60100FDF79BF803214BF60200FDF7C6
:1066B00096F803214BF60300FDF791F802214FF401
:1066C0003C40FDF78CF800214BF60140FDF787F8C0
:1066D00000214BF60240FDF782F8D0214FF44940EB
:1066E000FDF77DF802214CF60110FDF778F85021F6
:1066F0004CF60210FDF773F850214CF60310FDF72D
:106700006EF850214CF60410FDF769F800214FF4A3
:106710005450FDF764F855214FF46850FDF75FF8C9
:106720004FF48850FDF750F8782001F028FD4FF421
:106730002450FDF749F801F05BB9FE488088A0F5C8
:10674000134125397ED147F6F001E520FDF747F8E2
:106750004FF480710120FDF742F84FF4E061022010
:10676000FDF73DF841F230010320FDF738F8002134
:106770000420FDF734F840F202210820FDF72FF83D
:1067800000210920FDF72BF800210A20FDF727F84A
:1067900000210C20FDF723F800210D20FDF71FF844
:1067A00000210F20FDF71BF800211020FDF717F83E
:1067B00007211120FDF713F800211220FDF70FF833
:1067C00000211320FDF70BF800210720FDF707F843
:1067D00041F290611020FDF702F840F227211120CC
:1067E000FCF7FDFF9D211220FCF7F9FF4FF4C85183
:1067F0001320FCF7F4FF25212920FCF7F0FF0D21E1
:106800002B20FCF7ECFF07213020FCF7E8FF40F2DB
:1068100003313120FCF7E3FF03213220FCF7DFFFD7
:1068200040F206213520FCF7DAFF08213620FCF77C
:10683000D6FF40F206413720FCF7D1FF4FF44171FB
:10684000382000E057E0FCF7CAFF07213920FCF7A9
:10685000C6FF40F202613C20FCF7C1FF08213D2049
:10686000FCF7BDFF00215020FCF7B9FFEF215120BC
:10687000FCF7B5FF00215220FCF7B1FF40F23F11B9
:106880005320FCF7ACFF4FF427416020FCF7A7FF33
:1068900001216120FCF7A3FF00216A20FCF79FFF84
:1068A00000218020FCF79BFF00218120FCF797FF4F
:1068B00000218220FCF793FF00218320FCF78FFF4B
:1068C00000218420FCF78BFF00218520FCF787FF47
:1068D00010219020FCF783FF4FF4C0619220FCF759
:1068E0007EFF40F233110720FCF779FF22210020C0
:1068F000FCF775FF1FE78F488088A0F51341283902
:106900007ED141F28F01EC20FCF769FF41F2342186
:10691000EF20FCF764FF4FF480710120FCF75FFF6C
:106920004FF4E0610220FCF75AFF41F230010320EE
:10693000FCF755FF00210420FCF751FF40F2022133
:106940000820FCF74CFF00210920FCF748FF00213C
:106950000A20FCF744FF01210C20FCF740FF002136
:106960000D20FCF73CFF00210F20FCF738FF002131
:106970001020FCF734FF07211120FCF730FF002125
:106980001220FCF72CFF00211320FCF728FF012127
:106990000720FCF724FF322001F014FC41F2904163
:1069A0001020FCF71CFF40F227211120FCF717FFF5
:1069B000322001F007FC8A211220FCF710FF322060
:1069C00001F000FC4FF4D0511320FCF708FF062122
:1069D0002920FCF704FF0D212B20FCF700FF3220BB
:1069E00001F0F0FB00212020FCF7F9FE002121201E
:1069F000FCF7F5FE322001F0E5FB0021302000E03D
:106A000074E0FCF7ECFE40F204613120FCF7E7FE95
:106A100040F205313220FCF7E2FE00213520FCF780
:106A2000DEFE40F609413620FCF7D9FE4FF4017135
:106A30003720FCF7D4FE40F201313820FCF7CFFEBE
:106A400040F207713920FCF7CAFE00213C20FCF718
:106A5000C6FE40F60A213D20FCF7C1FE322001F0BF
:106A6000B1FB00215020FCF7BAFEEF215120FCF7CA
:106A7000B6FE00215220FCF7B2FE40F23F11532037
:106A8000FCF7ADFE4FF427416020FCF7A8FE012182
:106A90006120FCF7A4FE00216A20FCF7A0FE002183
:106AA0008020FCF79CFE00218120FCF798FE00214D
:106AB0008220FCF794FE00218320FCF790FE002149
:106AC0008420FCF78CFE00218520FCF788FE102135
:106AD0009020FCF784FE4FF4C0619220FCF77FFE0B
:106AE00040F233110720FCF77AFE24E61148808833
:106AF000A0F5134120397DD10846FCF770FE4FF414
:106B000080710120FCF76BFE4FF4E0610220FCF77E
:106B100066FE41F230010320FCF761FE00210420F3
:106B2000FCF75DFE40F202210820FCF758FE002130
:106B3000092001E0B4010020FCF751FE00210A20E9
:106B4000FCF74DFE01210C20FCF749FE00210D2031
:106B5000FCF745FE00210F20FCF741FE322001F03A
:106B600031FB40F201110720FCF739FE322001F021
:106B700029FB4FF486511020FCF731FE072111202C
:106B8000FCF72DFE4FF488711220FCF728FE4FF41D
:106B900030611320FCF723FE00212920FCF71FFEA3
:106BA00044F210012B20FCF71AFE00215020FCF7C4
:106BB00016FEEF215120FCF712FE00215220FCF7B7
:106BC0000EFE40F23F115320FCF709FE4FF41C511A
:106BD0006020FCF704FE01216120FCF700FE00218B
:106BE0006A20FCF7FCFD00218020FCF7F8FD002165
:106BF000812000E030E0FCF7F2FD00218220FCF76C
:106C0000EEFD00218320FCF7EAFD00218420FCF743
:106C1000E6FD00218520FCF7E2FD10219020FCF725
:106C2000DEFD00219220FCF7DAFD01219320FCF724
:106C3000D6FD4FF488719520FCF7D1FD00219720F7
:106C4000FCF7CDFD00219820FCF7C9FD40F273113F
:106C50000720FCF7C4FD6EE5FE488088A0F51341CF
:106C600031397DD141F21401E720FCF7B8FD4FF432
:106C700080710120FCF7B3FD4FF400710220FCF796
:106C8000AEFD41F238010320FCF7A9FD40F20221DC
:106C90000820FCF7A4FD00210920FCF7A0FD00213D
:106CA0000A20FCF79CFD00210C20FCF798FD002138
:106CB0000D20FCF794FD00210F20FCF790FD002132
:106CC0001020FCF78CFD07211120FCF788FD002126
:106CD0001220FCF784FD00211320FCF780FDC82062
:106CE00001F070FA41F290611020FCF778FD40F25B
:106CF00027211120FCF773FD322001F063FA0C21EB
:106D00001220FCF76CFD322001F05CFA4FF40061B8
:106D10001320FCF764FD11212920FCF760FD0B21F5
:106D20002B20FCF75CFD322001F04CFA00212020E2
:106D3000FCF755FD40F23F112120FCF750FD0021EA
:106D40003020FCF74CFD4FF483713120FCF747FDF8
:106D500000213220FCF743FD4FF40171352000E0A3
:106D600064E0FCF73CFD41F20A613620FCF737FD98
:106D700040F207713720FCF732FD4FF48371382061
:106D8000FCF72DFD40F207713920FCF728FD40F299
:106D900002413C20FCF723FD40F60F413D20FCF76B
:106DA0001EFD00215020FCF71AFDEF215120FCF7B9
:106DB00016FD00215220FCF712FD40F23F11532036
:106DC000FCF70DFD4FF41C516020FCF708FD01217C
:106DD0006120FCF704FD00216A20FCF700FD002182
:106DE0008020FCF7FCFC00218120FCF7F8FC00214E
:106DF0008220FCF7F4FC00218320FCF7F0FC00214A
:106E00008420FCF7ECFC00218520FCF7E8FC102135
:106E10009020FCF7E4FC4FF4C0619220FCF7DFFC0B
:106E200040F233110720FCF7DAFC84E489488088BB
:106E3000A0F5A84108397DD14FF480710120FCF7FD
:106E4000CEFC4FF4E0610220FCF7C9FC41F23001B6
:106E50000320FCF7C4FC00210420FCF7C0FC40F236
:106E600007210820FCF7BBFC00210920FCF7B7FC38
:106E700000210A20FCF7B3FC00210C20FCF7AFFC3A
:106E800000210D20FCF7ABFC00210F20FCF7A7FC34
:106E9000142001F097F941F2B0611020FCF79FFC3B
:106EA00001211120FCF79BFC01211720FCF797FC26
:106EB0004FF49C711220FCF792FC4FF400611320F8
:106EC000FCF78DFC09212920FCF789FC09212A20E7
:106ED000FCF785FC0021A420FCF781FC0021502058
:106EE000FCF77DFCEF215120FCF779FC00215220BA
:106EF000FCF775FC40F23F115320FCF770FC4FF497
:106F00001C516020FCF76BFC01216120FCF767FC41
:106F100000216A20FCF763FC00218020FCF75FFC65
:106F200000218120FCF75BFC00218220FCF757FC4C
:106F3000002100E024E08320FCF751FC00218420A4
:106F4000FCF74DFC00218520FCF749FC1321902023
:106F5000FCF745FC00219220FCF741FC0321932023
:106F6000FCF73DFC4FF488719520FCF738FC40F2AB
:106F700073110720FCF733FC322001F023F9B9E448
:106F800034488088A0F5A851053965D10720FCF761
:106F900026FC322001F016F94FF48E711220FCF716
:106FA0001EFC0121A420FCF71AFC0F210820FCF78D
:106FB00016FC08210A20FCF712FC08210D20FCF722
:106FC0000EFC40F207713020FCF709FC072131204C
:106FD000FCF705FC40F203613220FCF700FC4FF4A3
:106FE000E0613320FCF7FBFB40F202213420FCF788
:106FF000F6FB02213520FCF7F2FB41F60F7136203B
:10700000FCF7EDFB40F207713720FCF7E8FB0021AD
:107010003820FCF7E4FB00213920FCF7E0FB40F2CC
:1070200007713A20FCF7DBFB00213B20FCF7D7FB84
:1070300007213C20FCF7D3FB00213D20FCF7CFFBD0
:10704000322001F0BFF801210720FCF7C8FB012125
:10705000172002E0B4010020AEE0FCF7C0FB3220B4
:1070600001F0B0F84FF4BD511020FCF7B8FB40F22E
:1070700017211120FCF7B3FB4FF48F711220FCF79E
:10708000AEFB4FF470611320FCF7A9FB00212A200E
:10709000FCF7A5FB0A212920FCF7A1FB4FF49F7107
:1070A0001220FCF79CFB00215020FCF798FBEF21FD
:1070B0005120FCF794FB00215220FCF790FB40F29A
:1070C0003F115320FCF78BFB4FF41C516020FCF761
:1070D00086FB01216120FCF782FB00216A20FCF77E
:1070E0007EFB00218020FCF77AFB00218120FCF749
:1070F00076FB00218220FCF772FB00218320FCF745
:107100006EFB00218420FCF76AFB00218520FCF740
:1071100066FB13219020FCF762FB4FF44071922034
:10712000FCF75DFB05219320FCF759FB002195201E
:10713000FCF755FB00219720FCF751FB002198201C
:10714000FCF74DFB4FF480710120FCF748FB4FF436
:10715000E0610220FCF743FB41F238010320FCF719
:107160003EFB00210420FCF73AFB00210C20FCF739
:1071700036FB00210F20FCF732FB00212020FCF71A
:107180002EFB00212120FCF72AFB21210720FCF700
:1071900026FB142001F016F861210720FCF71FFBE5
:1071A000142001F00FF840F273110720FCF717FBD1
:1071B000142001F007F898E4FE488088A0F53541D6
:1071C00005397DD10846FCF70AFB00210846FCF78B
:1071D00006FB00210846FCF702FB00210846FCF7ED
:1071E000FEFA0121A420FCF7FAFA142000F0EAFFCD
:1071F0004FF41C516020FCF7F2FA40F20221082003
:10720000FCF7EDFA4FF405713020FCF7E8FA43F291
:1072100015713120FCF7E3FA40F204613220FCF7EB
:10722000DEFA40F616613320FCF7D9FA42F211215A
:107230003420FCF7D4FA4FF4A8513520FCF7CFFAEC
:1072400048F207513620FCF7CAFA41F207413720CD
:10725000FCF7C5FA41F203413820FCF7C0FA2021BF
:107260003920FCF7BCFA1A219020FCF7B8FA00216B
:107270001020FCF7B4FA07211120FCF7B0FA002126
:107280001220FCF7ACFA00211320FCF7A8FA142016
:1072900000F098FF4FF4E6611020FCF7A0FA40F2EE
:1072A00037111120FCF79BFA142000F08BFF4FF4EC
:1072B000DC711220FCF793FA142000F083FF00E049
:1072C00083E04FF470611320FCF789FA80212A20B3
:1072D000FCF785FA48212920FCF781FA142000F0F8
:1072E00071FF4FF480710120FCF779FA4FF4E061EF
:1072F0000220FCF774FA41F238010320FCF76FFA20
:1073000040F202210820FCF76AFA00210A20FCF76B
:1073100066FA00210C20FCF762FA00210D20FCF730
:107320005EFA30210E20FCF75AFA00215020FCF7BB
:1073300056FAEF215120FCF752FA00215220FCF7B7
:107340004EFA40F23F115320FCF749FA4FF41C511A
:107350006020FCF744FA01216120FCF740FA00218B
:107360006A20FCF73CFA11219020FCF738FA4FF420
:10737000C0619220FCF733FA40F202419320FCF7FF
:107380002EFA02219420FCF72AFA142000F01AFFAA
:1073900001210720FCF723FA142000F013FF6121DC
:1073A0000720FCF71CFA40F273110720FCF717FACC
:1073B00000212020FCF713FA00212120FCF70FFA0E
:1073C00022210020FCF70BFA12E37A488088A0F50E
:1073D000454105397DD10846FCF701FA00210846F0
:1073E000FCF7FDF9142000F0EDFE00210846FCF743
:1073F000F6F900210846FCF7F2F900210846FCF7EF
:10740000EEF900210846FCF7EAF90121A420FCF777
:10741000E6F9142000F0D6FE4FF41C516020FCF772
:10742000DEF940F606010820FCF7D9F940F20371B5
:107430003020FCF7D4F901213120FCF7D0F90421E8
:107440003220FCF7CCF94FF481713320FCF7C7F9F7
:107450004FF440713420FCF7C2F940F2031135209B
:10746000FCF7BDF91F213620FCF7B9F940F2037192
:107470003720FCF7B4F901213820FCF7B0F90421DA
:107480003920FCF7ACF915219020FCF7A8F94FF44E
:1074900082611020FCF7A3F940F247211120FCF78C
:1074A0009EF94FF4DE711220FCF799F94FF46061F8
:1074B0001320FCF794F9782000F084FE4FF48071DB
:1074C0000120FCF78CF94FF400710220FCF787F9DA
:1074D00000E050E041F230010320FCF780F9082180
:1074E0000A20FCF77CF900210C20FCF778F9202118
:1074F0000E20FCF774F900210F20FCF770F9002131
:107500002020FCF76CF900212120FCF768F93D21CF
:107510002A20FCF764F9142000F054FE2D212920C4
:10752000FCF75DF900215020FCF759F94DF2EF010D
:107530005120FCF754F900215220FCF750F940F299
:107540003F115320FCF74BF900216120FCF747F96C
:1075500000216A20FCF743F94FF440719220FCF7B8
:107560003EF905219320FCF73AF94FF4807107208A
:10757000FCF735F93CE20F488088A0F509418939CC
:107580007ED101210020FCF72AF94AF6A40103204C
:10759000FCF725F900210C20FCF721F940F60C013D
:1075A0000D20FCF71CF94FF42C510E20FCF717F9B5
:1075B000B02101E0B40100201E20FCF710F942F6D2
:1075C0003F310120FCF70BF94FF4C0610220FCF7BA
:1075D00006F900211020FCF702F946F2780111208B
:1075E000FCF7FDF800210520FCF7F9F80021062042
:1075F000FCF7F5F84EF61C711620FCF7F0F80321A5
:107600001720FCF7ECF840F233210720FCF7E7F8ED
:1076100000210B20FCF7E3F800210F20FCF7DFF836
:1076200000214120FCF7DBF800214220FCF7D7F8CD
:1076300000214820FCF7D3F840F23F114920FCF725
:10764000CEF800214A20FCF7CAF800214B20FCF7B5
:10765000C6F84FF46F414420FCF7C1F800214520E3
:10766000FCF7BDF840F23F114620FCF7B8F840F2B5
:1076700007713020FCF7B3F84FF40171312000E0BE
:107680003FE0FCF7ACF84FF401713220FCF7A7F8AB
:1076900040F202513320FCF7A2F840F207513420A7
:1076A000FCF79DF84FF401713520FCF798F84FF482
:1076B00001713620FCF793F840F202513720FCF7B5
:1076C0008EF840F202313A20FCF789F840F202319C
:1076D0003B20FCF784F800212320FCF780F80021F0
:1076E0002420FCF77CF84FF400412520FCF777F8C4
:1076F00000214F20FCF773F800214E20FCF76FF8B3
:1077000076E1F8488088A0F58A4131397ED101219F
:107710000020FCF764F80A2000F054FD41F22861D3
:107720001020FCF75CF80E211220FCF758F840F608
:1077300039211320FCF753F80A2000F043FD4021C3
:107740001120FCF74CF850211520FCF748F80A20CE
:1077500000F038FD1E211220FCF741F80A2000F04D
:1077600031FD4FF4B1511020FCF739F842F63921C0
:107770001320FCF734F80A2000F024FD4FF4807148
:107780000120FCF72CF84FF440710220FCF727F899
:1077900041F238010320FCF722F840F202210820D0
:1077A000FCF71DF808210A20FCF719F80021302009
:1077B000FCF715F840F202413120FCF710F84FF4C5
:1077C00083713220FCF70BF840F203513320FCF7B1
:1077D00006F84FF482713420FCF701F840F20131D1
:1077E0003520FBF7FCFF40F207713620FBF7F7FF6F
:1077F00040F205313720FBF7F2FF4FF402713820D9
:10780000FBF7EDFF40F60B71392000E03BE0FBF7A2
:10781000E6FF02214120FBF7E2FF4FF41C516020FC
:10782000FBF7DDFF01216120FBF7D9FF4FF4047165
:107830009020FBF7D4FF4FF485719220FBF7CFFF28
:1078400004219320FBF7CBFF4FF48071A020FBF7BE
:10785000C6FF01210720FBF7C2FF21210720FBF70C
:10786000BEFF23210720FBF7BAFF33210720FBF7D8
:10787000B6FF40F233110720FBF7B1FF0021A02033
:10788000FBF7ADFFB4E097488088A0F58A41353911
:10789000F8D130211520FBF7A2FF10219A20FBF729
:1078A0009EFF20211120FBF79AFF43F22841102070
:1078B000FBF795FF02211220FBF791FF41F23801FF
:1078C0001320FBF78CFF282000F07CFC12210846D7
:1078D000FBF785FF282000F075FC43F220411020C3
:1078E000FBF77DFF43F238011320FBF778FF4620BA
:1078F00000F068FC00213020FBF771FF40F20241EC
:107900003120FBF76CFF40F207313220FBF767FFB5
:107910004FF441713320FBF762FF04213420FBF761
:107920005EFF40F201413520FBF759FF40F207713D
:107930003620FBF754FF40F205313720FBF74FFFAD
:107940004FF4C2613820FBF74AFF4FF4C26139207F
:10795000FBF745FF4FF480710120FBF740FF4FF428
:1079600040710220FBF73BFF41F230010320FBF79F
:1079700036FF40F608010820FBF731FF08210A20F6
:10798000FBF72DFF4FF41C516020FBF728FF01216E
:107990006120FBF724FF4FF49F719020FBF71FFF3E
:1079A0004FF480719220FBF71AFF4FF480719320FF
:1079B000FBF715FF4FF44051A020FBF710FF1021FB
:1079C000A320FBF70CFF01210720FBF708FF212173
:1079D0000720FBF704FF23210720FBF700FF3321DB
:1079E0000720FBF7FCFE40F233110720FBF7F7FE00
:1079F0000020FCF7A7FA01203B4908604FF6FF7012
:107A0000FCF74BFC1FB000BD2DE9FC4F05460E46B0
:107A100017469846DDF82C90002001903148808868
:107A2000A0F5D041043929D12E488079012825D1EB
:107A3000AB4635462B480088C01B401E86B24746E1
:107A400028480088A0EB0B00401E1FFA80F8002099
:107A5000244988712A2048812B20888143463A4650
:107A600031462846CDF80090FFF7CEFF01201D4992
:107A700088712B2048812A2088811CE0781B401CBB
:107A800080B20190344614E021462846FBF7D4FE2C
:107A9000FBF7B5FE4FF0000A06E04846FBF797FEFD
:107AA0000AF101001FFA80FA01988245F5DB601C9B
:107AB00084B24445E8DDBDE8FC8F2DE9F84F074668
:107AC0000D4690469946DDF828B0A8EB0700401C0B
:107AD00080B20090A9EB0500401C1FFA80FA002438
:107AE0001AE00000B401002080812142281981B2EF
:107AF0003846FBF7A1FEFBF782FE002607E004FBF9
:107B00000A603BF81000FE490880701C86B200989D
:107B10008642F4DB601C84B25445E7DBBDE8F88F95
:107B20002DE9FF4F84B081468A46002003900290E1
:107B30000698A0EB09050798A0EB0A06CDF804907B
:107B4000CDF800A0002D01DD012705E00DB90027CB
:107B500002E04FF0FF376D42002E02DD4FF00108CA
:107B600006E016B94FF0000802E04FF0FF38764209
:107B7000B54201DD2C4600E034464FF0000B21E019
:107B8000009A91B2019A90B2FCF743F90398284405
:107B900003900298304402900398A04205DD0398B8
:107BA000001B03900198384401900298A04205DD23
:107BB0000298001B02900098404400900BF10100D5
:107BC0001FFA80FB601C8345DADD08B0BDE8F08F4A
:107BD000F0B504460D4616461F462B46324629464A
:107BE0002046FFF79DFF3B46224629462046FFF7E9
:107BF00097FF3B46324639462046FFF791FF3B460A
:107C0000324629463046FFF78BFFF0BD2DE9F043A1
:107C100006460F469046002445460320A0EB48093F
:107C20003CE07A1B91B2321990B2FCF7F2F83A1BA1
:107C300091B2721990B2FCF7ECF83A1991B272193C
:107C400090B2FCF7E6F87A1991B2321990B2FCF7CB
:107C5000E0F87A1991B2321B90B2FCF7DAF83A19CF
:107C600091B2721B90B2FCF7D4F87A1B91B2321B1E
:107C700090B2FCF7CEF83A1B91B2721B90B2FCF7AF
:107C8000C8F8641CB9F1000F03DAA000801D81441C
:107C900004E0601B80000A3081446D1EAC42C0DDF0
:107CA000BDE8F0832DE9F84F05460F4690461E4685
:107CB00000979448B0F80090A8F1200000F0FF0869
:107CC0000A9800284ED1002449E00C2E07D108EB79
:107CD00048008D4901EB800010F804A004E08B48B7
:107CE00000EB081010F804A04FF0000B31E01AF080
:107CF000800F03D08348A0F8009003E084480088F8
:107D00008049088039462846FCF783F84FEA4A60E4
:107D10004FEA106A781C87B27E480088A84204DCCB
:107D20007848A0F80090BDE8F88F0098381AB04263
:107D30000BD1009F681C85B276480088A84203DCFE
:107D40007048A0F80090EEE706E00BF1010000F0AB
:107D5000FF0BBBF1080FCADB00BF601CC4B2B4420A
:107D6000B3DB44E0002440E00C2E07D108EB4800D0
:107D7000654901EB800010F804A004E0634800EBC3
:107D8000081010F804A04FF0000B28E01AF0800F44
:107D900003D039462846FCF73CF84FEA4A604FEAE0
:107DA000106A781C87B25B484088A84203DC5548BB
:107DB000A0F80090B7E70098381AB0420BD1009FA6
:107DC000681C85B253480088A84203DC4D48A0F8DF
:107DD0000090A8E706E00BF1010000F0FF0BBBF1FB
:107DE000080FD3DB00BF601CC4B2B442BCDB454803
:107DF000A0F8009000BF96E710B50246012000E011
:107E000050430B00A1F10104E1B2F9D110BD2DE9FD
:107E1000FF4F81B0074691461E460E9D4FF0000A67
:107E2000002439E0301B401EC1B20A20FFF7E4FFF6
:107E3000B9FBF0F00A21B0FBF1F201FB1208BAF134
:107E4000000F16D1701EA04213DDB8F1000F0ED145
:107E50000020AB4605EBDB71491001FB047100907B
:107E600088B22B4620220299FFF71CFF12E04FF048
:107E7000010A0020AB4605EBDB71491001FB0471E0
:107E8000009088B208F13001CAB22B460299FFF780
:107E900009FF00BF601CC4B2B442C3DB05B0BDE83B
:107EA000F08F2DE9FF4F82B0064692461F46DDE96E
:107EB0000F480020019000255BE0781B401EC1B2F6
:107EC0000A20FFF799FFBAFBF0F00A21B0FBF1F2AC
:107ED00001FB12090198A8BB781EA84235DDB9F153
:107EE000000F30D118F0800F1CD008F00100A3461D
:107EF00004EBDB71491001FB0561009088B20BE0D7
:107F00000008006C16000020CBBF00083FC400082A
:107F100018000020B4010020234630220399FFF707
:107F2000C1FE0EE008F00100A34604EBDB7149102E
:107F300001FB0561009088B2234620220399FFF7D8
:107F4000B1FE14E001E00120019008F00100A34619
:107F500004EBDB71491001FB0561009088B209F167
:107F60003001CAB223460399FFF79CFE00BF681C8C
:107F7000C5B2BD42A1DB06B0BDE8F08F2DE9F847E0
:107F800004460D4690469946DDE9096704F0FF0A6C
:107F900008EB04001FFA80F809EB05001FFA80F9CE
:107FA00016E0444502DB5446A81985B24D4500DB76
:107FB00014E0002000903A78334629462046FFF727
:107FC00071FE304606EBD07104EB61018CB27F1C70
:107FD00038787E2802DC38782028E2DA00BFBDE855
:107FE000F88700000146088870472DE9F0410546F2
:107FF0000E461746002407E036F81410284600F015
:10800000AAFBAD1C601C84B2BC42F5DBBDE8F0816C
:1080100030B503460C461546002207E01846FFF728
:10802000E1FF24F812009B1C501C82B2AA42F5DB2F
:1080300030BD2DE9F05F80468A461746B8F1006FE3
:1080400002D33F48804501D3BDE8F09F00F03BFAE2
:10805000A8F1006B4FEADB25CBF34909C9F5806431
:10806000A74200DC3C464DE04FF0006101EBC5202B
:108070004A143449FFF7CCFF00260BE009EB060059
:10808000304931F81000A0F57F41FF3900D003E0FE
:10809000701C86B2A642F1DB00BFA6421BDA4FF08D
:1080A000006101EBC52000F053FA002608E03AF821
:1080B000160006EB0901234A22F81100701C86B253
:1080C000A642F4DB4FF0006101EBC5204A141D49C4
:1080D000FFF78BFF04E0224651464046FFF785FF3D
:1080E000A74200D10FE06D1C4FF000090AEB440AD3
:1080F000A044381B87B2B7F5806F02DD4FF480646F
:1081000000E03C46B0E700BF00F0E9F900BF9BE7A4
:1081100013B50446012201A92046FFF78AFF1CBDC2
:1081200001B500F0D0F9012269460748FFF781FF49
:1081300000F0D5F908BD00B50348FFF753FF00BDB7
:1081400000000808C20100200028000810B56FF0E8
:10815000040000F07BF92D4800682D49B0FBF1F0D8
:108160002C4908700846007800EB4001C1EBC010B4
:108170004FF6FF7101EAC0002749088010BD014693
:10818000244A12784A434FF0E0235A6100229A6150
:108190001A46126942F001021A6100BF4FF0E02254
:1081A000106910F0010F02D010F4803FF6D04FF0AC
:1081B000E022126922F001024FF0E0231A6100224E
:1081C0009A6170470146144A12884A434FF0E023EF
:1081D0005A6100229A611A46126942F001021A613C
:1081E00000BF4FF0E022106910F0010F02D010F430
:1081F000803FF6D04FF0E022126922F001024FF0EA
:10820000E0231A6100229A617047000000000020FC
:1082100000127A001A0000201C00002010B54FF454
:10822000A06000F0C3F810BD014600BF704700BF5A
:108230004A4A128812F0400FFAD0C2B2474B1B1DB7
:108240001A80704710B586B00446012144F204003C
:1082500001F01EFC414801F0ADF84FF40070ADF89C
:10826000140003208DF8160018208DF8170005A9BA
:108270003B4800F053FF4FF48060ADF81400042039
:108280008DF8170005A9364800F048FF25208DF825
:10829000000003208DF801008DF8020001208DF808
:1082A0000300684600F087F801940020ADF808004C
:1082B000ADF80A00ADF80C00ADF810000C20ADF8D8
:1082C0000E0001A9254801F0B8F8012240F225511D
:1082D000224801F04AF90121204801F03AF906B09C
:1082E00010BD10B540F225511C4801F023FA10B31F
:1082F0001A4801F09FF9C4B21A48008810F4004FE0
:108300002BD11848008810F4804F0CD00A2C03D0D1
:1083100000201449088020E01248008840F4004002
:108320001049088019E00D2C06D10E48008840F451
:1083300080400C49088010E00A480088C0F30D0016
:1083400009490C5407480088401C06490880084623
:108350000088C72801DD0020088010BD00380140DA
:108360000008014020000020C20900200948804781
:1083700009480047FEE7FEE7FEE7FEE7FEE7FEE707
:10838000FEE7FEE7FEE7FEE704480549054A064B1F
:10839000704700008135000831310008F00A0020E4
:1083A000F0100020F00C0020F00C002031490143B7
:1083B000314A1160704770B5002100230F22C47844
:1083C0000CB32D4C246804F4E064C4F5E064210A85
:1083D000C1F10403CA40447804FA03F184781440DC
:1083E00021430901254C0678A155047804F01F05A6
:1083F0000124AC4005786D114FF0E02606EB8505B1
:10840000C5F8004109E0047804F01F050124AC40E0
:108410001B4D0678761145F8264070BD194A0A4072
:108420000243154B1B1F1A60704739B1124A121DC7
:1084300012680243104B1B1D1A6006E00E4A121D03
:10844000126882430C4B1B1D1A607047042808D128
:108450004FF0E021096941F004014FF0E022116181
:1084600007E04FF0E021096921F004014FF0E0221C
:10847000116170470000FA050CED00E000E400E037
:1084800080E100E080FFFF1F01460020FE4A1068E7
:1084900000F03800084310607047FB49096821F07C
:1084A0000801F94A116011460968014311607047DB
:1084B000F549096821F01001F34A11601146096875
:1084C000014311607047F148EF494860F048486047
:1084D0007047EE48EC494860ED4848607047EA480C
:1084E000006940F08000E84908617047E64800698B
:1084F00040F08000E449086170470420E249C968FF
:1085000011F0010F01D001200EE0DF49C96811F020
:10851000040F01D0022007E0DB49C96811F0100FF9
:1085200001D0032000E00420704700B50246042378
:10853000FFF7E3FF034603E0FFF7DFFF0346521EAA
:10854000012B01D1002AF7D102B90523184600BD3D
:1085500030B5044604254FF43020FFF7E6FF05460A
:10856000042D17D1C848006940F00200C6490861CF
:1085700008464461006940F0400008614FF4302033
:10858000FFF7D3FF0546C048006941F6FD7108407A
:10859000BD490861284630BD10B504244FF4302091
:1085A000FFF7C3FF0446042C16D1B748006940F01A
:1085B0000400B54908610846006940F040000861C0
:1085C0004FF43020FFF7B1FF0446AF48006941F691
:1085D000FB710840AC490861204610BD00B5024659
:1085E0000423FFF78AFF034603E0FFF786FF0346F5
:1085F000521E012B01D1002AF7D102B905231846DA
:1086000000BD10B504244FF43020FFF7E7FF044607
:10861000042C16D19C48006940F004009A49086176
:108620000846006940F0400008614FF43020FFF731
:10863000D5FF04469448006941F6FB710840924911
:108640000861204610BD00208F49C96911F0020F52
:1086500001D0012000E00020704730B5A52504249A
:10866000FFF7F1FF00B100254FF43020FFF75DFF69
:108670000446042C3AD18548834988608448886040
:108680000846006940F0200008610846006940F093
:10869000400008614FF43020FFF747FF0446042CE8
:1086A0001BD17948006941F6DF71084076490861BD
:1086B0000846006940F01000086176480580E00235
:1086C000FFF733FF0446052C10D06F48006941F6D0
:1086D000EF7108406C49086108E0052C06D06A4833
:1086E000006941F6EF71084067490861204630BDD6
:1086F00078B506460C46042500200090E802FFF7F6
:1087000014FF0546042D24D15F48006940F00100A4
:108710005D4908613480E802FFF707FF0546042D34
:1087200010D1B01C0090200C00990880E802FFF7DF
:10873000FCFE05465448006941F6FE710840524966
:10874000086106E05048006941F6FE7108404E4954
:108750000861284678BD70B504460D460426F0022F
:10876000FFF7E3FE0646042E11D14748006940F0AA
:108770000100454908612580F002FFF7D6FE064654
:108780004148006941F6FE7108403F4908613046A2
:1087900070BD70B505460E460424E002FFF7C5FE25
:1087A0000446042C17D13948374988603848886016
:1087B0000846006940F0100008612E80E002FFF7D3
:1087C000B4FE0446052C06D02F48006941F6EF712F
:1087D00008402D490861204670BD2DE9F04304464C
:1087E0004FF6FF763746B046B1460425E443E6B27D
:1087F000C4F30727C4F307484FEA1469E802FFF7F8
:1088000094FE0546042D49D120481F498860204820
:1088100088600846006940F010000861FF2E06D00D
:108820001C4808300680E802FFF77FFE0546042D4D
:1088300008D1FF2F06D017480A300780E802FFF75B
:1088400074FE0546042D0AD1B8F1FF0F07D0114878
:108850000C30A0F80080E802FFF767FE0546042D03
:108860000AD1B9F1FF0F07D00A480E30A0F80090E6
:10887000E802FFF75AFE0546052D0FD002480069B1
:1088800041F6EF71084007E00020024023016745F0
:10889000AB89EFCD00F8FF1F664908612846BDE8A7
:1088A000F08330B5054604244FF43020FFF73DFE39
:1088B0000446042C41D160485E4988605F48886066
:1088C0000846006940F0200008610846006940F051
:1088D000400008614FF43020FFF727FE0446042CC7
:1088E00022D15448006941F6DF71084051490861BE
:1088F0000846006940F0100008611DB10020504991
:10890000088002E0A5204E4908804FF43020FFF790
:108910000CFE0446052C10D04648006941F6EF7164
:1089200008404449086108E0052C06D04148006928
:1089300041F6DF7108403F490861204630BDF0B57F
:1089400005460E46174604243B483A4988603B4892
:108950008860E002FFF7E9FD0446042C19D1354890
:10896000006940F010003349086147F0F8003043D7
:1089700028433349891C0880E002FFF7D6FD0446EE
:10898000052C06D02B48006941F6EF7108402949B3
:1089900008612046F0BD2748C06980087047254817
:1089A000006A704700202349096811F0200F01D0A8
:1089B000012000E00020704729B11E4A12690243DD
:1089C0001C4B1A6104E01B4A12698243194B1A615D
:1089D000704701460020012908D1164AD26912F0D9
:1089E000010F01D0012008E0002006E0114AD26802
:1089F0000A4201D0012000E0002070470D49C86004
:108A0000704704200B49C96811F0010F01D0012003
:108A10000EE00849C96811F0040F01D0022007E0F8
:108A20000449C96811F0100F01D0032000E00420B0
:108A3000704700000020024023016745AB89EFCD5D
:108A400000F8FF1F30B943F2DB014FF0204242F83B
:108A5000201005E043F2D2014FF0204242F82010EE
:108A60006FF07042411C4FF0204343F82120114623
:108A70001A4602EB8002C2F80411704710280AD18E
:108A800018214FF020421166402151664FF0FC3111
:108A90009166D16610E01821F84A11604FF040014C
:108AA0004FF02042C2F884104FF0FC31F44A1160BC
:108AB0004FF02042C2F88C1070471820F14908602E
:108AC0004FF000004FF02041C1F8A4004FF0FC30FF
:108AD000ED49086001F10401086001F1040108603A
